{
  "address": "0x9fE46736679d2D9a65F0992F2272dE9f3c7fa6e0",
  "abi": [
    {
      "inputs": [
        {
          "internalType": "contract IRestore",
          "name": "_restore",
          "type": "address"
        },
        {
          "internalType": "address",
          "name": "_weth",
          "type": "address"
        },
        {
          "internalType": "address",
          "name": "_payment",
          "type": "address"
        },
        {
          "internalType": "address",
          "name": "_fund",
          "type": "address"
        },
        {
          "internalType": "uint256",
          "name": "_timeBuffer",
          "type": "uint256"
        },
        {
          "internalType": "uint256",
          "name": "_reservePrice",
          "type": "uint256"
        },
        {
          "internalType": "uint8",
          "name": "_minBidIncrementPercentage",
          "type": "uint8"
        },
        {
          "internalType": "uint256",
          "name": "_duration",
          "type": "uint256"
        }
      ],
      "stateMutability": "nonpayable",
      "type": "constructor"
    },
    {
      "anonymous": false,
      "inputs": [
        {
          "indexed": true,
          "internalType": "uint256",
          "name": "tokenId",
          "type": "uint256"
        },
        {
          "indexed": false,
          "internalType": "address",
          "name": "sender",
          "type": "address"
        },
        {
          "indexed": false,
          "internalType": "uint256",
          "name": "value",
          "type": "uint256"
        },
        {
          "indexed": false,
          "internalType": "bool",
          "name": "extended",
          "type": "bool"
        }
      ],
      "name": "AuctionBid",
      "type": "event"
    },
    {
      "anonymous": false,
      "inputs": [
        {
          "indexed": true,
          "internalType": "uint256",
          "name": "tokenId",
          "type": "uint256"
        },
        {
          "indexed": false,
          "internalType": "uint256",
          "name": "startTime",
          "type": "uint256"
        },
        {
          "indexed": false,
          "internalType": "uint256",
          "name": "endTime",
          "type": "uint256"
        }
      ],
      "name": "AuctionCreated",
      "type": "event"
    },
    {
      "anonymous": false,
      "inputs": [
        {
          "indexed": true,
          "internalType": "uint256",
          "name": "tokenId",
          "type": "uint256"
        },
        {
          "indexed": false,
          "internalType": "uint256",
          "name": "endTime",
          "type": "uint256"
        }
      ],
      "name": "AuctionExtended",
      "type": "event"
    },
    {
      "anonymous": false,
      "inputs": [
        {
          "indexed": false,
          "internalType": "uint256",
          "name": "minBidIncrementPercentage",
          "type": "uint256"
        }
      ],
      "name": "AuctionMinBidIncrementPercentageUpdated",
      "type": "event"
    },
    {
      "anonymous": false,
      "inputs": [
        {
          "indexed": false,
          "internalType": "uint256",
          "name": "reservePrice",
          "type": "uint256"
        }
      ],
      "name": "AuctionReservePriceUpdated",
      "type": "event"
    },
    {
      "anonymous": false,
      "inputs": [
        {
          "indexed": true,
          "internalType": "uint256",
          "name": "tokenId",
          "type": "uint256"
        },
        {
          "indexed": false,
          "internalType": "address",
          "name": "winner",
          "type": "address"
        },
        {
          "indexed": false,
          "internalType": "uint256",
          "name": "amount",
          "type": "uint256"
        }
      ],
      "name": "AuctionSettled",
      "type": "event"
    },
    {
      "anonymous": false,
      "inputs": [
        {
          "indexed": false,
          "internalType": "uint256",
          "name": "timeBuffer",
          "type": "uint256"
        }
      ],
      "name": "AuctionTimeBufferUpdated",
      "type": "event"
    },
    {
      "anonymous": false,
      "inputs": [
        {
          "indexed": false,
          "internalType": "address",
          "name": "newFund",
          "type": "address"
        }
      ],
      "name": "FundAddressUpdated",
      "type": "event"
    },
    {
      "anonymous": false,
      "inputs": [
        {
          "indexed": true,
          "internalType": "address",
          "name": "previousOwner",
          "type": "address"
        },
        {
          "indexed": true,
          "internalType": "address",
          "name": "newOwner",
          "type": "address"
        }
      ],
      "name": "OwnershipTransferred",
      "type": "event"
    },
    {
      "anonymous": false,
      "inputs": [
        {
          "indexed": false,
          "internalType": "address",
          "name": "newPayment",
          "type": "address"
        }
      ],
      "name": "PaymentAddressUpdated",
      "type": "event"
    },
    {
      "inputs": [],
      "name": "auction",
      "outputs": [
        {
          "internalType": "address",
          "name": "creator",
          "type": "address"
        },
        {
          "internalType": "uint256",
          "name": "tokenId",
          "type": "uint256"
        },
        {
          "internalType": "uint256",
          "name": "amount",
          "type": "uint256"
        },
        {
          "internalType": "uint256",
          "name": "startTime",
          "type": "uint256"
        },
        {
          "internalType": "uint256",
          "name": "endTime",
          "type": "uint256"
        },
        {
          "internalType": "address payable",
          "name": "bidder",
          "type": "address"
        },
        {
          "internalType": "bool",
          "name": "settled",
          "type": "bool"
        }
      ],
      "stateMutability": "view",
      "type": "function"
    },
    {
      "inputs": [
        {
          "internalType": "address",
          "name": "creator",
          "type": "address"
        },
        {
          "internalType": "uint256",
          "name": "tokenId",
          "type": "uint256"
        },
        {
          "internalType": "uint8[3]",
          "name": "split",
          "type": "uint8[3]"
        }
      ],
      "name": "createAuction",
      "outputs": [],
      "stateMutability": "nonpayable",
      "type": "function"
    },
    {
      "inputs": [
        {
          "internalType": "uint256",
          "name": "tokenId",
          "type": "uint256"
        }
      ],
      "name": "createBid",
      "outputs": [],
      "stateMutability": "payable",
      "type": "function"
    },
    {
      "inputs": [],
      "name": "duration",
      "outputs": [
        {
          "internalType": "uint256",
          "name": "",
          "type": "uint256"
        }
      ],
      "stateMutability": "view",
      "type": "function"
    },
    {
      "inputs": [],
      "name": "minBidIncrementPercentage",
      "outputs": [
        {
          "internalType": "uint8",
          "name": "",
          "type": "uint8"
        }
      ],
      "stateMutability": "view",
      "type": "function"
    },
    {
      "inputs": [],
      "name": "owner",
      "outputs": [
        {
          "internalType": "address",
          "name": "",
          "type": "address"
        }
      ],
      "stateMutability": "view",
      "type": "function"
    },
    {
      "inputs": [],
      "name": "renounceOwnership",
      "outputs": [],
      "stateMutability": "nonpayable",
      "type": "function"
    },
    {
      "inputs": [],
      "name": "reservePrice",
      "outputs": [
        {
          "internalType": "uint256",
          "name": "",
          "type": "uint256"
        }
      ],
      "stateMutability": "view",
      "type": "function"
    },
    {
      "inputs": [],
      "name": "restore",
      "outputs": [
        {
          "internalType": "contract IRestore",
          "name": "",
          "type": "address"
        }
      ],
      "stateMutability": "view",
      "type": "function"
    },
    {
      "inputs": [
        {
          "internalType": "address",
          "name": "_newFund",
          "type": "address"
        }
      ],
      "name": "setFundAddress",
      "outputs": [],
      "stateMutability": "nonpayable",
      "type": "function"
    },
    {
      "inputs": [
        {
          "internalType": "uint8",
          "name": "_minBidIncrementPercentage",
          "type": "uint8"
        }
      ],
      "name": "setMinBidIncrementPercentage",
      "outputs": [],
      "stateMutability": "nonpayable",
      "type": "function"
    },
    {
      "inputs": [
        {
          "internalType": "address",
          "name": "_newPayment",
          "type": "address"
        }
      ],
      "name": "setPaymentAddress",
      "outputs": [],
      "stateMutability": "nonpayable",
      "type": "function"
    },
    {
      "inputs": [
        {
          "internalType": "uint256",
          "name": "_reservePrice",
          "type": "uint256"
        }
      ],
      "name": "setReservePrice",
      "outputs": [],
      "stateMutability": "nonpayable",
      "type": "function"
    },
    {
      "inputs": [
        {
          "internalType": "uint256",
          "name": "_timeBuffer",
          "type": "uint256"
        }
      ],
      "name": "setTimeBuffer",
      "outputs": [],
      "stateMutability": "nonpayable",
      "type": "function"
    },
    {
      "inputs": [],
      "name": "settleAuction",
      "outputs": [],
      "stateMutability": "nonpayable",
      "type": "function"
    },
    {
      "inputs": [],
      "name": "timeBuffer",
      "outputs": [
        {
          "internalType": "uint256",
          "name": "",
          "type": "uint256"
        }
      ],
      "stateMutability": "view",
      "type": "function"
    },
    {
      "inputs": [
        {
          "internalType": "address",
          "name": "newOwner",
          "type": "address"
        }
      ],
      "name": "transferOwnership",
      "outputs": [],
      "stateMutability": "nonpayable",
      "type": "function"
    },
    {
      "inputs": [],
      "name": "weth",
      "outputs": [
        {
          "internalType": "address",
          "name": "",
          "type": "address"
        }
      ],
      "stateMutability": "view",
      "type": "function"
    }
  ],
  "transactionHash": "0x09cd5528ec6e22e99b48984ca5d00287752d6054eadac23298e8b6445f37f480",
  "args": [
    "0x5FbDB2315678afecb367f032d93F642f64180aa3",
    "0xe7f1725E7734CE288F8367e1Bb143E90bb3F0512",
    "0x3C44CdDdB6a900fa2b585dd299e03d12FA4293BC",
    "0x90F79bf6EB2c4f870365E785982E1f101E93b906",
    900,
    2,
    5,
    86400
  ],
  "numDeployments": 1,
  "solcInputHash": "dd6b6444cfb2e28c873f37a804bab0cb",
  "bytecode": "0x60806040523480156200001157600080fd5b5060405162002d5838038062002d58833981810160405281019062000037919062000397565b60016000819055506200005f62000053620001a160201b60201c565b620001a960201b60201c565b87600260006101000a81548173ffffffffffffffffffffffffffffffffffffffff021916908373ffffffffffffffffffffffffffffffffffffffff16021790555086600360006101000a81548173ffffffffffffffffffffffffffffffffffffffff021916908373ffffffffffffffffffffffffffffffffffffffff16021790555085600f60006101000a81548173ffffffffffffffffffffffffffffffffffffffff021916908373ffffffffffffffffffffffffffffffffffffffff16021790555084601060006101000a81548173ffffffffffffffffffffffffffffffffffffffff021916908373ffffffffffffffffffffffffffffffffffffffff160217905550836004819055508260058190555081600660006101000a81548160ff021916908360ff16021790555080600781905550505050505050505062000460565b600033905090565b6000600160009054906101000a900473ffffffffffffffffffffffffffffffffffffffff16905081600160006101000a81548173ffffffffffffffffffffffffffffffffffffffff021916908373ffffffffffffffffffffffffffffffffffffffff1602179055508173ffffffffffffffffffffffffffffffffffffffff168173ffffffffffffffffffffffffffffffffffffffff167f8be0079c531659141344cd1fd0a4f28419497f9722a3daafe3b4186f6b6457e060405160405180910390a35050565b600080fd5b600073ffffffffffffffffffffffffffffffffffffffff82169050919050565b6000620002a18262000274565b9050919050565b6000620002b58262000294565b9050919050565b620002c781620002a8565b8114620002d357600080fd5b50565b600081519050620002e781620002bc565b92915050565b620002f88162000294565b81146200030457600080fd5b50565b6000815190506200031881620002ed565b92915050565b6000819050919050565b62000333816200031e565b81146200033f57600080fd5b50565b600081519050620003538162000328565b92915050565b600060ff82169050919050565b620003718162000359565b81146200037d57600080fd5b50565b600081519050620003918162000366565b92915050565b600080600080600080600080610100898b031215620003bb57620003ba6200026f565b5b6000620003cb8b828c01620002d6565b9850506020620003de8b828c0162000307565b9750506040620003f18b828c0162000307565b9650506060620004048b828c0162000307565b9550506080620004178b828c0162000342565b94505060a06200042a8b828c0162000342565b93505060c06200043d8b828c0162000380565b92505060e0620004508b828c0162000342565b9150509295985092959890939650565b6128e880620004706000396000f3fe6080604052600436106101095760003560e01c806385dc300411610095578063b296024d11610064578063b296024d14610302578063ce9c7c0d1461032d578063db2e1eed14610356578063ec91f2a414610381578063f2fde38b146103ac57610109565b806385dc30041461026e5780638da5cb5b14610297578063a4d0a17e146102c2578063a8a9fe15146102d957610109565b80635e1e1004116100dc5780635e1e1004146101b8578063659dd2b4146101e15780637120334b146101fd578063715018a6146102265780637d9f6db51461023d57610109565b80630fb5a6b41461010e5780632fda332e1461013957806336ebdb38146101645780633fc8cef31461018d575b600080fd5b34801561011a57600080fd5b506101236103d5565b6040516101309190611aa8565b60405180910390f35b34801561014557600080fd5b5061014e6103db565b60405161015b9190611b42565b60405180910390f35b34801561017057600080fd5b5061018b60048036038101906101869190611ba5565b610401565b005b34801561019957600080fd5b506101a26104d2565b6040516101af9190611bf3565b60405180910390f35b3480156101c457600080fd5b506101df60048036038101906101da9190611c3a565b6104f8565b005b6101fb60048036038101906101f69190611c93565b6105ef565b005b34801561020957600080fd5b50610224600480360381019061021f9190611c93565b610a66565b005b34801561023257600080fd5b5061023b610b23565b005b34801561024957600080fd5b50610252610bab565b6040516102659796959493929190611cfc565b60405180910390f35b34801561027a57600080fd5b5061029560048036038101906102909190611c3a565b610c28565b005b3480156102a357600080fd5b506102ac610d1f565b6040516102b99190611bf3565b60405180910390f35b3480156102ce57600080fd5b506102d7610d49565b005b3480156102e557600080fd5b5061030060048036038101906102fb9190611eb2565b610da9565b005b34801561030e57600080fd5b50610317610fdb565b6040516103249190611f14565b60405180910390f35b34801561033957600080fd5b50610354600480360381019061034f9190611c93565b610fee565b005b34801561036257600080fd5b5061036b6110ab565b6040516103789190611aa8565b60405180910390f35b34801561038d57600080fd5b506103966110b1565b6040516103a39190611aa8565b60405180910390f35b3480156103b857600080fd5b506103d360048036038101906103ce9190611c3a565b6110b7565b005b60075481565b600260009054906101000a900473ffffffffffffffffffffffffffffffffffffffff1681565b6104096111af565b73ffffffffffffffffffffffffffffffffffffffff16610427610d1f565b73ffffffffffffffffffffffffffffffffffffffff161461047d576040517f08c379a000000000000000000000000000000000000000000000000000000000815260040161047490611f8c565b60405180910390fd5b80600660006101000a81548160ff021916908360ff1602179055507fec5ccd96cc77b6219e9d44143df916af68fc169339ea7de5008ff15eae13450d816040516104c79190611fdd565b60405180910390a150565b600360009054906101000a900473ffffffffffffffffffffffffffffffffffffffff1681565b6105006111af565b73ffffffffffffffffffffffffffffffffffffffff1661051e610d1f565b73ffffffffffffffffffffffffffffffffffffffff1614610574576040517f08c379a000000000000000000000000000000000000000000000000000000000815260040161056b90611f8c565b60405180910390fd5b80600f60006101000a81548173ffffffffffffffffffffffffffffffffffffffff021916908373ffffffffffffffffffffffffffffffffffffffff1602179055507f38391451438b7e6e244427ebf168c1c4955ab37f81307aa329e3ce3ba24c2866816040516105e49190611bf3565b60405180910390a150565b60026000541415610635576040517f08c379a000000000000000000000000000000000000000000000000000000000815260040161062c90612044565b60405180910390fd5b60026000819055506000600860405180610100016040529081600082016003806020026040519081016040528092919082600380156106af576020028201916000905b82829054906101000a900460ff1660ff16815260200190600101906020826000010492830192600103820291508084116106785790505b505050505081526020016001820160009054906101000a900473ffffffffffffffffffffffffffffffffffffffff1673ffffffffffffffffffffffffffffffffffffffff1673ffffffffffffffffffffffffffffffffffffffff168152602001600282015481526020016003820154815260200160048201548152602001600582015481526020016006820160009054906101000a900473ffffffffffffffffffffffffffffffffffffffff1673ffffffffffffffffffffffffffffffffffffffff1673ffffffffffffffffffffffffffffffffffffffff1681526020016006820160149054906101000a900460ff1615151515815250509050818160400151146107ef576040517f08c379a00000000000000000000000000000000000000000000000000000000081526004016107e6906120b0565b60405180910390fd5b8060a001514210610835576040517f08c379a000000000000000000000000000000000000000000000000000000000815260040161082c9061211c565b60405180910390fd5b60055434101561087a576040517f08c379a0000000000000000000000000000000000000000000000000000000008152600401610871906121ae565b60405180910390fd5b6064600660009054906101000a900460ff1660ff16826060015161089e91906121fd565b6108a89190612286565b81606001516108b791906122b7565b3410156108f9576040517f08c379a00000000000000000000000000000000000000000000000000000000081526004016108f0906123a5565b60405180910390fd5b60008160c001519050600073ffffffffffffffffffffffffffffffffffffffff168173ffffffffffffffffffffffffffffffffffffffff1614610945576109448183606001516111b7565b5b3460086003018190555033600860060160006101000a81548173ffffffffffffffffffffffffffffffffffffffff021916908373ffffffffffffffffffffffffffffffffffffffff1602179055506000600454428460a001516109a891906123c5565b10905080156109d157600454426109bf91906122b7565b8360a001818152506008600501819055505b82604001517f1159164c56f277e6fc99c11731bd380e0347deb969b75523398734c252706ea3333484604051610a09939291906123f9565b60405180910390a28015610a585782604001517f6e912a3a9105bdd2af817ba5adc14e6c127c1035b5b648faa29ca0d58ab8ff4e8460a00151604051610a4f9190611aa8565b60405180910390a25b505050600160008190555050565b610a6e6111af565b73ffffffffffffffffffffffffffffffffffffffff16610a8c610d1f565b73ffffffffffffffffffffffffffffffffffffffff1614610ae2576040517f08c379a0000000000000000000000000000000000000000000000000000000008152600401610ad990611f8c565b60405180910390fd5b806004819055507f1b55d9f7002bda4490f467e326f22a4a847629c0f2d1ed421607d318d25b410d81604051610b189190611aa8565b60405180910390a150565b610b2b6111af565b73ffffffffffffffffffffffffffffffffffffffff16610b49610d1f565b73ffffffffffffffffffffffffffffffffffffffff1614610b9f576040517f08c379a0000000000000000000000000000000000000000000000000000000008152600401610b9690611f8c565b60405180910390fd5b610ba960006112ee565b565b60088060010160009054906101000a900473ffffffffffffffffffffffffffffffffffffffff16908060020154908060030154908060040154908060050154908060060160009054906101000a900473ffffffffffffffffffffffffffffffffffffffff16908060060160149054906101000a900460ff16905087565b610c306111af565b73ffffffffffffffffffffffffffffffffffffffff16610c4e610d1f565b73ffffffffffffffffffffffffffffffffffffffff1614610ca4576040517f08c379a0000000000000000000000000000000000000000000000000000000008152600401610c9b90611f8c565b60405180910390fd5b80601060006101000a81548173ffffffffffffffffffffffffffffffffffffffff021916908373ffffffffffffffffffffffffffffffffffffffff1602179055507f6bed6474711943f2d27e5ea867d18cf848a8dab37cc30943bc20c38b12494ab481604051610d149190611bf3565b60405180910390a150565b6000600160009054906101000a900473ffffffffffffffffffffffffffffffffffffffff16905090565b60026000541415610d8f576040517f08c379a0000000000000000000000000000000000000000000000000000000008152600401610d8690612044565b60405180910390fd5b6002600081905550610d9f6113b4565b6001600081905550565b610db16111af565b73ffffffffffffffffffffffffffffffffffffffff16610dcf610d1f565b73ffffffffffffffffffffffffffffffffffffffff1614610e25576040517f08c379a0000000000000000000000000000000000000000000000000000000008152600401610e1c90611f8c565b60405180910390fd5b6000429050600060075482610e3a91906122b7565b90506040518061010001604052808481526020018673ffffffffffffffffffffffffffffffffffffffff16815260200185815260200160008152602001838152602001828152602001600073ffffffffffffffffffffffffffffffffffffffff168152602001600015158152506008600082015181600001906003610ec09291906119d8565b5060208201518160010160006101000a81548173ffffffffffffffffffffffffffffffffffffffff021916908373ffffffffffffffffffffffffffffffffffffffff16021790555060408201518160020155606082015181600301556080820151816004015560a0820151816005015560c08201518160060160006101000a81548173ffffffffffffffffffffffffffffffffffffffff021916908373ffffffffffffffffffffffffffffffffffffffff16021790555060e08201518160060160146101000a81548160ff021916908315150217905550905050837fd6eddd1118d71820909c1197aa966dbc15ed6f508554252169cc3d5ccac756ca8383604051610fcc929190612430565b60405180910390a25050505050565b600660009054906101000a900460ff1681565b610ff66111af565b73ffffffffffffffffffffffffffffffffffffffff16611014610d1f565b73ffffffffffffffffffffffffffffffffffffffff161461106a576040517f08c379a000000000000000000000000000000000000000000000000000000000815260040161106190611f8c565b60405180910390fd5b806005819055507f6ab2e127d7fdf53b8f304e59d3aab5bfe97979f52a85479691a6fab27a28a6b2816040516110a09190611aa8565b60405180910390a150565b60055481565b60045481565b6110bf6111af565b73ffffffffffffffffffffffffffffffffffffffff166110dd610d1f565b73ffffffffffffffffffffffffffffffffffffffff1614611133576040517f08c379a000000000000000000000000000000000000000000000000000000000815260040161112a90611f8c565b60405180910390fd5b600073ffffffffffffffffffffffffffffffffffffffff168173ffffffffffffffffffffffffffffffffffffffff1614156111a3576040517f08c379a000000000000000000000000000000000000000000000000000000000815260040161119a906124cb565b60405180910390fd5b6111ac816112ee565b50565b600033905090565b6111c1828261190d565b6112ea57600360009054906101000a900473ffffffffffffffffffffffffffffffffffffffff1673ffffffffffffffffffffffffffffffffffffffff1663d0e30db0826040518263ffffffff1660e01b81526004016000604051808303818588803b15801561122f57600080fd5b505af1158015611243573d6000803e3d6000fd5b5050505050600360009054906101000a900473ffffffffffffffffffffffffffffffffffffffff1673ffffffffffffffffffffffffffffffffffffffff1663a9059cbb83836040518363ffffffff1660e01b81526004016112a59291906124eb565b6020604051808303816000875af11580156112c4573d6000803e3d6000fd5b505050506040513d601f19601f820116820180604052508101906112e89190612540565b505b5050565b6000600160009054906101000a900473ffffffffffffffffffffffffffffffffffffffff16905081600160006101000a81548173ffffffffffffffffffffffffffffffffffffffff021916908373ffffffffffffffffffffffffffffffffffffffff1602179055508173ffffffffffffffffffffffffffffffffffffffff168173ffffffffffffffffffffffffffffffffffffffff167f8be0079c531659141344cd1fd0a4f28419497f9722a3daafe3b4186f6b6457e060405160405180910390a35050565b600060086040518061010001604052908160008201600380602002604051908101604052809291908260038015611426576020028201916000905b82829054906101000a900460ff1660ff16815260200190600101906020826000010492830192600103820291508084116113ef5790505b505050505081526020016001820160009054906101000a900473ffffffffffffffffffffffffffffffffffffffff1673ffffffffffffffffffffffffffffffffffffffff1673ffffffffffffffffffffffffffffffffffffffff168152602001600282015481526020016003820154815260200160048201548152602001600582015481526020016006820160009054906101000a900473ffffffffffffffffffffffffffffffffffffffff1673ffffffffffffffffffffffffffffffffffffffff1673ffffffffffffffffffffffffffffffffffffffff1681526020016006820160149054906101000a900460ff1615151515815250509050600081608001511415611568576040517f08c379a000000000000000000000000000000000000000000000000000000000815260040161155f906125b9565b60405180910390fd5b8060e00151156115ad576040517f08c379a00000000000000000000000000000000000000000000000000000000081526004016115a49061264b565b60405180910390fd5b8060a001514210156115f4576040517f08c379a00000000000000000000000000000000000000000000000000000000081526004016115eb906126dd565b60405180910390fd5b6001600860060160146101000a81548160ff021916908315150217905550600073ffffffffffffffffffffffffffffffffffffffff168160c0015173ffffffffffffffffffffffffffffffffffffffff16141561171857600260009054906101000a900473ffffffffffffffffffffffffffffffffffffffff1673ffffffffffffffffffffffffffffffffffffffff1663dd9e533882604001516040518060400160405280600881526020017f6e6f2062757965720000000000000000000000000000000000000000000000008152506040518363ffffffff1660e01b81526004016116e1929190612785565b600060405180830381600087803b1580156116fb57600080fd5b505af115801561170f573d6000803e3d6000fd5b505050506117b0565b600260009054906101000a900473ffffffffffffffffffffffffffffffffffffffff1673ffffffffffffffffffffffffffffffffffffffff166324bce60c8260c0015183604001516040518363ffffffff1660e01b815260040161177d9291906127d6565b600060405180830381600087803b15801561179757600080fd5b505af11580156117ab573d6000803e3d6000fd5b505050505b6000816060015111156118c4576000606482600001516000600381106117d9576117d86127ff565b5b60200201516117e8919061282e565b60ff1682606001516117fa91906121fd565b9050611828600f60009054906101000a900473ffffffffffffffffffffffffffffffffffffffff16826111b7565b600060648360000151600160038110611844576118436127ff565b5b6020020151611853919061282e565b60ff16836060015161186591906121fd565b9050611893601060009054906101000a900473ffffffffffffffffffffffffffffffffffffffff16826111b7565b6000818385606001516118a691906123c5565b6118b091906123c5565b90506118c08460200151826111b7565b5050505b80604001517fc9f72b276a388619c6d185d146697036241880c36654b1a3ffdad07c24038d998260c0015183606001516040516119029291906127d6565b60405180910390a250565b6000808373ffffffffffffffffffffffffffffffffffffffff168361753090600067ffffffffffffffff81111561194757611946611d81565b5b6040519080825280601f01601f1916602001820160405280156119795781602001600182028036833780820191505090505b50604051611987919061289b565b600060405180830381858888f193505050503d80600081146119c5576040519150601f19603f3d011682016040523d82523d6000602084013e6119ca565b606091505b505090508091505092915050565b826003601f01602090048101928215611a615791602002820160005b83821115611a3257835183826101000a81548160ff021916908360ff16021790555092602001926001016020816000010492830192600103026119f4565b8015611a5f5782816101000a81549060ff0219169055600101602081600001049283019260010302611a32565b505b509050611a6e9190611a72565b5090565b5b80821115611a8b576000816000905550600101611a73565b5090565b6000819050919050565b611aa281611a8f565b82525050565b6000602082019050611abd6000830184611a99565b92915050565b600073ffffffffffffffffffffffffffffffffffffffff82169050919050565b6000819050919050565b6000611b08611b03611afe84611ac3565b611ae3565b611ac3565b9050919050565b6000611b1a82611aed565b9050919050565b6000611b2c82611b0f565b9050919050565b611b3c81611b21565b82525050565b6000602082019050611b576000830184611b33565b92915050565b6000604051905090565b600080fd5b600060ff82169050919050565b611b8281611b6c565b8114611b8d57600080fd5b50565b600081359050611b9f81611b79565b92915050565b600060208284031215611bbb57611bba611b67565b5b6000611bc984828501611b90565b91505092915050565b6000611bdd82611ac3565b9050919050565b611bed81611bd2565b82525050565b6000602082019050611c086000830184611be4565b92915050565b611c1781611bd2565b8114611c2257600080fd5b50565b600081359050611c3481611c0e565b92915050565b600060208284031215611c5057611c4f611b67565b5b6000611c5e84828501611c25565b91505092915050565b611c7081611a8f565b8114611c7b57600080fd5b50565b600081359050611c8d81611c67565b92915050565b600060208284031215611ca957611ca8611b67565b5b6000611cb784828501611c7e565b91505092915050565b6000611ccb82611ac3565b9050919050565b611cdb81611cc0565b82525050565b60008115159050919050565b611cf681611ce1565b82525050565b600060e082019050611d11600083018a611be4565b611d1e6020830189611a99565b611d2b6040830188611a99565b611d386060830187611a99565b611d456080830186611a99565b611d5260a0830185611cd2565b611d5f60c0830184611ced565b98975050505050505050565b600080fd5b6000601f19601f8301169050919050565b7f4e487b7100000000000000000000000000000000000000000000000000000000600052604160045260246000fd5b611db982611d70565b810181811067ffffffffffffffff82111715611dd857611dd7611d81565b5b80604052505050565b6000611deb611b5d565b9050611df78282611db0565b919050565b600067ffffffffffffffff821115611e1757611e16611d81565b5b602082029050919050565b600080fd5b6000611e3a611e3584611dfc565b611de1565b90508060208402830185811115611e5457611e53611e22565b5b835b81811015611e7d5780611e698882611b90565b845260208401935050602081019050611e56565b5050509392505050565b600082601f830112611e9c57611e9b611d6b565b5b6003611ea9848285611e27565b91505092915050565b600080600060a08486031215611ecb57611eca611b67565b5b6000611ed986828701611c25565b9350506020611eea86828701611c7e565b9250506040611efb86828701611e87565b9150509250925092565b611f0e81611b6c565b82525050565b6000602082019050611f296000830184611f05565b92915050565b600082825260208201905092915050565b7f4f776e61626c653a2063616c6c6572206973206e6f7420746865206f776e6572600082015250565b6000611f76602083611f2f565b9150611f8182611f40565b602082019050919050565b60006020820190508181036000830152611fa581611f69565b9050919050565b6000611fc7611fc2611fbd84611b6c565b611ae3565b611a8f565b9050919050565b611fd781611fac565b82525050565b6000602082019050611ff26000830184611fce565b92915050565b7f5265656e7472616e637947756172643a207265656e7472616e742063616c6c00600082015250565b600061202e601f83611f2f565b915061203982611ff8565b602082019050919050565b6000602082019050818103600083015261205d81612021565b9050919050565b7f4a7573746963653a20417274206e6f7420757020666f722061756374696f6e00600082015250565b600061209a601f83611f2f565b91506120a582612064565b602082019050919050565b600060208201905081810360008301526120c98161208d565b9050919050565b7f4a7573746963653a2041756374696f6e20657870697265640000000000000000600082015250565b6000612106601883611f2f565b9150612111826120d0565b602082019050919050565b60006020820190508181036000830152612135816120f9565b9050919050565b7f4a7573746963653a204d7573742073656e64206174206c65617374207265736560008201527f7276655072696365000000000000000000000000000000000000000000000000602082015250565b6000612198602883611f2f565b91506121a38261213c565b604082019050919050565b600060208201905081810360008301526121c78161218b565b9050919050565b7f4e487b7100000000000000000000000000000000000000000000000000000000600052601160045260246000fd5b600061220882611a8f565b915061221383611a8f565b9250817fffffffffffffffffffffffffffffffffffffffffffffffffffffffffffffffff048311821515161561224c5761224b6121ce565b5b828202905092915050565b7f4e487b7100000000000000000000000000000000000000000000000000000000600052601260045260246000fd5b600061229182611a8f565b915061229c83611a8f565b9250826122ac576122ab612257565b5b828204905092915050565b60006122c282611a8f565b91506122cd83611a8f565b9250827fffffffffffffffffffffffffffffffffffffffffffffffffffffffffffffffff03821115612302576123016121ce565b5b828201905092915050565b7f4a7573746963653a204d7573742073656e64206d6f7265207468616e206c617360008201527f7420626964206279206d696e426964496e6372656d656e7450657263656e746160208201527f676520616d6f756e740000000000000000000000000000000000000000000000604082015250565b600061238f604983611f2f565b915061239a8261230d565b606082019050919050565b600060208201905081810360008301526123be81612382565b9050919050565b60006123d082611a8f565b91506123db83611a8f565b9250828210156123ee576123ed6121ce565b5b828203905092915050565b600060608201905061240e6000830186611be4565b61241b6020830185611a99565b6124286040830184611ced565b949350505050565b60006040820190506124456000830185611a99565b6124526020830184611a99565b9392505050565b7f4f776e61626c653a206e6577206f776e657220697320746865207a65726f206160008201527f6464726573730000000000000000000000000000000000000000000000000000602082015250565b60006124b5602683611f2f565b91506124c082612459565b604082019050919050565b600060208201905081810360008301526124e4816124a8565b9050919050565b60006040820190506125006000830185611be4565b61250d6020830184611a99565b9392505050565b61251d81611ce1565b811461252857600080fd5b50565b60008151905061253a81612514565b92915050565b60006020828403121561255657612555611b67565b5b60006125648482850161252b565b91505092915050565b7f4a7573746963653a2041756374696f6e206861736e277420626567756e000000600082015250565b60006125a3601d83611f2f565b91506125ae8261256d565b602082019050919050565b600060208201905081810360008301526125d281612596565b9050919050565b7f4a7573746963653a2041756374696f6e2068617320616c72656164792062656560008201527f6e20736574746c65640000000000000000000000000000000000000000000000602082015250565b6000612635602983611f2f565b9150612640826125d9565b604082019050919050565b6000602082019050818103600083015261266481612628565b9050919050565b7f4a7573746963653a2041756374696f6e206861736e277420636f6d706c65746560008201527f6400000000000000000000000000000000000000000000000000000000000000602082015250565b60006126c7602183611f2f565b91506126d28261266b565b604082019050919050565b600060208201905081810360008301526126f6816126ba565b9050919050565b600081519050919050565b600082825260208201905092915050565b60005b8381101561273757808201518184015260208101905061271c565b83811115612746576000848401525b50505050565b6000612757826126fd565b6127618185612708565b9350612771818560208601612719565b61277a81611d70565b840191505092915050565b600060408201905061279a6000830185611a99565b81810360208301526127ac818461274c565b90509392505050565b60006127c082611b0f565b9050919050565b6127d0816127b5565b82525050565b60006040820190506127eb60008301856127c7565b6127f86020830184611a99565b9392505050565b7f4e487b7100000000000000000000000000000000000000000000000000000000600052603260045260246000fd5b600061283982611b6c565b915061284483611b6c565b92508261285457612853612257565b5b828204905092915050565b600081905092915050565b6000612875826126fd565b61287f818561285f565b935061288f818560208601612719565b80840191505092915050565b60006128a7828461286a565b91508190509291505056fea26469706673582212209d3cc7e102ec97af5a41bf4f7379fa1ec72d4fcc17402a8a1eac5998ce32cc2464736f6c634300080b0033",
  "devdoc": {
    "kind": "dev",
    "methods": {
      "createAuction(address,uint256,uint8[3])": {
        "details": "Store the auction details in the `auction` state variable and emit an AuctionCreated event. If the mint reverts, dragons are unleashed. To remedy this, catch the revert and pause this contract.",
        "params": {
          "creator": "the address of the creator so we can pass it to the payment splitter once the auction is settled.",
          "split": "a fixed-sized array of max 3 members which determines how sale proceeds are split between pr1s0nartPayment              (the address that exchanges into USD and pays LFOs), pr1s0nartFund (our onchain fund to cover operations),              and the creator address if they have one and can receive crypto in addition to the LFO payments we cover.              This is likely only the case if they are no longer incarcerated and have an ETH address.",
          "tokenId": "the index of the art piece to be auctioned off"
        }
      },
      "createBid(uint256)": {
        "details": "This contract only accepts payment in ETH."
      },
      "owner()": {
        "details": "Returns the address of the current owner."
      },
      "renounceOwnership()": {
        "details": "Leaves the contract without owner. It will not be possible to call `onlyOwner` functions anymore. Can only be called by the current owner. NOTE: Renouncing ownership will leave the contract without an owner, thereby removing any functionality that is only available to the owner."
      },
      "setFundAddress(address)": {
        "details": "Only callable by the owner."
      },
      "setMinBidIncrementPercentage(uint8)": {
        "details": "Only callable by the owner."
      },
      "setPaymentAddress(address)": {
        "details": "Only callable by the owner."
      },
      "setReservePrice(uint256)": {
        "details": "Only callable by the owner."
      },
      "setTimeBuffer(uint256)": {
        "details": "Only callable by the owner."
      },
      "settleAuction()": {
        "details": "This function can only be called when the contract is paused. TODO: from where will we call this in the normal course of events? https://github.com/nounsDAO/nouns-monorepo/blob/2cbe6c7bdfee258e646e8d9e84302375320abc72/packages/nouns-webapp/src/components/Bid/index.tsx#L74"
      },
      "transferOwnership(address)": {
        "details": "Transfers ownership of the contract to a new account (`newOwner`). Can only be called by the current owner."
      }
    },
    "title": "Justice Justice - a contract that creates unique NFTs to be auctioned off, using the Restore the ERC721 Contract. Adapted from the wonderful people at Nounders DAO. https://github.com/nounsDAO/nouns-monorepo/blob/2cbe6c7bdfee258e646e8d9e84302375320abc72/packages/nouns-contracts/contracts/NounsAuctionHouse.sol Once auctioned, this contract does not immediatedly transfer the art, but 'freezes' it, while ensuring that the owner of the system, which is multisig owned by Pr1s0n Art Inc - a 501(c)3 registered in Florida - can only ever transfer them to the winning bidder. Pr1s0n Art takes the funds raised from the sale, exchanges them into USD, pays the Legal Financial Obligations of the people who made the art and then reattaches the receipts as the `data` in `transferToBuyer`, which uses the `safeTransferFrom` method in the ERC721 standard. This means you receive not just the art, but the full story - aesthetic, economic and sociopolitical - of a human being's journey home. This contract enacts restorative justice because, unless we are all involved with justice, we will never realise it fully.",
    "version": 1
  },
  "userdoc": {
    "kind": "user",
    "methods": {
      "constructor": {
        "notice": "Set up the Justice Auction House and prepopulate initial values"
      },
      "createAuction(address,uint256,uint8[3])": {
        "notice": "Create an auction."
      },
      "createBid(uint256)": {
        "notice": "Create a bid for a pr1s0n.art piece, with a given amount."
      },
      "setFundAddress(address)": {
        "notice": "Set the pr1s0nartFund address (handles onchain fund for operations)"
      },
      "setMinBidIncrementPercentage(uint8)": {
        "notice": "Set the auction minimum bid increment percentage."
      },
      "setPaymentAddress(address)": {
        "notice": "Set the pr1s0nart payment address (handles exchange to USD + LFO payments)."
      },
      "setReservePrice(uint256)": {
        "notice": "Set the auction reserve price."
      },
      "setTimeBuffer(uint256)": {
        "notice": "Set the auction time buffer."
      },
      "settleAuction()": {
        "notice": "Settle the current auction."
      }
    },
    "version": 1
  },
  "storageLayout": {
    "storage": [
      {
        "astId": 115,
        "contract": "contracts/Justice.sol:Justice",
        "label": "_status",
        "offset": 0,
        "slot": "0",
        "type": "t_uint256"
      },
      {
        "astId": 7,
        "contract": "contracts/Justice.sol:Justice",
        "label": "_owner",
        "offset": 0,
        "slot": "1",
        "type": "t_address"
      },
      {
        "astId": 1068,
        "contract": "contracts/Justice.sol:Justice",
        "label": "restore",
        "offset": 0,
        "slot": "2",
        "type": "t_contract(IRestore)3663"
      },
      {
        "astId": 1070,
        "contract": "contracts/Justice.sol:Justice",
        "label": "weth",
        "offset": 0,
        "slot": "3",
        "type": "t_address"
      },
      {
        "astId": 1072,
        "contract": "contracts/Justice.sol:Justice",
        "label": "timeBuffer",
        "offset": 0,
        "slot": "4",
        "type": "t_uint256"
      },
      {
        "astId": 1074,
        "contract": "contracts/Justice.sol:Justice",
        "label": "reservePrice",
        "offset": 0,
        "slot": "5",
        "type": "t_uint256"
      },
      {
        "astId": 1076,
        "contract": "contracts/Justice.sol:Justice",
        "label": "minBidIncrementPercentage",
        "offset": 0,
        "slot": "6",
        "type": "t_uint8"
      },
      {
        "astId": 1078,
        "contract": "contracts/Justice.sol:Justice",
        "label": "duration",
        "offset": 0,
        "slot": "7",
        "type": "t_uint256"
      },
      {
        "astId": 1081,
        "contract": "contracts/Justice.sol:Justice",
        "label": "auction",
        "offset": 0,
        "slot": "8",
        "type": "t_struct(Auction)3520_storage"
      },
      {
        "astId": 1083,
        "contract": "contracts/Justice.sol:Justice",
        "label": "payment",
        "offset": 0,
        "slot": "15",
        "type": "t_address"
      },
      {
        "astId": 1085,
        "contract": "contracts/Justice.sol:Justice",
        "label": "fund",
        "offset": 0,
        "slot": "16",
        "type": "t_address"
      }
    ],
    "types": {
      "t_address": {
        "encoding": "inplace",
        "label": "address",
        "numberOfBytes": "20"
      },
      "t_address_payable": {
        "encoding": "inplace",
        "label": "address payable",
        "numberOfBytes": "20"
      },
      "t_array(t_uint8)3_storage": {
        "base": "t_uint8",
        "encoding": "inplace",
        "label": "uint8[3]",
        "numberOfBytes": "32"
      },
      "t_bool": {
        "encoding": "inplace",
        "label": "bool",
        "numberOfBytes": "1"
      },
      "t_contract(IRestore)3663": {
        "encoding": "inplace",
        "label": "contract IRestore",
        "numberOfBytes": "20"
      },
      "t_struct(Auction)3520_storage": {
        "encoding": "inplace",
        "label": "struct IJustice.Auction",
        "members": [
          {
            "astId": 3505,
            "contract": "contracts/Justice.sol:Justice",
            "label": "saleSplit",
            "offset": 0,
            "slot": "0",
            "type": "t_array(t_uint8)3_storage"
          },
          {
            "astId": 3507,
            "contract": "contracts/Justice.sol:Justice",
            "label": "creator",
            "offset": 0,
            "slot": "1",
            "type": "t_address"
          },
          {
            "astId": 3509,
            "contract": "contracts/Justice.sol:Justice",
            "label": "tokenId",
            "offset": 0,
            "slot": "2",
            "type": "t_uint256"
          },
          {
            "astId": 3511,
            "contract": "contracts/Justice.sol:Justice",
            "label": "amount",
            "offset": 0,
            "slot": "3",
            "type": "t_uint256"
          },
          {
            "astId": 3513,
            "contract": "contracts/Justice.sol:Justice",
            "label": "startTime",
            "offset": 0,
            "slot": "4",
            "type": "t_uint256"
          },
          {
            "astId": 3515,
            "contract": "contracts/Justice.sol:Justice",
            "label": "endTime",
            "offset": 0,
            "slot": "5",
            "type": "t_uint256"
          },
          {
            "astId": 3517,
            "contract": "contracts/Justice.sol:Justice",
            "label": "bidder",
            "offset": 0,
            "slot": "6",
            "type": "t_address_payable"
          },
          {
            "astId": 3519,
            "contract": "contracts/Justice.sol:Justice",
            "label": "settled",
            "offset": 20,
            "slot": "6",
            "type": "t_bool"
          }
        ],
        "numberOfBytes": "224"
      },
      "t_uint256": {
        "encoding": "inplace",
        "label": "uint256",
        "numberOfBytes": "32"
      },
      "t_uint8": {
        "encoding": "inplace",
        "label": "uint8",
        "numberOfBytes": "1"
      }
    }
  }
}