{
  "address": "0x5FbDB2315678afecb367f032d93F642f64180aa3",
  "abi": [
    {
      "inputs": [
        {
          "internalType": "address",
          "name": "_proxyRegistryAddress",
          "type": "address"
        }
      ],
      "stateMutability": "nonpayable",
      "type": "constructor"
    },
    {
      "anonymous": false,
      "inputs": [
        {
          "indexed": true,
          "internalType": "address",
          "name": "owner",
          "type": "address"
        },
        {
          "indexed": true,
          "internalType": "address",
          "name": "approved",
          "type": "address"
        },
        {
          "indexed": true,
          "internalType": "uint256",
          "name": "tokenId",
          "type": "uint256"
        }
      ],
      "name": "Approval",
      "type": "event"
    },
    {
      "anonymous": false,
      "inputs": [
        {
          "indexed": true,
          "internalType": "address",
          "name": "owner",
          "type": "address"
        },
        {
          "indexed": true,
          "internalType": "address",
          "name": "operator",
          "type": "address"
        },
        {
          "indexed": false,
          "internalType": "bool",
          "name": "approved",
          "type": "bool"
        }
      ],
      "name": "ApprovalForAll",
      "type": "event"
    },
    {
      "anonymous": false,
      "inputs": [
        {
          "indexed": false,
          "internalType": "address",
          "name": "buyer",
          "type": "address"
        },
        {
          "indexed": true,
          "internalType": "uint256",
          "name": "tokenId",
          "type": "uint256"
        }
      ],
      "name": "ArtFrozen",
      "type": "event"
    },
    {
      "anonymous": false,
      "inputs": [
        {
          "indexed": false,
          "internalType": "address",
          "name": "buyer",
          "type": "address"
        },
        {
          "indexed": true,
          "internalType": "uint256",
          "name": "tokenId",
          "type": "uint256"
        },
        {
          "indexed": false,
          "internalType": "bytes",
          "name": "data",
          "type": "bytes"
        }
      ],
      "name": "ArtTransferred",
      "type": "event"
    },
    {
      "anonymous": false,
      "inputs": [
        {
          "indexed": true,
          "internalType": "address",
          "name": "previousOwner",
          "type": "address"
        },
        {
          "indexed": true,
          "internalType": "address",
          "name": "newOwner",
          "type": "address"
        }
      ],
      "name": "OwnershipTransferred",
      "type": "event"
    },
    {
      "anonymous": false,
      "inputs": [
        {
          "indexed": false,
          "internalType": "address",
          "name": "to",
          "type": "address"
        },
        {
          "indexed": false,
          "internalType": "uint256",
          "name": "tokenId",
          "type": "uint256"
        },
        {
          "indexed": false,
          "internalType": "string",
          "name": "uri",
          "type": "string"
        }
      ],
      "name": "ReadyForAuction",
      "type": "event"
    },
    {
      "anonymous": false,
      "inputs": [
        {
          "indexed": true,
          "internalType": "address",
          "name": "from",
          "type": "address"
        },
        {
          "indexed": true,
          "internalType": "address",
          "name": "to",
          "type": "address"
        },
        {
          "indexed": true,
          "internalType": "uint256",
          "name": "tokenId",
          "type": "uint256"
        }
      ],
      "name": "Transfer",
      "type": "event"
    },
    {
      "inputs": [
        {
          "internalType": "address",
          "name": "to",
          "type": "address"
        },
        {
          "internalType": "uint256",
          "name": "tokenId",
          "type": "uint256"
        }
      ],
      "name": "approve",
      "outputs": [],
      "stateMutability": "nonpayable",
      "type": "function"
    },
    {
      "inputs": [
        {
          "internalType": "address",
          "name": "owner",
          "type": "address"
        }
      ],
      "name": "balanceOf",
      "outputs": [
        {
          "internalType": "uint256",
          "name": "",
          "type": "uint256"
        }
      ],
      "stateMutability": "view",
      "type": "function"
    },
    {
      "inputs": [
        {
          "internalType": "uint256",
          "name": "tokenId",
          "type": "uint256"
        }
      ],
      "name": "burn",
      "outputs": [],
      "stateMutability": "nonpayable",
      "type": "function"
    },
    {
      "inputs": [],
      "name": "contractURI",
      "outputs": [
        {
          "internalType": "string",
          "name": "",
          "type": "string"
        }
      ],
      "stateMutability": "pure",
      "type": "function"
    },
    {
      "inputs": [
        {
          "internalType": "address",
          "name": "buyer",
          "type": "address"
        },
        {
          "internalType": "uint256",
          "name": "tokenId",
          "type": "uint256"
        }
      ],
      "name": "freeze",
      "outputs": [],
      "stateMutability": "nonpayable",
      "type": "function"
    },
    {
      "inputs": [
        {
          "internalType": "uint256",
          "name": "tokenId",
          "type": "uint256"
        }
      ],
      "name": "getApproved",
      "outputs": [
        {
          "internalType": "address",
          "name": "",
          "type": "address"
        }
      ],
      "stateMutability": "view",
      "type": "function"
    },
    {
      "inputs": [
        {
          "internalType": "address",
          "name": "owner",
          "type": "address"
        },
        {
          "internalType": "address",
          "name": "operator",
          "type": "address"
        }
      ],
      "name": "isApprovedForAll",
      "outputs": [
        {
          "internalType": "bool",
          "name": "",
          "type": "bool"
        }
      ],
      "stateMutability": "view",
      "type": "function"
    },
    {
      "inputs": [
        {
          "internalType": "address",
          "name": "creator",
          "type": "address"
        },
        {
          "internalType": "string",
          "name": "uri",
          "type": "string"
        }
      ],
      "name": "mintForAuction",
      "outputs": [
        {
          "internalType": "uint256",
          "name": "tokenId",
          "type": "uint256"
        }
      ],
      "stateMutability": "nonpayable",
      "type": "function"
    },
    {
      "inputs": [],
      "name": "name",
      "outputs": [
        {
          "internalType": "string",
          "name": "",
          "type": "string"
        }
      ],
      "stateMutability": "view",
      "type": "function"
    },
    {
      "inputs": [
        {
          "internalType": "address",
          "name": "",
          "type": "address"
        },
        {
          "internalType": "address",
          "name": "",
          "type": "address"
        },
        {
          "internalType": "uint256",
          "name": "",
          "type": "uint256"
        },
        {
          "internalType": "bytes",
          "name": "",
          "type": "bytes"
        }
      ],
      "name": "onERC721Received",
      "outputs": [
        {
          "internalType": "bytes4",
          "name": "",
          "type": "bytes4"
        }
      ],
      "stateMutability": "nonpayable",
      "type": "function"
    },
    {
      "inputs": [],
      "name": "owner",
      "outputs": [
        {
          "internalType": "address",
          "name": "",
          "type": "address"
        }
      ],
      "stateMutability": "view",
      "type": "function"
    },
    {
      "inputs": [
        {
          "internalType": "uint256",
          "name": "tokenId",
          "type": "uint256"
        }
      ],
      "name": "ownerOf",
      "outputs": [
        {
          "internalType": "address",
          "name": "",
          "type": "address"
        }
      ],
      "stateMutability": "view",
      "type": "function"
    },
    {
      "inputs": [],
      "name": "renounceOwnership",
      "outputs": [],
      "stateMutability": "nonpayable",
      "type": "function"
    },
    {
      "inputs": [
        {
          "internalType": "uint256",
          "name": "tokenId",
          "type": "uint256"
        },
        {
          "internalType": "bytes",
          "name": "data",
          "type": "bytes"
        }
      ],
      "name": "returnToPA",
      "outputs": [],
      "stateMutability": "nonpayable",
      "type": "function"
    },
    {
      "inputs": [
        {
          "internalType": "uint256",
          "name": "",
          "type": "uint256"
        },
        {
          "internalType": "uint256",
          "name": "value",
          "type": "uint256"
        }
      ],
      "name": "royaltyInfo",
      "outputs": [
        {
          "internalType": "address",
          "name": "receiver",
          "type": "address"
        },
        {
          "internalType": "uint256",
          "name": "royaltyAmount",
          "type": "uint256"
        }
      ],
      "stateMutability": "view",
      "type": "function"
    },
    {
      "inputs": [
        {
          "internalType": "address",
          "name": "from",
          "type": "address"
        },
        {
          "internalType": "address",
          "name": "to",
          "type": "address"
        },
        {
          "internalType": "uint256",
          "name": "tokenId",
          "type": "uint256"
        }
      ],
      "name": "safeTransferFrom",
      "outputs": [],
      "stateMutability": "nonpayable",
      "type": "function"
    },
    {
      "inputs": [
        {
          "internalType": "address",
          "name": "from",
          "type": "address"
        },
        {
          "internalType": "address",
          "name": "to",
          "type": "address"
        },
        {
          "internalType": "uint256",
          "name": "tokenId",
          "type": "uint256"
        },
        {
          "internalType": "bytes",
          "name": "_data",
          "type": "bytes"
        }
      ],
      "name": "safeTransferFrom",
      "outputs": [],
      "stateMutability": "nonpayable",
      "type": "function"
    },
    {
      "inputs": [
        {
          "internalType": "address",
          "name": "operator",
          "type": "address"
        },
        {
          "internalType": "bool",
          "name": "approved",
          "type": "bool"
        }
      ],
      "name": "setApprovalForAll",
      "outputs": [],
      "stateMutability": "nonpayable",
      "type": "function"
    },
    {
      "inputs": [
        {
          "internalType": "address",
          "name": "recipient",
          "type": "address"
        },
        {
          "internalType": "uint256",
          "name": "value",
          "type": "uint256"
        }
      ],
      "name": "setRoyalties",
      "outputs": [],
      "stateMutability": "nonpayable",
      "type": "function"
    },
    {
      "inputs": [
        {
          "internalType": "bytes4",
          "name": "interfaceId",
          "type": "bytes4"
        }
      ],
      "name": "supportsInterface",
      "outputs": [
        {
          "internalType": "bool",
          "name": "",
          "type": "bool"
        }
      ],
      "stateMutability": "view",
      "type": "function"
    },
    {
      "inputs": [],
      "name": "symbol",
      "outputs": [
        {
          "internalType": "string",
          "name": "",
          "type": "string"
        }
      ],
      "stateMutability": "view",
      "type": "function"
    },
    {
      "inputs": [
        {
          "internalType": "uint256",
          "name": "index",
          "type": "uint256"
        }
      ],
      "name": "tokenByIndex",
      "outputs": [
        {
          "internalType": "uint256",
          "name": "",
          "type": "uint256"
        }
      ],
      "stateMutability": "view",
      "type": "function"
    },
    {
      "inputs": [
        {
          "internalType": "address",
          "name": "owner",
          "type": "address"
        },
        {
          "internalType": "uint256",
          "name": "index",
          "type": "uint256"
        }
      ],
      "name": "tokenOfOwnerByIndex",
      "outputs": [
        {
          "internalType": "uint256",
          "name": "",
          "type": "uint256"
        }
      ],
      "stateMutability": "view",
      "type": "function"
    },
    {
      "inputs": [
        {
          "internalType": "uint256",
          "name": "tokenId",
          "type": "uint256"
        }
      ],
      "name": "tokenURI",
      "outputs": [
        {
          "internalType": "string",
          "name": "",
          "type": "string"
        }
      ],
      "stateMutability": "view",
      "type": "function"
    },
    {
      "inputs": [],
      "name": "totalSupply",
      "outputs": [
        {
          "internalType": "uint256",
          "name": "",
          "type": "uint256"
        }
      ],
      "stateMutability": "view",
      "type": "function"
    },
    {
      "inputs": [
        {
          "internalType": "address",
          "name": "from",
          "type": "address"
        },
        {
          "internalType": "address",
          "name": "to",
          "type": "address"
        },
        {
          "internalType": "uint256",
          "name": "tokenId",
          "type": "uint256"
        }
      ],
      "name": "transferFrom",
      "outputs": [],
      "stateMutability": "nonpayable",
      "type": "function"
    },
    {
      "inputs": [
        {
          "internalType": "address",
          "name": "newOwner",
          "type": "address"
        }
      ],
      "name": "transferOwnership",
      "outputs": [],
      "stateMutability": "nonpayable",
      "type": "function"
    },
    {
      "inputs": [
        {
          "internalType": "uint256",
          "name": "tokenId",
          "type": "uint256"
        },
        {
          "internalType": "bytes",
          "name": "data",
          "type": "bytes"
        }
      ],
      "name": "transferToBuyer",
      "outputs": [],
      "stateMutability": "nonpayable",
      "type": "function"
    }
  ],
  "transactionHash": "0x187d0178b13c644dad95e38fbd9fcb6e4e6fde1a76bbcb1c550d1320f7fdd375",
  "args": [
    "0xf57b2c51ded3a29e6891aba85459d600256cf317"
  ],
  "numDeployments": 1,
  "solcInputHash": "f5d266e755462ad71321f87d4e0005bb",
  "bytecode": "0x60806040523480156200001157600080fd5b5060405162004c2338038062004c2383398181016040528101906200003791906200032d565b6040518060400160405280600781526020017f526573746f7265000000000000000000000000000000000000000000000000008152506040518060400160405280600481526020017f52455354000000000000000000000000000000000000000000000000000000008152508282828160009080519060200190620000be92919062000213565b508060019080519060200190620000d792919062000213565b50505080600c60006101000a81548173ffffffffffffffffffffffffffffffffffffffff021916908373ffffffffffffffffffffffffffffffffffffffff1602179055505050506200013e620001326200014560201b60201c565b6200014d60201b60201c565b50620003c4565b600033905090565b6000600d60009054906101000a900473ffffffffffffffffffffffffffffffffffffffff16905081600d60006101000a81548173ffffffffffffffffffffffffffffffffffffffff021916908373ffffffffffffffffffffffffffffffffffffffff1602179055508173ffffffffffffffffffffffffffffffffffffffff168173ffffffffffffffffffffffffffffffffffffffff167f8be0079c531659141344cd1fd0a4f28419497f9722a3daafe3b4186f6b6457e060405160405180910390a35050565b82805462000221906200038e565b90600052602060002090601f01602090048101928262000245576000855562000291565b82601f106200026057805160ff191683800117855562000291565b8280016001018555821562000291579182015b828111156200029057825182559160200191906001019062000273565b5b509050620002a09190620002a4565b5090565b5b80821115620002bf576000816000905550600101620002a5565b5090565b600080fd5b600073ffffffffffffffffffffffffffffffffffffffff82169050919050565b6000620002f582620002c8565b9050919050565b6200030781620002e8565b81146200031357600080fd5b50565b6000815190506200032781620002fc565b92915050565b600060208284031215620003465762000345620002c3565b5b6000620003568482850162000316565b91505092915050565b7f4e487b7100000000000000000000000000000000000000000000000000000000600052602260045260246000fd5b60006002820490506001821680620003a757607f821691505b60208210811415620003be57620003bd6200035f565b5b50919050565b61484f80620003d46000396000f3fe608060405234801561001057600080fd5b50600436106101c45760003560e01c80634f6ccce7116100f9578063a22cb46511610097578063dd9e533811610071578063dd9e533814610528578063e8a3d48514610544578063e985e9c514610562578063f2fde38b14610592576101c4565b8063a22cb465146104c0578063b88d4fde146104dc578063c87b56dd146104f8576101c4565b8063715018a6116100d3578063715018a61461045e5780638c7ea24b146104685780638da5cb5b1461048457806395d89b41146104a2576101c4565b80634f6ccce7146103ce5780636352211e146103fe57806370a082311461042e576101c4565b8063245d61a6116101665780632f745c59116101405780632f745c591461033657806342842e0e1461036657806342966c68146103825780634cc96fd51461039e576101c4565b8063245d61a6146102cd57806324bce60c146102e95780632a55205a14610305576101c4565b8063095ea7b3116101a2578063095ea7b314610247578063150b7a021461026357806318160ddd1461029357806323b872dd146102b1576101c4565b806301ffc9a7146101c957806306fdde03146101f9578063081812fc14610217575b600080fd5b6101e360048036038101906101de9190612f1c565b6105ae565b6040516101f09190612f64565b60405180910390f35b6102016105c0565b60405161020e9190613018565b60405180910390f35b610231600480360381019061022c9190613070565b610652565b60405161023e91906130de565b60405180910390f35b610261600480360381019061025c9190613125565b6106d7565b005b61027d6004803603810190610278919061329a565b6107ef565b60405161028a919061332c565b60405180910390f35b61029b610803565b6040516102a89190613356565b60405180910390f35b6102cb60048036038101906102c69190613371565b610810565b005b6102e760048036038101906102e291906133c4565b610870565b005b61030360048036038101906102fe9190613125565b61099c565b005b61031f600480360381019061031a9190613420565b610ac2565b60405161032d929190613460565b60405180910390f35b610350600480360381019061034b9190613125565b610b82565b60405161035d9190613356565b60405180910390f35b610380600480360381019061037b9190613371565b610c27565b005b61039c60048036038101906103979190613070565b610c47565b005b6103b860048036038101906103b3919061352a565b610ca3565b6040516103c59190613356565b60405180910390f35b6103e860048036038101906103e39190613070565b610dd6565b6040516103f59190613356565b60405180910390f35b61041860048036038101906104139190613070565b610e47565b60405161042591906130de565b60405180910390f35b61044860048036038101906104439190613586565b610ef9565b6040516104559190613356565b60405180910390f35b610466610fb1565b005b610482600480360381019061047d9190613125565b611039565b005b61048c6110c3565b60405161049991906130de565b60405180910390f35b6104aa6110ed565b6040516104b79190613018565b60405180910390f35b6104da60048036038101906104d591906135df565b61117f565b005b6104f660048036038101906104f1919061329a565b611300565b005b610512600480360381019061050d9190613070565b611362565b60405161051f9190613018565b60405180910390f35b610542600480360381019061053d91906133c4565b611374565b005b61054c611464565b6040516105599190613018565b60405180910390f35b61057c6004803603810190610577919061361f565b6114a1565b6040516105899190612f64565b60405180910390f35b6105ac60048036038101906105a79190613586565b611594565b005b60006105b98261168c565b9050919050565b6060600080546105cf9061368e565b80601f01602080910402602001604051908101604052809291908181526020018280546105fb9061368e565b80156106485780601f1061061d57610100808354040283529160200191610648565b820191906000526020600020905b81548152906001019060200180831161062b57829003601f168201915b5050505050905090565b600061065d82611706565b61069c576040517f08c379a000000000000000000000000000000000000000000000000000000000815260040161069390613732565b60405180910390fd5b6004600083815260200190815260200160002060009054906101000a900473ffffffffffffffffffffffffffffffffffffffff169050919050565b60006106e282610e47565b90508073ffffffffffffffffffffffffffffffffffffffff168373ffffffffffffffffffffffffffffffffffffffff161415610753576040517f08c379a000000000000000000000000000000000000000000000000000000000815260040161074a906137c4565b60405180910390fd5b8073ffffffffffffffffffffffffffffffffffffffff16610772611772565b73ffffffffffffffffffffffffffffffffffffffff1614806107a157506107a08161079b611772565b6114a1565b5b6107e0576040517f08c379a00000000000000000000000000000000000000000000000000000000081526004016107d790613856565b60405180910390fd5b6107ea838361177a565b505050565b600063150b7a0260e01b9050949350505050565b6000600880549050905090565b61082161081b611772565b82611833565b610860576040517f08c379a0000000000000000000000000000000000000000000000000000000008152600401610857906138e8565b60405180910390fd5b61086b838383611911565b505050565b610878611772565b73ffffffffffffffffffffffffffffffffffffffff166108966110c3565b73ffffffffffffffffffffffffffffffffffffffff16146108ec576040517f08c379a00000000000000000000000000000000000000000000000000000000081526004016108e390613954565b60405180910390fd5b61092b30600f600085815260200190815260200160002060009054906101000a900473ffffffffffffffffffffffffffffffffffffffff168484611b6d565b817f2100d6eaadb9162c3c47b8c058cd6340e944f932331f8ae70c91f7cf45929014600f600085815260200190815260200160002060009054906101000a900473ffffffffffffffffffffffffffffffffffffffff16836040516109909291906139c9565b60405180910390a25050565b6109a46110c3565b73ffffffffffffffffffffffffffffffffffffffff163273ffffffffffffffffffffffffffffffffffffffff161480156109f5575060003373ffffffffffffffffffffffffffffffffffffffff163b115b610a34576040517f08c379a0000000000000000000000000000000000000000000000000000000008152600401610a2b90613a6b565b60405180910390fd5b81600f600083815260200190815260200160002060006101000a81548173ffffffffffffffffffffffffffffffffffffffff021916908373ffffffffffffffffffffffffffffffffffffffff160217905550807f9a90b690b283d5b728bf75802cfe38a25c3a9121fa2c9a1a9b98e977f0910b9c83604051610ab691906130de565b60405180910390a25050565b6000806000600b6040518060400160405290816000820160009054906101000a900473ffffffffffffffffffffffffffffffffffffffff1673ffffffffffffffffffffffffffffffffffffffff1673ffffffffffffffffffffffffffffffffffffffff1681526020016000820160149054906101000a900462ffffff1662ffffff1662ffffff1681525050905080600001519250612710816020015162ffffff1685610b6e9190613aba565b610b789190613b43565b9150509250929050565b6000610b8d83610ef9565b8210610bce576040517f08c379a0000000000000000000000000000000000000000000000000000000008152600401610bc590613be6565b60405180910390fd5b600660008473ffffffffffffffffffffffffffffffffffffffff1673ffffffffffffffffffffffffffffffffffffffff168152602001908152602001600020600083815260200190815260200160002054905092915050565b610c4283838360405180602001604052806000815250611300565b505050565b610c58610c52611772565b82611833565b610c97576040517f08c379a0000000000000000000000000000000000000000000000000000000008152600401610c8e90613c78565b60405180910390fd5b610ca081611bc9565b50565b6000610cad611772565b73ffffffffffffffffffffffffffffffffffffffff16610ccb6110c3565b73ffffffffffffffffffffffffffffffffffffffff1614610d21576040517f08c379a0000000000000000000000000000000000000000000000000000000008152600401610d1890613954565b60405180910390fd5b6000610d2d600e611bd5565b9050610d3a843083611be3565b610d7c846000836040518060400160405280601b81526020017f4e657720746f6b656e20726561647920666f722061756374696f6e00000000008152506107ef565b50610d878184611c03565b610d91600e611c77565b7fb971b80483a21abdb157bd662939d519b3b05d96653e672a51da2641297355bd308285604051610dc493929190613c98565b60405180910390a18091505092915050565b6000610de0610803565b8210610e21576040517f08c379a0000000000000000000000000000000000000000000000000000000008152600401610e1890613d48565b60405180910390fd5b60088281548110610e3557610e34613d68565b5b90600052602060002001549050919050565b6000806002600084815260200190815260200160002060009054906101000a900473ffffffffffffffffffffffffffffffffffffffff169050600073ffffffffffffffffffffffffffffffffffffffff168173ffffffffffffffffffffffffffffffffffffffff161415610ef0576040517f08c379a0000000000000000000000000000000000000000000000000000000008152600401610ee790613e09565b60405180910390fd5b80915050919050565b60008073ffffffffffffffffffffffffffffffffffffffff168273ffffffffffffffffffffffffffffffffffffffff161415610f6a576040517f08c379a0000000000000000000000000000000000000000000000000000000008152600401610f6190613e9b565b60405180910390fd5b600360008373ffffffffffffffffffffffffffffffffffffffff1673ffffffffffffffffffffffffffffffffffffffff168152602001908152602001600020549050919050565b610fb9611772565b73ffffffffffffffffffffffffffffffffffffffff16610fd76110c3565b73ffffffffffffffffffffffffffffffffffffffff161461102d576040517f08c379a000000000000000000000000000000000000000000000000000000000815260040161102490613954565b60405180910390fd5b6110376000611c8d565b565b611041611772565b73ffffffffffffffffffffffffffffffffffffffff1661105f6110c3565b73ffffffffffffffffffffffffffffffffffffffff16146110b5576040517f08c379a00000000000000000000000000000000000000000000000000000000081526004016110ac90613954565b60405180910390fd5b6110bf8282611d53565b5050565b6000600d60009054906101000a900473ffffffffffffffffffffffffffffffffffffffff16905090565b6060600180546110fc9061368e565b80601f01602080910402602001604051908101604052809291908181526020018280546111289061368e565b80156111755780601f1061114a57610100808354040283529160200191611175565b820191906000526020600020905b81548152906001019060200180831161115857829003601f168201915b5050505050905090565b611187611772565b73ffffffffffffffffffffffffffffffffffffffff168273ffffffffffffffffffffffffffffffffffffffff1614156111f5576040517f08c379a00000000000000000000000000000000000000000000000000000000081526004016111ec90613f07565b60405180910390fd5b8060056000611202611772565b73ffffffffffffffffffffffffffffffffffffffff1673ffffffffffffffffffffffffffffffffffffffff16815260200190815260200160002060008473ffffffffffffffffffffffffffffffffffffffff1673ffffffffffffffffffffffffffffffffffffffff16815260200190815260200160002060006101000a81548160ff0219169083151502179055508173ffffffffffffffffffffffffffffffffffffffff166112af611772565b73ffffffffffffffffffffffffffffffffffffffff167f17307eab39ab6107e8899845ad3d59bd9653f200f220920489ca2b5937696c31836040516112f49190612f64565b60405180910390a35050565b61131161130b611772565b83611833565b611350576040517f08c379a0000000000000000000000000000000000000000000000000000000008152600401611347906138e8565b60405180910390fd5b61135c84848484611b6d565b50505050565b606061136d82611e3d565b9050919050565b61137c6110c3565b73ffffffffffffffffffffffffffffffffffffffff163273ffffffffffffffffffffffffffffffffffffffff161480156113cd575060003373ffffffffffffffffffffffffffffffffffffffff163b115b61140c576040517f08c379a000000000000000000000000000000000000000000000000000000000815260040161140390613f99565b60405180910390fd5b61141f306114186110c3565b8484611b6d565b817f2100d6eaadb9162c3c47b8c058cd6340e944f932331f8ae70c91f7cf459290146114496110c3565b836040516114589291906139c9565b60405180910390a25050565b60606040518060400160405280601481526020017f68747470733a2f2f617277656176652e6e65742f000000000000000000000000815250905090565b600080600c60009054906101000a900473ffffffffffffffffffffffffffffffffffffffff1690508273ffffffffffffffffffffffffffffffffffffffff168173ffffffffffffffffffffffffffffffffffffffff1663c4552791866040518263ffffffff1660e01b815260040161151991906130de565b602060405180830381865afa158015611536573d6000803e3d6000fd5b505050506040513d601f19601f8201168201806040525081019061155a9190613ff7565b73ffffffffffffffffffffffffffffffffffffffff16141561158057600191505061158e565b61158a8484611f8f565b9150505b92915050565b61159c611772565b73ffffffffffffffffffffffffffffffffffffffff166115ba6110c3565b73ffffffffffffffffffffffffffffffffffffffff1614611610576040517f08c379a000000000000000000000000000000000000000000000000000000000815260040161160790613954565b60405180910390fd5b600073ffffffffffffffffffffffffffffffffffffffff168173ffffffffffffffffffffffffffffffffffffffff161415611680576040517f08c379a000000000000000000000000000000000000000000000000000000000815260040161167790614096565b60405180910390fd5b61168981611c8d565b50565b60007f2a55205a000000000000000000000000000000000000000000000000000000007bffffffffffffffffffffffffffffffffffffffffffffffffffffffff1916827bffffffffffffffffffffffffffffffffffffffffffffffffffffffff191614806116ff57506116fe82612023565b5b9050919050565b60008073ffffffffffffffffffffffffffffffffffffffff166002600084815260200190815260200160002060009054906101000a900473ffffffffffffffffffffffffffffffffffffffff1673ffffffffffffffffffffffffffffffffffffffff1614159050919050565b600033905090565b816004600083815260200190815260200160002060006101000a81548173ffffffffffffffffffffffffffffffffffffffff021916908373ffffffffffffffffffffffffffffffffffffffff160217905550808273ffffffffffffffffffffffffffffffffffffffff166117ed83610e47565b73ffffffffffffffffffffffffffffffffffffffff167f8c5be1e5ebec7d5bd14f71427d1e84f3dd0314c0f7b2291e5b200ac8c7c3b92560405160405180910390a45050565b600061183e82611706565b61187d576040517f08c379a000000000000000000000000000000000000000000000000000000000815260040161187490614128565b60405180910390fd5b600061188883610e47565b90508073ffffffffffffffffffffffffffffffffffffffff168473ffffffffffffffffffffffffffffffffffffffff1614806118f757508373ffffffffffffffffffffffffffffffffffffffff166118df84610652565b73ffffffffffffffffffffffffffffffffffffffff16145b80611908575061190781856114a1565b5b91505092915050565b8273ffffffffffffffffffffffffffffffffffffffff1661193182610e47565b73ffffffffffffffffffffffffffffffffffffffff1614611987576040517f08c379a000000000000000000000000000000000000000000000000000000000815260040161197e906141ba565b60405180910390fd5b600073ffffffffffffffffffffffffffffffffffffffff168273ffffffffffffffffffffffffffffffffffffffff1614156119f7576040517f08c379a00000000000000000000000000000000000000000000000000000000081526004016119ee9061424c565b60405180910390fd5b611a0283838361209d565b611a0d60008261177a565b6001600360008573ffffffffffffffffffffffffffffffffffffffff1673ffffffffffffffffffffffffffffffffffffffff1681526020019081526020016000206000828254611a5d919061426c565b925050819055506001600360008473ffffffffffffffffffffffffffffffffffffffff1673ffffffffffffffffffffffffffffffffffffffff1681526020019081526020016000206000828254611ab491906142a0565b92505081905550816002600083815260200190815260200160002060006101000a81548173ffffffffffffffffffffffffffffffffffffffff021916908373ffffffffffffffffffffffffffffffffffffffff160217905550808273ffffffffffffffffffffffffffffffffffffffff168473ffffffffffffffffffffffffffffffffffffffff167fddf252ad1be2c89b69c2b068fc378daa952ba7f163c4a11628f55a4df523b3ef60405160405180910390a4505050565b611b78848484611911565b611b84848484846120ad565b611bc3576040517f08c379a0000000000000000000000000000000000000000000000000000000008152600401611bba90614368565b60405180910390fd5b50505050565b611bd281612235565b50565b600081600001549050919050565b611bfe83838360405180602001604052806000815250612288565b505050565b611c0c82611706565b611c4b576040517f08c379a0000000000000000000000000000000000000000000000000000000008152600401611c42906143fa565b60405180910390fd5b80600a60008481526020019081526020016000209080519060200190611c72929190612dcd565b505050565b6001816000016000828254019250508190555050565b6000600d60009054906101000a900473ffffffffffffffffffffffffffffffffffffffff16905081600d60006101000a81548173ffffffffffffffffffffffffffffffffffffffff021916908373ffffffffffffffffffffffffffffffffffffffff1602179055508173ffffffffffffffffffffffffffffffffffffffff168173ffffffffffffffffffffffffffffffffffffffff167f8be0079c531659141344cd1fd0a4f28419497f9722a3daafe3b4186f6b6457e060405160405180910390a35050565b612710811115611d98576040517f08c379a0000000000000000000000000000000000000000000000000000000008152600401611d8f90614466565b60405180910390fd5b60405180604001604052808373ffffffffffffffffffffffffffffffffffffffff1681526020018262ffffff16815250600b60008201518160000160006101000a81548173ffffffffffffffffffffffffffffffffffffffff021916908373ffffffffffffffffffffffffffffffffffffffff16021790555060208201518160000160146101000a81548162ffffff021916908362ffffff1602179055509050505050565b6060611e4882611706565b611e87576040517f08c379a0000000000000000000000000000000000000000000000000000000008152600401611e7e906144f8565b60405180910390fd5b6000600a60008481526020019081526020016000208054611ea79061368e565b80601f0160208091040260200160405190810160405280929190818152602001828054611ed39061368e565b8015611f205780601f10611ef557610100808354040283529160200191611f20565b820191906000526020600020905b815481529060010190602001808311611f0357829003601f168201915b505050505090506000611f316122e5565b9050600081511415611f47578192505050611f8a565b600082511115611f7c578082604051602001611f64929190614554565b60405160208183030381529060405292505050611f8a565b611f85846122fc565b925050505b919050565b6000600560008473ffffffffffffffffffffffffffffffffffffffff1673ffffffffffffffffffffffffffffffffffffffff16815260200190815260200160002060008373ffffffffffffffffffffffffffffffffffffffff1673ffffffffffffffffffffffffffffffffffffffff16815260200190815260200160002060009054906101000a900460ff16905092915050565b60007f780e9d63000000000000000000000000000000000000000000000000000000007bffffffffffffffffffffffffffffffffffffffffffffffffffffffff1916827bffffffffffffffffffffffffffffffffffffffffffffffffffffffff191614806120965750612095826123a3565b5b9050919050565b6120a8838383612485565b505050565b60006120ce8473ffffffffffffffffffffffffffffffffffffffff16612599565b15612228578373ffffffffffffffffffffffffffffffffffffffff1663150b7a026120f7611772565b8786866040518563ffffffff1660e01b81526004016121199493929190614578565b6020604051808303816000875af192505050801561215557506040513d601f19601f8201168201806040525081019061215291906145d9565b60015b6121d8573d8060008114612185576040519150601f19603f3d011682016040523d82523d6000602084013e61218a565b606091505b506000815114156121d0576040517f08c379a00000000000000000000000000000000000000000000000000000000081526004016121c790614368565b60405180910390fd5b805181602001fd5b63150b7a0260e01b7bffffffffffffffffffffffffffffffffffffffffffffffffffffffff1916817bffffffffffffffffffffffffffffffffffffffffffffffffffffffff19161491505061222d565b600190505b949350505050565b61223e816125bc565b6000600a6000838152602001908152602001600020805461225e9061368e565b90501461228557600a600082815260200190815260200160002060006122849190612e53565b5b50565b6122938484846126cd565b6122a060008484846120ad565b6122df576040517f08c379a00000000000000000000000000000000000000000000000000000000081526004016122d690614368565b60405180910390fd5b50505050565b606060405180602001604052806000815250905090565b606061230782611706565b612346576040517f08c379a000000000000000000000000000000000000000000000000000000000815260040161233d90614678565b60405180910390fd5b60006123506122e5565b90506000815111612370576040518060200160405280600081525061239b565b8061237a846128f7565b60405160200161238b929190614554565b6040516020818303038152906040525b915050919050565b60007f80ac58cd000000000000000000000000000000000000000000000000000000007bffffffffffffffffffffffffffffffffffffffffffffffffffffffff1916827bffffffffffffffffffffffffffffffffffffffffffffffffffffffff1916148061246e57507f5b5e139f000000000000000000000000000000000000000000000000000000007bffffffffffffffffffffffffffffffffffffffffffffffffffffffff1916827bffffffffffffffffffffffffffffffffffffffffffffffffffffffff1916145b8061247e575061247d82612a58565b5b9050919050565b612490838383612ac2565b600073ffffffffffffffffffffffffffffffffffffffff168373ffffffffffffffffffffffffffffffffffffffff1614156124d3576124ce81612ac7565b612512565b8173ffffffffffffffffffffffffffffffffffffffff168373ffffffffffffffffffffffffffffffffffffffff1614612511576125108382612b10565b5b5b600073ffffffffffffffffffffffffffffffffffffffff168273ffffffffffffffffffffffffffffffffffffffff1614156125555761255081612c7d565b612594565b8273ffffffffffffffffffffffffffffffffffffffff168273ffffffffffffffffffffffffffffffffffffffff1614612593576125928282612d4e565b5b5b505050565b6000808273ffffffffffffffffffffffffffffffffffffffff163b119050919050565b60006125c782610e47565b90506125d58160008461209d565b6125e060008361177a565b6001600360008373ffffffffffffffffffffffffffffffffffffffff1673ffffffffffffffffffffffffffffffffffffffff1681526020019081526020016000206000828254612630919061426c565b925050819055506002600083815260200190815260200160002060006101000a81549073ffffffffffffffffffffffffffffffffffffffff021916905581600073ffffffffffffffffffffffffffffffffffffffff168273ffffffffffffffffffffffffffffffffffffffff167fddf252ad1be2c89b69c2b068fc378daa952ba7f163c4a11628f55a4df523b3ef60405160405180910390a45050565b600073ffffffffffffffffffffffffffffffffffffffff168273ffffffffffffffffffffffffffffffffffffffff16141561273d576040517f08c379a0000000000000000000000000000000000000000000000000000000008152600401612734906146e4565b60405180910390fd5b61274681611706565b15612786576040517f08c379a000000000000000000000000000000000000000000000000000000000815260040161277d90614750565b60405180910390fd5b6127926000838361209d565b6001600360008473ffffffffffffffffffffffffffffffffffffffff1673ffffffffffffffffffffffffffffffffffffffff16815260200190815260200160002060008282546127e291906142a0565b92505081905550816002600083815260200190815260200160002060006101000a81548173ffffffffffffffffffffffffffffffffffffffff021916908373ffffffffffffffffffffffffffffffffffffffff160217905550808373ffffffffffffffffffffffffffffffffffffffff16600073ffffffffffffffffffffffffffffffffffffffff167fddf252ad1be2c89b69c2b068fc378daa952ba7f163c4a11628f55a4df523b3ef60405160405180910390a4808273ffffffffffffffffffffffffffffffffffffffff168473ffffffffffffffffffffffffffffffffffffffff167fddf252ad1be2c89b69c2b068fc378daa952ba7f163c4a11628f55a4df523b3ef60405160405180910390a4505050565b6060600082141561293f576040518060400160405280600181526020017f30000000000000000000000000000000000000000000000000000000000000008152509050612a53565b600082905060005b6000821461297157808061295a90614770565b915050600a8261296a9190613b43565b9150612947565b60008167ffffffffffffffff81111561298d5761298c61316f565b5b6040519080825280601f01601f1916602001820160405280156129bf5781602001600182028036833780820191505090505b5090505b60008514612a4c576001826129d8919061426c565b9150600a856129e791906147b9565b60306129f391906142a0565b60f81b818381518110612a0957612a08613d68565b5b60200101907effffffffffffffffffffffffffffffffffffffffffffffffffffffffffffff1916908160001a905350600a85612a459190613b43565b94506129c3565b8093505050505b919050565b60007f01ffc9a7000000000000000000000000000000000000000000000000000000007bffffffffffffffffffffffffffffffffffffffffffffffffffffffff1916827bffffffffffffffffffffffffffffffffffffffffffffffffffffffff1916149050919050565b505050565b6008805490506009600083815260200190815260200160002081905550600881908060018154018082558091505060019003906000526020600020016000909190919091505550565b60006001612b1d84610ef9565b612b27919061426c565b9050600060076000848152602001908152602001600020549050818114612c0c576000600660008673ffffffffffffffffffffffffffffffffffffffff1673ffffffffffffffffffffffffffffffffffffffff168152602001908152602001600020600084815260200190815260200160002054905080600660008773ffffffffffffffffffffffffffffffffffffffff1673ffffffffffffffffffffffffffffffffffffffff168152602001908152602001600020600084815260200190815260200160002081905550816007600083815260200190815260200160002081905550505b6007600084815260200190815260200160002060009055600660008573ffffffffffffffffffffffffffffffffffffffff1673ffffffffffffffffffffffffffffffffffffffff16815260200190815260200160002060008381526020019081526020016000206000905550505050565b60006001600880549050612c91919061426c565b9050600060096000848152602001908152602001600020549050600060088381548110612cc157612cc0613d68565b5b906000526020600020015490508060088381548110612ce357612ce2613d68565b5b906000526020600020018190555081600960008381526020019081526020016000208190555060096000858152602001908152602001600020600090556008805480612d3257612d316147ea565b5b6001900381819060005260206000200160009055905550505050565b6000612d5983610ef9565b905081600660008573ffffffffffffffffffffffffffffffffffffffff1673ffffffffffffffffffffffffffffffffffffffff168152602001908152602001600020600083815260200190815260200160002081905550806007600084815260200190815260200160002081905550505050565b828054612dd99061368e565b90600052602060002090601f016020900481019282612dfb5760008555612e42565b82601f10612e1457805160ff1916838001178555612e42565b82800160010185558215612e42579182015b82811115612e41578251825591602001919060010190612e26565b5b509050612e4f9190612e93565b5090565b508054612e5f9061368e565b6000825580601f10612e715750612e90565b601f016020900490600052602060002090810190612e8f9190612e93565b5b50565b5b80821115612eac576000816000905550600101612e94565b5090565b6000604051905090565b600080fd5b600080fd5b60007fffffffff0000000000000000000000000000000000000000000000000000000082169050919050565b612ef981612ec4565b8114612f0457600080fd5b50565b600081359050612f1681612ef0565b92915050565b600060208284031215612f3257612f31612eba565b5b6000612f4084828501612f07565b91505092915050565b60008115159050919050565b612f5e81612f49565b82525050565b6000602082019050612f796000830184612f55565b92915050565b600081519050919050565b600082825260208201905092915050565b60005b83811015612fb9578082015181840152602081019050612f9e565b83811115612fc8576000848401525b50505050565b6000601f19601f8301169050919050565b6000612fea82612f7f565b612ff48185612f8a565b9350613004818560208601612f9b565b61300d81612fce565b840191505092915050565b600060208201905081810360008301526130328184612fdf565b905092915050565b6000819050919050565b61304d8161303a565b811461305857600080fd5b50565b60008135905061306a81613044565b92915050565b60006020828403121561308657613085612eba565b5b60006130948482850161305b565b91505092915050565b600073ffffffffffffffffffffffffffffffffffffffff82169050919050565b60006130c88261309d565b9050919050565b6130d8816130bd565b82525050565b60006020820190506130f360008301846130cf565b92915050565b613102816130bd565b811461310d57600080fd5b50565b60008135905061311f816130f9565b92915050565b6000806040838503121561313c5761313b612eba565b5b600061314a85828601613110565b925050602061315b8582860161305b565b9150509250929050565b600080fd5b600080fd5b7f4e487b7100000000000000000000000000000000000000000000000000000000600052604160045260246000fd5b6131a782612fce565b810181811067ffffffffffffffff821117156131c6576131c561316f565b5b80604052505050565b60006131d9612eb0565b90506131e5828261319e565b919050565b600067ffffffffffffffff8211156132055761320461316f565b5b61320e82612fce565b9050602081019050919050565b82818337600083830152505050565b600061323d613238846131ea565b6131cf565b9050828152602081018484840111156132595761325861316a565b5b61326484828561321b565b509392505050565b600082601f83011261328157613280613165565b5b813561329184826020860161322a565b91505092915050565b600080600080608085870312156132b4576132b3612eba565b5b60006132c287828801613110565b94505060206132d387828801613110565b93505060406132e48782880161305b565b925050606085013567ffffffffffffffff81111561330557613304612ebf565b5b6133118782880161326c565b91505092959194509250565b61332681612ec4565b82525050565b6000602082019050613341600083018461331d565b92915050565b6133508161303a565b82525050565b600060208201905061336b6000830184613347565b92915050565b60008060006060848603121561338a57613389612eba565b5b600061339886828701613110565b93505060206133a986828701613110565b92505060406133ba8682870161305b565b9150509250925092565b600080604083850312156133db576133da612eba565b5b60006133e98582860161305b565b925050602083013567ffffffffffffffff81111561340a57613409612ebf565b5b6134168582860161326c565b9150509250929050565b6000806040838503121561343757613436612eba565b5b60006134458582860161305b565b92505060206134568582860161305b565b9150509250929050565b600060408201905061347560008301856130cf565b6134826020830184613347565b9392505050565b600067ffffffffffffffff8211156134a4576134a361316f565b5b6134ad82612fce565b9050602081019050919050565b60006134cd6134c884613489565b6131cf565b9050828152602081018484840111156134e9576134e861316a565b5b6134f484828561321b565b509392505050565b600082601f83011261351157613510613165565b5b81356135218482602086016134ba565b91505092915050565b6000806040838503121561354157613540612eba565b5b600061354f85828601613110565b925050602083013567ffffffffffffffff8111156135705761356f612ebf565b5b61357c858286016134fc565b9150509250929050565b60006020828403121561359c5761359b612eba565b5b60006135aa84828501613110565b91505092915050565b6135bc81612f49565b81146135c757600080fd5b50565b6000813590506135d9816135b3565b92915050565b600080604083850312156135f6576135f5612eba565b5b600061360485828601613110565b9250506020613615858286016135ca565b9150509250929050565b6000806040838503121561363657613635612eba565b5b600061364485828601613110565b925050602061365585828601613110565b9150509250929050565b7f4e487b7100000000000000000000000000000000000000000000000000000000600052602260045260246000fd5b600060028204905060018216806136a657607f821691505b602082108114156136ba576136b961365f565b5b50919050565b7f4552433732313a20617070726f76656420717565727920666f72206e6f6e657860008201527f697374656e7420746f6b656e0000000000000000000000000000000000000000602082015250565b600061371c602c83612f8a565b9150613727826136c0565b604082019050919050565b6000602082019050818103600083015261374b8161370f565b9050919050565b7f4552433732313a20617070726f76616c20746f2063757272656e74206f776e6560008201527f7200000000000000000000000000000000000000000000000000000000000000602082015250565b60006137ae602183612f8a565b91506137b982613752565b604082019050919050565b600060208201905081810360008301526137dd816137a1565b9050919050565b7f4552433732313a20617070726f76652063616c6c6572206973206e6f74206f7760008201527f6e6572206e6f7220617070726f76656420666f7220616c6c0000000000000000602082015250565b6000613840603883612f8a565b915061384b826137e4565b604082019050919050565b6000602082019050818103600083015261386f81613833565b9050919050565b7f4552433732313a207472616e736665722063616c6c6572206973206e6f74206f60008201527f776e6572206e6f7220617070726f766564000000000000000000000000000000602082015250565b60006138d2603183612f8a565b91506138dd82613876565b604082019050919050565b60006020820190508181036000830152613901816138c5565b9050919050565b7f4f776e61626c653a2063616c6c6572206973206e6f7420746865206f776e6572600082015250565b600061393e602083612f8a565b915061394982613908565b602082019050919050565b6000602082019050818103600083015261396d81613931565b9050919050565b600081519050919050565b600082825260208201905092915050565b600061399b82613974565b6139a5818561397f565b93506139b5818560208601612f9b565b6139be81612fce565b840191505092915050565b60006040820190506139de60008301856130cf565b81810360208301526139f08184613990565b90509392505050565b7f526573746f72653a2061756374696f6e6564207069656365206d75737420626560008201527f2066726f7a656e206279206f776e657220766961204a75737469636500000000602082015250565b6000613a55603c83612f8a565b9150613a60826139f9565b604082019050919050565b60006020820190508181036000830152613a8481613a48565b9050919050565b7f4e487b7100000000000000000000000000000000000000000000000000000000600052601160045260246000fd5b6000613ac58261303a565b9150613ad08361303a565b9250817fffffffffffffffffffffffffffffffffffffffffffffffffffffffffffffffff0483118215151615613b0957613b08613a8b565b5b828202905092915050565b7f4e487b7100000000000000000000000000000000000000000000000000000000600052601260045260246000fd5b6000613b4e8261303a565b9150613b598361303a565b925082613b6957613b68613b14565b5b828204905092915050565b7f455243373231456e756d657261626c653a206f776e657220696e646578206f7560008201527f74206f6620626f756e6473000000000000000000000000000000000000000000602082015250565b6000613bd0602b83612f8a565b9150613bdb82613b74565b604082019050919050565b60006020820190508181036000830152613bff81613bc3565b9050919050565b7f4552433732314275726e61626c653a2063616c6c6572206973206e6f74206f7760008201527f6e6572206e6f7220617070726f76656400000000000000000000000000000000602082015250565b6000613c62603083612f8a565b9150613c6d82613c06565b604082019050919050565b60006020820190508181036000830152613c9181613c55565b9050919050565b6000606082019050613cad60008301866130cf565b613cba6020830185613347565b8181036040830152613ccc8184612fdf565b9050949350505050565b7f455243373231456e756d657261626c653a20676c6f62616c20696e646578206f60008201527f7574206f6620626f756e64730000000000000000000000000000000000000000602082015250565b6000613d32602c83612f8a565b9150613d3d82613cd6565b604082019050919050565b60006020820190508181036000830152613d6181613d25565b9050919050565b7f4e487b7100000000000000000000000000000000000000000000000000000000600052603260045260246000fd5b7f4552433732313a206f776e657220717565727920666f72206e6f6e657869737460008201527f656e7420746f6b656e0000000000000000000000000000000000000000000000602082015250565b6000613df3602983612f8a565b9150613dfe82613d97565b604082019050919050565b60006020820190508181036000830152613e2281613de6565b9050919050565b7f4552433732313a2062616c616e636520717565727920666f7220746865207a6560008201527f726f206164647265737300000000000000000000000000000000000000000000602082015250565b6000613e85602a83612f8a565b9150613e9082613e29565b604082019050919050565b60006020820190508181036000830152613eb481613e78565b9050919050565b7f4552433732313a20617070726f766520746f2063616c6c657200000000000000600082015250565b6000613ef1601983612f8a565b9150613efc82613ebb565b602082019050919050565b60006020820190508181036000830152613f2081613ee4565b9050919050565b7f526573746f72653a20756e626f756768742061756374696f6e206d757374206260008201527f6520736574746c6564206279206f776e657220766961204a7573746963650000602082015250565b6000613f83603e83612f8a565b9150613f8e82613f27565b604082019050919050565b60006020820190508181036000830152613fb281613f76565b9050919050565b6000613fc4826130bd565b9050919050565b613fd481613fb9565b8114613fdf57600080fd5b50565b600081519050613ff181613fcb565b92915050565b60006020828403121561400d5761400c612eba565b5b600061401b84828501613fe2565b91505092915050565b7f4f776e61626c653a206e6577206f776e657220697320746865207a65726f206160008201527f6464726573730000000000000000000000000000000000000000000000000000602082015250565b6000614080602683612f8a565b915061408b82614024565b604082019050919050565b600060208201905081810360008301526140af81614073565b9050919050565b7f4552433732313a206f70657261746f7220717565727920666f72206e6f6e657860008201527f697374656e7420746f6b656e0000000000000000000000000000000000000000602082015250565b6000614112602c83612f8a565b915061411d826140b6565b604082019050919050565b6000602082019050818103600083015261414181614105565b9050919050565b7f4552433732313a207472616e73666572206f6620746f6b656e2074686174206960008201527f73206e6f74206f776e0000000000000000000000000000000000000000000000602082015250565b60006141a4602983612f8a565b91506141af82614148565b604082019050919050565b600060208201905081810360008301526141d381614197565b9050919050565b7f4552433732313a207472616e7366657220746f20746865207a65726f2061646460008201527f7265737300000000000000000000000000000000000000000000000000000000602082015250565b6000614236602483612f8a565b9150614241826141da565b604082019050919050565b6000602082019050818103600083015261426581614229565b9050919050565b60006142778261303a565b91506142828361303a565b92508282101561429557614294613a8b565b5b828203905092915050565b60006142ab8261303a565b91506142b68361303a565b9250827fffffffffffffffffffffffffffffffffffffffffffffffffffffffffffffffff038211156142eb576142ea613a8b565b5b828201905092915050565b7f4552433732313a207472616e7366657220746f206e6f6e20455243373231526560008201527f63656976657220696d706c656d656e7465720000000000000000000000000000602082015250565b6000614352603283612f8a565b915061435d826142f6565b604082019050919050565b6000602082019050818103600083015261438181614345565b9050919050565b7f45524337323155524953746f726167653a2055524920736574206f66206e6f6e60008201527f6578697374656e7420746f6b656e000000000000000000000000000000000000602082015250565b60006143e4602e83612f8a565b91506143ef82614388565b604082019050919050565b60006020820190508181036000830152614413816143d7565b9050919050565b7f45524332393831526f79616c746965733a20546f6f2068696768000000000000600082015250565b6000614450601a83612f8a565b915061445b8261441a565b602082019050919050565b6000602082019050818103600083015261447f81614443565b9050919050565b7f45524337323155524953746f726167653a2055524920717565727920666f722060008201527f6e6f6e6578697374656e7420746f6b656e000000000000000000000000000000602082015250565b60006144e2603183612f8a565b91506144ed82614486565b604082019050919050565b60006020820190508181036000830152614511816144d5565b9050919050565b600081905092915050565b600061452e82612f7f565b6145388185614518565b9350614548818560208601612f9b565b80840191505092915050565b60006145608285614523565b915061456c8284614523565b91508190509392505050565b600060808201905061458d60008301876130cf565b61459a60208301866130cf565b6145a76040830185613347565b81810360608301526145b98184613990565b905095945050505050565b6000815190506145d381612ef0565b92915050565b6000602082840312156145ef576145ee612eba565b5b60006145fd848285016145c4565b91505092915050565b7f4552433732314d657461646174613a2055524920717565727920666f72206e6f60008201527f6e6578697374656e7420746f6b656e0000000000000000000000000000000000602082015250565b6000614662602f83612f8a565b915061466d82614606565b604082019050919050565b6000602082019050818103600083015261469181614655565b9050919050565b7f4552433732313a206d696e7420746f20746865207a65726f2061646472657373600082015250565b60006146ce602083612f8a565b91506146d982614698565b602082019050919050565b600060208201905081810360008301526146fd816146c1565b9050919050565b7f4552433732313a20746f6b656e20616c7265616479206d696e74656400000000600082015250565b600061473a601c83612f8a565b915061474582614704565b602082019050919050565b600060208201905081810360008301526147698161472d565b9050919050565b600061477b8261303a565b91507fffffffffffffffffffffffffffffffffffffffffffffffffffffffffffffffff8214156147ae576147ad613a8b565b5b600182019050919050565b60006147c48261303a565b91506147cf8361303a565b9250826147df576147de613b14565b5b828206905092915050565b7f4e487b7100000000000000000000000000000000000000000000000000000000600052603160045260246000fdfea26469706673582212201ec41aeeb4fe5775d17840277f4819c72752d0c8895ff15236b8c92823796cc064736f6c634300080b0033",
  "devdoc": {
    "kind": "dev",
    "methods": {
      "approve(address,uint256)": {
        "details": "See {IERC721-approve}."
      },
      "balanceOf(address)": {
        "details": "See {IERC721-balanceOf}."
      },
      "burn(uint256)": {
        "details": "Burns `tokenId`. See {ERC721-_burn}. Requirements: - The caller must own `tokenId` or be an approved operator."
      },
      "contractURI()": {
        "details": "Link to Contract metadata https://docs.opensea.io/docs/contract-level-metadata TODO: add contract metadata"
      },
      "freeze(address,uint256)": {
        "params": {
          "buyer": "address of winning bid",
          "tokenId": "index of the NFT bought in the auction"
        }
      },
      "getApproved(uint256)": {
        "details": "See {IERC721-getApproved}."
      },
      "mintForAuction(address,string)": {
        "details": "Safely mints a token to an address with a tokenURI.",
        "params": {
          "creator": "this will likely be pr1s0n.art, but may be others in the future. Included here for proper attribution.",
          "uri": "full URI to token metadata"
        }
      },
      "name()": {
        "details": "See {IERC721Metadata-name}."
      },
      "onERC721Received(address,address,uint256,bytes)": {
        "details": "See {IERC721Receiver-onERC721Received}. Always returns `IERC721Receiver.onERC721Received.selector`."
      },
      "owner()": {
        "details": "Returns the address of the current owner."
      },
      "ownerOf(uint256)": {
        "details": "See {IERC721-ownerOf}."
      },
      "renounceOwnership()": {
        "details": "Leaves the contract without owner. It will not be possible to call `onlyOwner` functions anymore. Can only be called by the current owner. NOTE: Renouncing ownership will leave the contract without an owner, thereby removing any functionality that is only available to the owner."
      },
      "returnToPA(uint256,bytes)": {
        "params": {
          "data": "data which reads 'no buyer' to add to token's transactional history for completeness.",
          "tokenId": "index of the NFT bought in the auction"
        }
      },
      "royaltyInfo(uint256,uint256)": {
        "params": {
          "_tokenId": "- the NFT asset queried for royalty information",
          "_value": "- the sale price of the NFT asset specified by _tokenId"
        },
        "returns": {
          "receiver": "- address of who should be sent the royalty payment",
          "royaltyAmount": "- the royalty payment amount for value sale price"
        }
      },
      "safeTransferFrom(address,address,uint256)": {
        "details": "See {IERC721-safeTransferFrom}."
      },
      "safeTransferFrom(address,address,uint256,bytes)": {
        "details": "See {IERC721-safeTransferFrom}."
      },
      "setApprovalForAll(address,bool)": {
        "details": "See {IERC721-setApprovalForAll}."
      },
      "setRoyalties(address,uint256)": {
        "params": {
          "recipient": "the royalties recipient - will always be pr1s0nart, for regulatory reasons.",
          "value": "royalties value (between 0 and 10000)"
        }
      },
      "symbol()": {
        "details": "See {IERC721Metadata-symbol}."
      },
      "tokenByIndex(uint256)": {
        "details": "See {IERC721Enumerable-tokenByIndex}."
      },
      "tokenOfOwnerByIndex(address,uint256)": {
        "details": "See {IERC721Enumerable-tokenOfOwnerByIndex}."
      },
      "totalSupply()": {
        "details": "See {IERC721Enumerable-totalSupply}."
      },
      "transferFrom(address,address,uint256)": {
        "details": "See {IERC721-transferFrom}."
      },
      "transferOwnership(address)": {
        "details": "Transfers ownership of the contract to a new account (`newOwner`). Can only be called by the current owner."
      },
      "transferToBuyer(uint256,bytes)": {
        "params": {
          "data": "URI to receipt metadata that will be added to the NFT TODO: is it an issue that we store the receipt uri in bytes and the metadata uri above as a string?"
        }
      }
    },
    "version": 1
  },
  "userdoc": {
    "kind": "user",
    "methods": {
      "freeze(address,uint256)": {
        "notice": "called when an auction is settled, sets the frozenToken struct."
      },
      "isApprovedForAll(address,address)": {
        "notice": "Override isApprovedForAll to whitelist user's OpenSea proxy accounts to enable gas-less listings."
      },
      "mintForAuction(address,string)": {
        "notice": "this mints the NFT to this contract so that we can ensure only the buyer can receive the first transfer and         prove contractually that no-one else can."
      },
      "returnToPA(uint256,bytes)": {
        "notice": "called when there is no buyer for an auction"
      },
      "setRoyalties(address,uint256)": {
        "notice": "Set the royalties for the whole contract. Our intention is to set it to 10% in perpetuity."
      },
      "transferToBuyer(uint256,bytes)": {
        "notice": "sends 'frozen' NFT to the winning bidder by attaching the receipt. Protected only to ensure no random         data is uploaded on the transfer."
      }
    },
    "version": 1
  },
  "storageLayout": {
    "storage": [
      {
        "astId": 2003,
        "contract": "contracts/Restore.sol:Restore",
        "label": "_name",
        "offset": 0,
        "slot": "0",
        "type": "t_string_storage"
      },
      {
        "astId": 2005,
        "contract": "contracts/Restore.sol:Restore",
        "label": "_symbol",
        "offset": 0,
        "slot": "1",
        "type": "t_string_storage"
      },
      {
        "astId": 2009,
        "contract": "contracts/Restore.sol:Restore",
        "label": "_owners",
        "offset": 0,
        "slot": "2",
        "type": "t_mapping(t_uint256,t_address)"
      },
      {
        "astId": 2013,
        "contract": "contracts/Restore.sol:Restore",
        "label": "_balances",
        "offset": 0,
        "slot": "3",
        "type": "t_mapping(t_address,t_uint256)"
      },
      {
        "astId": 2017,
        "contract": "contracts/Restore.sol:Restore",
        "label": "_tokenApprovals",
        "offset": 0,
        "slot": "4",
        "type": "t_mapping(t_uint256,t_address)"
      },
      {
        "astId": 2023,
        "contract": "contracts/Restore.sol:Restore",
        "label": "_operatorApprovals",
        "offset": 0,
        "slot": "5",
        "type": "t_mapping(t_address,t_mapping(t_address,t_bool))"
      },
      {
        "astId": 2854,
        "contract": "contracts/Restore.sol:Restore",
        "label": "_ownedTokens",
        "offset": 0,
        "slot": "6",
        "type": "t_mapping(t_address,t_mapping(t_uint256,t_uint256))"
      },
      {
        "astId": 2858,
        "contract": "contracts/Restore.sol:Restore",
        "label": "_ownedTokensIndex",
        "offset": 0,
        "slot": "7",
        "type": "t_mapping(t_uint256,t_uint256)"
      },
      {
        "astId": 2861,
        "contract": "contracts/Restore.sol:Restore",
        "label": "_allTokens",
        "offset": 0,
        "slot": "8",
        "type": "t_array(t_uint256)dyn_storage"
      },
      {
        "astId": 2865,
        "contract": "contracts/Restore.sol:Restore",
        "label": "_allTokensIndex",
        "offset": 0,
        "slot": "9",
        "type": "t_mapping(t_uint256,t_uint256)"
      },
      {
        "astId": 3372,
        "contract": "contracts/Restore.sol:Restore",
        "label": "_tokenURIs",
        "offset": 0,
        "slot": "10",
        "type": "t_mapping(t_uint256,t_string_storage)"
      },
      {
        "astId": 1878,
        "contract": "contracts/Restore.sol:Restore",
        "label": "_royalties",
        "offset": 0,
        "slot": "11",
        "type": "t_struct(RoyaltyInfo)1954_storage"
      },
      {
        "astId": 3213,
        "contract": "contracts/Restore.sol:Restore",
        "label": "proxyRegistryAddress",
        "offset": 0,
        "slot": "12",
        "type": "t_address"
      },
      {
        "astId": 7,
        "contract": "contracts/Restore.sol:Restore",
        "label": "_owner",
        "offset": 0,
        "slot": "13",
        "type": "t_address"
      },
      {
        "astId": 1649,
        "contract": "contracts/Restore.sol:Restore",
        "label": "_tokenIdCounter",
        "offset": 0,
        "slot": "14",
        "type": "t_struct(Counter)737_storage"
      },
      {
        "astId": 1653,
        "contract": "contracts/Restore.sol:Restore",
        "label": "buyers",
        "offset": 0,
        "slot": "15",
        "type": "t_mapping(t_uint256,t_address)"
      }
    ],
    "types": {
      "t_address": {
        "encoding": "inplace",
        "label": "address",
        "numberOfBytes": "20"
      },
      "t_array(t_uint256)dyn_storage": {
        "base": "t_uint256",
        "encoding": "dynamic_array",
        "label": "uint256[]",
        "numberOfBytes": "32"
      },
      "t_bool": {
        "encoding": "inplace",
        "label": "bool",
        "numberOfBytes": "1"
      },
      "t_mapping(t_address,t_bool)": {
        "encoding": "mapping",
        "key": "t_address",
        "label": "mapping(address => bool)",
        "numberOfBytes": "32",
        "value": "t_bool"
      },
      "t_mapping(t_address,t_mapping(t_address,t_bool))": {
        "encoding": "mapping",
        "key": "t_address",
        "label": "mapping(address => mapping(address => bool))",
        "numberOfBytes": "32",
        "value": "t_mapping(t_address,t_bool)"
      },
      "t_mapping(t_address,t_mapping(t_uint256,t_uint256))": {
        "encoding": "mapping",
        "key": "t_address",
        "label": "mapping(address => mapping(uint256 => uint256))",
        "numberOfBytes": "32",
        "value": "t_mapping(t_uint256,t_uint256)"
      },
      "t_mapping(t_address,t_uint256)": {
        "encoding": "mapping",
        "key": "t_address",
        "label": "mapping(address => uint256)",
        "numberOfBytes": "32",
        "value": "t_uint256"
      },
      "t_mapping(t_uint256,t_address)": {
        "encoding": "mapping",
        "key": "t_uint256",
        "label": "mapping(uint256 => address)",
        "numberOfBytes": "32",
        "value": "t_address"
      },
      "t_mapping(t_uint256,t_string_storage)": {
        "encoding": "mapping",
        "key": "t_uint256",
        "label": "mapping(uint256 => string)",
        "numberOfBytes": "32",
        "value": "t_string_storage"
      },
      "t_mapping(t_uint256,t_uint256)": {
        "encoding": "mapping",
        "key": "t_uint256",
        "label": "mapping(uint256 => uint256)",
        "numberOfBytes": "32",
        "value": "t_uint256"
      },
      "t_string_storage": {
        "encoding": "bytes",
        "label": "string",
        "numberOfBytes": "32"
      },
      "t_struct(Counter)737_storage": {
        "encoding": "inplace",
        "label": "struct Counters.Counter",
        "members": [
          {
            "astId": 736,
            "contract": "contracts/Restore.sol:Restore",
            "label": "_value",
            "offset": 0,
            "slot": "0",
            "type": "t_uint256"
          }
        ],
        "numberOfBytes": "32"
      },
      "t_struct(RoyaltyInfo)1954_storage": {
        "encoding": "inplace",
        "label": "struct ERC2981Royalties.RoyaltyInfo",
        "members": [
          {
            "astId": 1951,
            "contract": "contracts/Restore.sol:Restore",
            "label": "recipient",
            "offset": 0,
            "slot": "0",
            "type": "t_address"
          },
          {
            "astId": 1953,
            "contract": "contracts/Restore.sol:Restore",
            "label": "amount",
            "offset": 20,
            "slot": "0",
            "type": "t_uint24"
          }
        ],
        "numberOfBytes": "32"
      },
      "t_uint24": {
        "encoding": "inplace",
        "label": "uint24",
        "numberOfBytes": "3"
      },
      "t_uint256": {
        "encoding": "inplace",
        "label": "uint256",
        "numberOfBytes": "32"
      }
    }
  }
}