{
  "address": "0x42EaB57E43b4175a81c77eb93fbEE4591e6Dd2e5",
  "abi": [
    {
      "inputs": [
        {
          "internalType": "contract IRestore",
          "name": "_restore",
          "type": "address"
        },
        {
          "internalType": "address",
          "name": "_weth",
          "type": "address"
        },
        {
          "internalType": "address",
          "name": "_payment",
          "type": "address"
        },
        {
          "internalType": "address",
          "name": "_fund",
          "type": "address"
        },
        {
          "internalType": "uint256",
          "name": "_timeBuffer",
          "type": "uint256"
        },
        {
          "internalType": "uint256",
          "name": "_reservePrice",
          "type": "uint256"
        },
        {
          "internalType": "uint8",
          "name": "_minBidIncrementPercentage",
          "type": "uint8"
        },
        {
          "internalType": "uint256",
          "name": "_duration",
          "type": "uint256"
        }
      ],
      "stateMutability": "nonpayable",
      "type": "constructor"
    },
    {
      "anonymous": false,
      "inputs": [
        {
          "indexed": true,
          "internalType": "uint256",
          "name": "tokenId",
          "type": "uint256"
        },
        {
          "indexed": false,
          "internalType": "address",
          "name": "sender",
          "type": "address"
        },
        {
          "indexed": false,
          "internalType": "uint256",
          "name": "value",
          "type": "uint256"
        },
        {
          "indexed": false,
          "internalType": "bool",
          "name": "extended",
          "type": "bool"
        }
      ],
      "name": "AuctionBid",
      "type": "event"
    },
    {
      "anonymous": false,
      "inputs": [
        {
          "indexed": true,
          "internalType": "uint256",
          "name": "tokenId",
          "type": "uint256"
        },
        {
          "indexed": false,
          "internalType": "uint8[3]",
          "name": "saleSplit",
          "type": "uint8[3]"
        },
        {
          "indexed": false,
          "internalType": "address",
          "name": "creator",
          "type": "address"
        },
        {
          "indexed": false,
          "internalType": "uint256",
          "name": "startTime",
          "type": "uint256"
        },
        {
          "indexed": false,
          "internalType": "uint256",
          "name": "endTime",
          "type": "uint256"
        }
      ],
      "name": "AuctionCreated",
      "type": "event"
    },
    {
      "anonymous": false,
      "inputs": [
        {
          "indexed": true,
          "internalType": "uint256",
          "name": "tokenId",
          "type": "uint256"
        },
        {
          "indexed": false,
          "internalType": "uint256",
          "name": "endTime",
          "type": "uint256"
        }
      ],
      "name": "AuctionExtended",
      "type": "event"
    },
    {
      "anonymous": false,
      "inputs": [
        {
          "indexed": false,
          "internalType": "uint256",
          "name": "minBidIncrementPercentage",
          "type": "uint256"
        }
      ],
      "name": "AuctionMinBidIncrementPercentageUpdated",
      "type": "event"
    },
    {
      "anonymous": false,
      "inputs": [
        {
          "indexed": false,
          "internalType": "uint256",
          "name": "reservePrice",
          "type": "uint256"
        }
      ],
      "name": "AuctionReservePriceUpdated",
      "type": "event"
    },
    {
      "anonymous": false,
      "inputs": [
        {
          "indexed": true,
          "internalType": "uint256",
          "name": "tokenId",
          "type": "uint256"
        },
        {
          "indexed": false,
          "internalType": "address",
          "name": "winner",
          "type": "address"
        },
        {
          "indexed": false,
          "internalType": "uint256",
          "name": "amount",
          "type": "uint256"
        }
      ],
      "name": "AuctionSettled",
      "type": "event"
    },
    {
      "anonymous": false,
      "inputs": [
        {
          "indexed": false,
          "internalType": "uint256",
          "name": "timeBuffer",
          "type": "uint256"
        }
      ],
      "name": "AuctionTimeBufferUpdated",
      "type": "event"
    },
    {
      "anonymous": false,
      "inputs": [
        {
          "indexed": false,
          "internalType": "address",
          "name": "newFund",
          "type": "address"
        }
      ],
      "name": "FundAddressUpdated",
      "type": "event"
    },
    {
      "anonymous": false,
      "inputs": [
        {
          "indexed": true,
          "internalType": "uint256",
          "name": "tokenId",
          "type": "uint256"
        }
      ],
      "name": "NoBuyer",
      "type": "event"
    },
    {
      "anonymous": false,
      "inputs": [
        {
          "indexed": true,
          "internalType": "address",
          "name": "previousOwner",
          "type": "address"
        },
        {
          "indexed": true,
          "internalType": "address",
          "name": "newOwner",
          "type": "address"
        }
      ],
      "name": "OwnershipTransferred",
      "type": "event"
    },
    {
      "anonymous": false,
      "inputs": [
        {
          "indexed": false,
          "internalType": "address",
          "name": "newPayment",
          "type": "address"
        }
      ],
      "name": "PaymentAddressUpdated",
      "type": "event"
    },
    {
      "inputs": [],
      "name": "auction",
      "outputs": [
        {
          "internalType": "address",
          "name": "creator",
          "type": "address"
        },
        {
          "internalType": "uint256",
          "name": "tokenId",
          "type": "uint256"
        },
        {
          "internalType": "uint256",
          "name": "amount",
          "type": "uint256"
        },
        {
          "internalType": "uint256",
          "name": "startTime",
          "type": "uint256"
        },
        {
          "internalType": "uint256",
          "name": "endTime",
          "type": "uint256"
        },
        {
          "internalType": "address payable",
          "name": "bidder",
          "type": "address"
        },
        {
          "internalType": "bool",
          "name": "settled",
          "type": "bool"
        }
      ],
      "stateMutability": "view",
      "type": "function"
    },
    {
      "inputs": [
        {
          "internalType": "address",
          "name": "creator",
          "type": "address"
        },
        {
          "internalType": "uint256",
          "name": "tokenId",
          "type": "uint256"
        },
        {
          "internalType": "uint8[3]",
          "name": "split",
          "type": "uint8[3]"
        }
      ],
      "name": "createAuction",
      "outputs": [],
      "stateMutability": "nonpayable",
      "type": "function"
    },
    {
      "inputs": [
        {
          "internalType": "uint256",
          "name": "tokenId",
          "type": "uint256"
        }
      ],
      "name": "createBid",
      "outputs": [],
      "stateMutability": "payable",
      "type": "function"
    },
    {
      "inputs": [],
      "name": "duration",
      "outputs": [
        {
          "internalType": "uint256",
          "name": "",
          "type": "uint256"
        }
      ],
      "stateMutability": "view",
      "type": "function"
    },
    {
      "inputs": [],
      "name": "minBidIncrementPercentage",
      "outputs": [
        {
          "internalType": "uint8",
          "name": "",
          "type": "uint8"
        }
      ],
      "stateMutability": "view",
      "type": "function"
    },
    {
      "inputs": [],
      "name": "owner",
      "outputs": [
        {
          "internalType": "address",
          "name": "",
          "type": "address"
        }
      ],
      "stateMutability": "view",
      "type": "function"
    },
    {
      "inputs": [],
      "name": "renounceOwnership",
      "outputs": [],
      "stateMutability": "nonpayable",
      "type": "function"
    },
    {
      "inputs": [],
      "name": "reservePrice",
      "outputs": [
        {
          "internalType": "uint256",
          "name": "",
          "type": "uint256"
        }
      ],
      "stateMutability": "view",
      "type": "function"
    },
    {
      "inputs": [],
      "name": "restore",
      "outputs": [
        {
          "internalType": "contract IRestore",
          "name": "",
          "type": "address"
        }
      ],
      "stateMutability": "view",
      "type": "function"
    },
    {
      "inputs": [
        {
          "internalType": "address",
          "name": "_newFund",
          "type": "address"
        }
      ],
      "name": "setFundAddress",
      "outputs": [],
      "stateMutability": "nonpayable",
      "type": "function"
    },
    {
      "inputs": [
        {
          "internalType": "uint8",
          "name": "_minBidIncrementPercentage",
          "type": "uint8"
        }
      ],
      "name": "setMinBidIncrementPercentage",
      "outputs": [],
      "stateMutability": "nonpayable",
      "type": "function"
    },
    {
      "inputs": [
        {
          "internalType": "address",
          "name": "_newPayment",
          "type": "address"
        }
      ],
      "name": "setPaymentAddress",
      "outputs": [],
      "stateMutability": "nonpayable",
      "type": "function"
    },
    {
      "inputs": [
        {
          "internalType": "uint256",
          "name": "_reservePrice",
          "type": "uint256"
        }
      ],
      "name": "setReservePrice",
      "outputs": [],
      "stateMutability": "nonpayable",
      "type": "function"
    },
    {
      "inputs": [
        {
          "internalType": "uint256",
          "name": "_timeBuffer",
          "type": "uint256"
        }
      ],
      "name": "setTimeBuffer",
      "outputs": [],
      "stateMutability": "nonpayable",
      "type": "function"
    },
    {
      "inputs": [],
      "name": "settleAuction",
      "outputs": [],
      "stateMutability": "nonpayable",
      "type": "function"
    },
    {
      "inputs": [],
      "name": "timeBuffer",
      "outputs": [
        {
          "internalType": "uint256",
          "name": "",
          "type": "uint256"
        }
      ],
      "stateMutability": "view",
      "type": "function"
    },
    {
      "inputs": [
        {
          "internalType": "address",
          "name": "newOwner",
          "type": "address"
        }
      ],
      "name": "transferOwnership",
      "outputs": [],
      "stateMutability": "nonpayable",
      "type": "function"
    },
    {
      "inputs": [],
      "name": "weth",
      "outputs": [
        {
          "internalType": "address",
          "name": "",
          "type": "address"
        }
      ],
      "stateMutability": "view",
      "type": "function"
    }
  ],
  "transactionHash": "0x2f74ba9933f741a3761e37a915755565b130800cf0e9070343190aaeb5985f1c",
  "args": [
    "0xB4aF09df21389743bddD77404895dAAccdc4e58B",
    "0xc2097d0C6Cd270BE1016A78a4fb838cf2C1262ee",
    "0x911753aB62fFd27B78C6db07685DBf0089634eb4",
    "0x5f3371793285920351344a1EaaAA48d45e600652",
    60,
    "100000000000000000",
    5,
    600
  ],
  "numDeployments": 3,
  "solcInputHash": "06f190fdd9b6513f2cd06a1c880a2718",
  "bytecode": "0x60806040523480156200001157600080fd5b5060405162003426380380620034268339818101604052810190620000379190620002cb565b60016000819055506200005f62000053620001a160201b60201c565b620001a960201b60201c565b87600260006101000a81548173ffffffffffffffffffffffffffffffffffffffff021916908373ffffffffffffffffffffffffffffffffffffffff16021790555086600360006101000a81548173ffffffffffffffffffffffffffffffffffffffff021916908373ffffffffffffffffffffffffffffffffffffffff16021790555085600f60006101000a81548173ffffffffffffffffffffffffffffffffffffffff021916908373ffffffffffffffffffffffffffffffffffffffff16021790555084601060006101000a81548173ffffffffffffffffffffffffffffffffffffffff021916908373ffffffffffffffffffffffffffffffffffffffff160217905550836004819055508260058190555081600660006101000a81548160ff021916908360ff16021790555080600781905550505050505050505062000460565b600033905090565b6000600160009054906101000a900473ffffffffffffffffffffffffffffffffffffffff16905081600160006101000a81548173ffffffffffffffffffffffffffffffffffffffff021916908373ffffffffffffffffffffffffffffffffffffffff1602179055508173ffffffffffffffffffffffffffffffffffffffff168173ffffffffffffffffffffffffffffffffffffffff167f8be0079c531659141344cd1fd0a4f28419497f9722a3daafe3b4186f6b6457e060405160405180910390a35050565b6000815190506200028081620003f8565b92915050565b600081519050620002978162000412565b92915050565b600081519050620002ae816200042c565b92915050565b600081519050620002c58162000446565b92915050565b600080600080600080600080610100898b031215620002ef57620002ee620003f3565b5b6000620002ff8b828c0162000286565b9850506020620003128b828c016200026f565b9750506040620003258b828c016200026f565b9650506060620003388b828c016200026f565b95505060806200034b8b828c016200029d565b94505060a06200035e8b828c016200029d565b93505060c0620003718b828c01620002b4565b92505060e0620003848b828c016200029d565b9150509295985092959890939650565b6000620003a182620003bc565b9050919050565b6000620003b58262000394565b9050919050565b600073ffffffffffffffffffffffffffffffffffffffff82169050919050565b6000819050919050565b600060ff82169050919050565b600080fd5b620004038162000394565b81146200040f57600080fd5b50565b6200041d81620003a8565b81146200042957600080fd5b50565b6200043781620003dc565b81146200044357600080fd5b50565b6200045181620003e6565b81146200045d57600080fd5b50565b612fb680620004706000396000f3fe6080604052600436106101095760003560e01c806385dc300411610095578063b296024d11610064578063b296024d14610302578063ce9c7c0d1461032d578063db2e1eed14610356578063ec91f2a414610381578063f2fde38b146103ac57610109565b806385dc30041461026e5780638da5cb5b14610297578063a4d0a17e146102c2578063a8a9fe15146102d957610109565b80635e1e1004116100dc5780635e1e1004146101b8578063659dd2b4146101e15780637120334b146101fd578063715018a6146102265780637d9f6db51461023d57610109565b80630fb5a6b41461010e5780632fda332e1461013957806336ebdb38146101645780633fc8cef31461018d575b600080fd5b34801561011a57600080fd5b506101236103d5565b604051610130919061277f565b60405180910390f35b34801561014557600080fd5b5061014e6103db565b60405161015b9190612582565b60405180910390f35b34801561017057600080fd5b5061018b6004803603810190610186919061209c565b610401565b005b34801561019957600080fd5b506101a26104d2565b6040516101af919061242a565b60405180910390f35b3480156101c457600080fd5b506101df60048036038101906101da9190611f95565b6104f8565b005b6101fb60048036038101906101f6919061206f565b6105ef565b005b34801561020957600080fd5b50610224600480360381019061021f919061206f565b610a66565b005b34801561023257600080fd5b5061023b610b23565b005b34801561024957600080fd5b50610252610bab565b60405161026597969594939291906124ce565b60405180910390f35b34801561027a57600080fd5b5061029560048036038101906102909190611f95565b610c28565b005b3480156102a357600080fd5b506102ac610d1f565b6040516102b9919061242a565b60405180910390f35b3480156102ce57600080fd5b506102d7610d49565b005b3480156102e557600080fd5b5061030060048036038101906102fb9190611fef565b610da9565b005b34801561030e57600080fd5b506103176111ce565b60405161032491906127b5565b60405180910390f35b34801561033957600080fd5b50610354600480360381019061034f919061206f565b6111e1565b005b34801561036257600080fd5b5061036b61129e565b604051610378919061277f565b60405180910390f35b34801561038d57600080fd5b506103966112a4565b6040516103a3919061277f565b60405180910390f35b3480156103b857600080fd5b506103d360048036038101906103ce9190611f95565b6112aa565b005b60075481565b600260009054906101000a900473ffffffffffffffffffffffffffffffffffffffff1681565b6104096113a2565b73ffffffffffffffffffffffffffffffffffffffff16610427610d1f565b73ffffffffffffffffffffffffffffffffffffffff161461047d576040517f08c379a00000000000000000000000000000000000000000000000000000000081526004016104749061267f565b60405180910390fd5b80600660006101000a81548160ff021916908360ff1602179055507fec5ccd96cc77b6219e9d44143df916af68fc169339ea7de5008ff15eae13450d816040516104c7919061279a565b60405180910390a150565b600360009054906101000a900473ffffffffffffffffffffffffffffffffffffffff1681565b6105006113a2565b73ffffffffffffffffffffffffffffffffffffffff1661051e610d1f565b73ffffffffffffffffffffffffffffffffffffffff1614610574576040517f08c379a000000000000000000000000000000000000000000000000000000000815260040161056b9061267f565b60405180910390fd5b80600f60006101000a81548173ffffffffffffffffffffffffffffffffffffffff021916908373ffffffffffffffffffffffffffffffffffffffff1602179055507f38391451438b7e6e244427ebf168c1c4955ab37f81307aa329e3ce3ba24c2866816040516105e4919061242a565b60405180910390a150565b60026000541415610635576040517f08c379a000000000000000000000000000000000000000000000000000000000815260040161062c9061275f565b60405180910390fd5b60026000819055506000600860405180610100016040529081600082016003806020026040519081016040528092919082600380156106af576020028201916000905b82829054906101000a900460ff1660ff16815260200190600101906020826000010492830192600103820291508084116106785790505b505050505081526020016001820160009054906101000a900473ffffffffffffffffffffffffffffffffffffffff1673ffffffffffffffffffffffffffffffffffffffff1673ffffffffffffffffffffffffffffffffffffffff168152602001600282015481526020016003820154815260200160048201548152602001600582015481526020016006820160009054906101000a900473ffffffffffffffffffffffffffffffffffffffff1673ffffffffffffffffffffffffffffffffffffffff1673ffffffffffffffffffffffffffffffffffffffff1681526020016006820160149054906101000a900460ff1615151515815250509050818160400151146107ef576040517f08c379a00000000000000000000000000000000000000000000000000000000081526004016107e69061265f565b60405180910390fd5b8060a001514210610835576040517f08c379a000000000000000000000000000000000000000000000000000000000815260040161082c9061269f565b60405180910390fd5b60055434101561087a576040517f08c379a0000000000000000000000000000000000000000000000000000000008152600401610871906125bf565b60405180910390fd5b6064600660009054906101000a900460ff1660ff16826060015161089e9190612901565b6108a891906128d0565b81606001516108b7919061287a565b3410156108f9576040517f08c379a00000000000000000000000000000000000000000000000000000000081526004016108f0906125ff565b60405180910390fd5b60008160c0015190503460086003018190555033600860060160006101000a81548173ffffffffffffffffffffffffffffffffffffffff021916908373ffffffffffffffffffffffffffffffffffffffff1602179055506000600454428460a00151610965919061295b565b109050801561098e576004544261097c919061287a565b8360a001818152506008600501819055505b82604001517f1159164c56f277e6fc99c11731bd380e0347deb969b75523398734c252706ea33334846040516109c693929190612497565b60405180910390a28015610a155782604001517f6e912a3a9105bdd2af817ba5adc14e6c127c1035b5b648faa29ca0d58ab8ff4e8460a00151604051610a0c919061277f565b60405180910390a25b600073ffffffffffffffffffffffffffffffffffffffff168273ffffffffffffffffffffffffffffffffffffffff1614610a5857610a578284606001516113aa565b5b505050600160008190555050565b610a6e6113a2565b73ffffffffffffffffffffffffffffffffffffffff16610a8c610d1f565b73ffffffffffffffffffffffffffffffffffffffff1614610ae2576040517f08c379a0000000000000000000000000000000000000000000000000000000008152600401610ad99061267f565b60405180910390fd5b806004819055507f1b55d9f7002bda4490f467e326f22a4a847629c0f2d1ed421607d318d25b410d81604051610b18919061277f565b60405180910390a150565b610b2b6113a2565b73ffffffffffffffffffffffffffffffffffffffff16610b49610d1f565b73ffffffffffffffffffffffffffffffffffffffff1614610b9f576040517f08c379a0000000000000000000000000000000000000000000000000000000008152600401610b969061267f565b60405180910390fd5b610ba9600061148d565b565b60088060010160009054906101000a900473ffffffffffffffffffffffffffffffffffffffff16908060020154908060030154908060040154908060050154908060060160009054906101000a900473ffffffffffffffffffffffffffffffffffffffff16908060060160149054906101000a900460ff16905087565b610c306113a2565b73ffffffffffffffffffffffffffffffffffffffff16610c4e610d1f565b73ffffffffffffffffffffffffffffffffffffffff1614610ca4576040517f08c379a0000000000000000000000000000000000000000000000000000000008152600401610c9b9061267f565b60405180910390fd5b80601060006101000a81548173ffffffffffffffffffffffffffffffffffffffff021916908373ffffffffffffffffffffffffffffffffffffffff1602179055507f6bed6474711943f2d27e5ea867d18cf848a8dab37cc30943bc20c38b12494ab481604051610d14919061242a565b60405180910390a150565b6000600160009054906101000a900473ffffffffffffffffffffffffffffffffffffffff16905090565b60026000541415610d8f576040517f08c379a0000000000000000000000000000000000000000000000000000000008152600401610d869061275f565b60405180910390fd5b6002600081905550610d9f611553565b6001600081905550565b610db16113a2565b73ffffffffffffffffffffffffffffffffffffffff16610dcf610d1f565b73ffffffffffffffffffffffffffffffffffffffff1614610e25576040517f08c379a0000000000000000000000000000000000000000000000000000000008152600401610e1c9061267f565b60405180910390fd5b600260009054906101000a900473ffffffffffffffffffffffffffffffffffffffff1673ffffffffffffffffffffffffffffffffffffffff1663d793a179836040518263ffffffff1660e01b8152600401610e80919061277f565b602060405180830381600087803b158015610e9a57600080fd5b505af1158015610eae573d6000803e3d6000fd5b505050506040513d601f19601f82011682018060405250810190610ed29190612042565b8015610fd55750600260009054906101000a900473ffffffffffffffffffffffffffffffffffffffff1673ffffffffffffffffffffffffffffffffffffffff16636352211e836040518263ffffffff1660e01b8152600401610f34919061277f565b60206040518083038186803b158015610f4c57600080fd5b505afa158015610f60573d6000803e3d6000fd5b505050506040513d601f19601f82011682018060405250810190610f849190611fc2565b73ffffffffffffffffffffffffffffffffffffffff16600260009054906101000a900473ffffffffffffffffffffffffffffffffffffffff1673ffffffffffffffffffffffffffffffffffffffff16145b611014576040517f08c379a000000000000000000000000000000000000000000000000000000000815260040161100b9061263f565b60405180910390fd5b6000429050600060075482611029919061287a565b90506040518061010001604052808481526020018673ffffffffffffffffffffffffffffffffffffffff16815260200185815260200160008152602001838152602001828152602001600073ffffffffffffffffffffffffffffffffffffffff1681526020016000151581525060086000820151816000019060036110af929190611de3565b5060208201518160010160006101000a81548173ffffffffffffffffffffffffffffffffffffffff021916908373ffffffffffffffffffffffffffffffffffffffff16021790555060408201518160020155606082015181600301556080820151816004015560a0820151816005015560c08201518160060160006101000a81548173ffffffffffffffffffffffffffffffffffffffff021916908373ffffffffffffffffffffffffffffffffffffffff16021790555060e08201518160060160146101000a81548160ff021916908315150217905550905050837f18c01be17ac75e313c54e5ef9c77f189ac10cb7960575650a1c499ed83423316848785856040516111bf949392919061253d565b60405180910390a25050505050565b600660009054906101000a900460ff1681565b6111e96113a2565b73ffffffffffffffffffffffffffffffffffffffff16611207610d1f565b73ffffffffffffffffffffffffffffffffffffffff161461125d576040517f08c379a00000000000000000000000000000000000000000000000000000000081526004016112549061267f565b60405180910390fd5b806005819055507f6ab2e127d7fdf53b8f304e59d3aab5bfe97979f52a85479691a6fab27a28a6b281604051611293919061277f565b60405180910390a150565b60055481565b60045481565b6112b26113a2565b73ffffffffffffffffffffffffffffffffffffffff166112d0610d1f565b73ffffffffffffffffffffffffffffffffffffffff1614611326576040517f08c379a000000000000000000000000000000000000000000000000000000000815260040161131d9061267f565b60405180910390fd5b600073ffffffffffffffffffffffffffffffffffffffff168173ffffffffffffffffffffffffffffffffffffffff161415611396576040517f08c379a000000000000000000000000000000000000000000000000000000000815260040161138d906125df565b60405180910390fd5b61139f8161148d565b50565b600033905090565b6113b48282611a15565b61148957600360009054906101000a900473ffffffffffffffffffffffffffffffffffffffff1673ffffffffffffffffffffffffffffffffffffffff1663d0e30db0826040518263ffffffff1660e01b81526004016000604051808303818588803b15801561142257600080fd5b505af1158015611436573d6000803e3d6000fd5b50505050506114888282600360009054906101000a900473ffffffffffffffffffffffffffffffffffffffff1673ffffffffffffffffffffffffffffffffffffffff16611ae09092919063ffffffff16565b5b5050565b6000600160009054906101000a900473ffffffffffffffffffffffffffffffffffffffff16905081600160006101000a81548173ffffffffffffffffffffffffffffffffffffffff021916908373ffffffffffffffffffffffffffffffffffffffff1602179055508173ffffffffffffffffffffffffffffffffffffffff168173ffffffffffffffffffffffffffffffffffffffff167f8be0079c531659141344cd1fd0a4f28419497f9722a3daafe3b4186f6b6457e060405160405180910390a35050565b6000600860405180610100016040529081600082016003806020026040519081016040528092919082600380156115c5576020028201916000905b82829054906101000a900460ff1660ff168152602001906001019060208260000104928301926001038202915080841161158e5790505b505050505081526020016001820160009054906101000a900473ffffffffffffffffffffffffffffffffffffffff1673ffffffffffffffffffffffffffffffffffffffff1673ffffffffffffffffffffffffffffffffffffffff168152602001600282015481526020016003820154815260200160048201548152602001600582015481526020016006820160009054906101000a900473ffffffffffffffffffffffffffffffffffffffff1673ffffffffffffffffffffffffffffffffffffffff1673ffffffffffffffffffffffffffffffffffffffff1681526020016006820160149054906101000a900460ff1615151515815250509050600081608001511415611707576040517f08c379a00000000000000000000000000000000000000000000000000000000081526004016116fe9061271f565b60405180910390fd5b8060e001511561174c576040517f08c379a0000000000000000000000000000000000000000000000000000000008152600401611743906126bf565b60405180910390fd5b8060a00151421015611793576040517f08c379a000000000000000000000000000000000000000000000000000000000815260040161178a906126df565b60405180910390fd5b6001600860060160146101000a81548160ff02191690831515021790555080604001517fc9f72b276a388619c6d185d146697036241880c36654b1a3ffdad07c24038d998260c0015183606001516040516117ef929190612445565b60405180910390a2600073ffffffffffffffffffffffffffffffffffffffff168160c0015173ffffffffffffffffffffffffffffffffffffffff1614156118665780604001517f38f0a524342c45c820fde6f1f918015581bef487b9b31b3959e8a7d749bfa93060405160405180910390a26118fe565b600260009054906101000a900473ffffffffffffffffffffffffffffffffffffffff1673ffffffffffffffffffffffffffffffffffffffff166324bce60c8260c0015183604001516040518363ffffffff1660e01b81526004016118cb929190612445565b600060405180830381600087803b1580156118e557600080fd5b505af11580156118f9573d6000803e3d6000fd5b505050505b600081606001511115611a1257600060648260600151836000015160006003811061192c5761192b612b12565b5b602002015160ff1661193e9190612901565b61194891906128d0565b9050611976600f60009054906101000a900473ffffffffffffffffffffffffffffffffffffffff16826113aa565b600060648360600151846000015160016003811061199757611996612b12565b5b602002015160ff166119a99190612901565b6119b391906128d0565b90506119e1601060009054906101000a900473ffffffffffffffffffffffffffffffffffffffff16826113aa565b6000818385606001516119f4919061295b565b6119fe919061295b565b9050611a0e8460200151826113aa565b5050505b50565b6000808373ffffffffffffffffffffffffffffffffffffffff168361753090600067ffffffffffffffff811115611a4f57611a4e612b41565b5b6040519080825280601f01601f191660200182016040528015611a815781602001600182028036833780820191505090505b50604051611a8f9190612413565b600060405180830381858888f193505050503d8060008114611acd576040519150601f19603f3d011682016040523d82523d6000602084013e611ad2565b606091505b505090508091505092915050565b611b618363a9059cbb60e01b8484604051602401611aff92919061246e565b604051602081830303815290604052907bffffffffffffffffffffffffffffffffffffffffffffffffffffffff19166020820180517bffffffffffffffffffffffffffffffffffffffffffffffffffffffff8381831617835250505050611b66565b505050565b6000611bc8826040518060400160405280602081526020017f5361666545524332303a206c6f772d6c6576656c2063616c6c206661696c65648152508573ffffffffffffffffffffffffffffffffffffffff16611c2d9092919063ffffffff16565b9050600081511115611c285780806020019051810190611be89190612042565b611c27576040517f08c379a0000000000000000000000000000000000000000000000000000000008152600401611c1e9061273f565b60405180910390fd5b5b505050565b6060611c3c8484600085611c45565b90509392505050565b606082471015611c8a576040517f08c379a0000000000000000000000000000000000000000000000000000000008152600401611c819061261f565b60405180910390fd5b611c9385611d59565b611cd2576040517f08c379a0000000000000000000000000000000000000000000000000000000008152600401611cc9906126ff565b60405180910390fd5b6000808673ffffffffffffffffffffffffffffffffffffffff168587604051611cfb9190612413565b60006040518083038185875af1925050503d8060008114611d38576040519150601f19603f3d011682016040523d82523d6000602084013e611d3d565b606091505b5091509150611d4d828286611d7c565b92505050949350505050565b6000808273ffffffffffffffffffffffffffffffffffffffff163b119050919050565b60608315611d8c57829050611ddc565b600083511115611d9f5782518084602001fd5b816040517f08c379a0000000000000000000000000000000000000000000000000000000008152600401611dd3919061259d565b60405180910390fd5b9392505050565b826003601f01602090048101928215611e6c5791602002820160005b83821115611e3d57835183826101000a81548160ff021916908360ff1602179055509260200192600101602081600001049283019260010302611dff565b8015611e6a5782816101000a81549060ff0219169055600101602081600001049283019260010302611e3d565b505b509050611e799190611e7d565b5090565b5b80821115611e96576000816000905550600101611e7e565b5090565b6000611ead611ea8846127f5565b6127d0565b90508082856020860282011115611ec757611ec6612b75565b5b60005b85811015611ef75781611edd8882611f80565b845260208401935060208301925050600181019050611eca565b5050509392505050565b600081359050611f1081612f24565b92915050565b600081519050611f2581612f24565b92915050565b600082601f830112611f4057611f3f612b70565b5b6003611f4d848285611e9a565b91505092915050565b600081519050611f6581612f3b565b92915050565b600081359050611f7a81612f52565b92915050565b600081359050611f8f81612f69565b92915050565b600060208284031215611fab57611faa612b7a565b5b6000611fb984828501611f01565b91505092915050565b600060208284031215611fd857611fd7612b7a565b5b6000611fe684828501611f16565b91505092915050565b600080600060a0848603121561200857612007612b7a565b5b600061201686828701611f01565b935050602061202786828701611f6b565b925050604061203886828701611f2b565b9150509250925092565b60006020828403121561205857612057612b7a565b5b600061206684828501611f56565b91505092915050565b60006020828403121561208557612084612b7a565b5b600061209384828501611f6b565b91505092915050565b6000602082840312156120b2576120b1612b7a565b5b60006120c084828501611f80565b91505092915050565b60006120d583836123f5565b60208301905092915050565b6120ea816129f6565b82525050565b6120f9816129a1565b82525050565b6121088161298f565b82525050565b61211781612825565b6121218184612853565b925061212c8261281b565b8060005b8381101561215d57815161214487826120c9565b965061214f83612846565b925050600181019050612130565b505050505050565b61216e816129b3565b82525050565b600061217f82612830565b612189818561285e565b9350612199818560208601612a50565b80840191505092915050565b6121ae81612a08565b82525050565b60006121bf8261283b565b6121c98185612869565b93506121d9818560208601612a50565b6121e281612b7f565b840191505092915050565b60006121fa602883612869565b915061220582612b90565b604082019050919050565b600061221d602683612869565b915061222882612bdf565b604082019050919050565b6000612240604983612869565b915061224b82612c2e565b606082019050919050565b6000612263602683612869565b915061226e82612ca3565b604082019050919050565b6000612286602483612869565b915061229182612cf2565b604082019050919050565b60006122a9601f83612869565b91506122b482612d41565b602082019050919050565b60006122cc602083612869565b91506122d782612d6a565b602082019050919050565b60006122ef601883612869565b91506122fa82612d93565b602082019050919050565b6000612312602983612869565b915061231d82612dbc565b604082019050919050565b6000612335602183612869565b915061234082612e0b565b604082019050919050565b6000612358601d83612869565b915061236382612e5a565b602082019050919050565b600061237b601d83612869565b915061238682612e83565b602082019050919050565b600061239e602a83612869565b91506123a982612eac565b604082019050919050565b60006123c1601f83612869565b91506123cc82612efb565b602082019050919050565b6123e0816129df565b82525050565b6123ef81612a3e565b82525050565b6123fe816129e9565b82525050565b61240d816129e9565b82525050565b600061241f8284612174565b915081905092915050565b600060208201905061243f60008301846120ff565b92915050565b600060408201905061245a60008301856120e1565b61246760208301846123d7565b9392505050565b600060408201905061248360008301856120ff565b61249060208301846123d7565b9392505050565b60006060820190506124ac60008301866120ff565b6124b960208301856123d7565b6124c66040830184612165565b949350505050565b600060e0820190506124e3600083018a6120ff565b6124f060208301896123d7565b6124fd60408301886123d7565b61250a60608301876123d7565b61251760808301866123d7565b61252460a08301856120f0565b61253160c0830184612165565b98975050505050505050565b600060c082019050612552600083018761210e565b61255f60608301866120ff565b61256c60808301856123d7565b61257960a08301846123d7565b95945050505050565b600060208201905061259760008301846121a5565b92915050565b600060208201905081810360008301526125b781846121b4565b905092915050565b600060208201905081810360008301526125d8816121ed565b9050919050565b600060208201905081810360008301526125f881612210565b9050919050565b6000602082019050818103600083015261261881612233565b9050919050565b6000602082019050818103600083015261263881612256565b9050919050565b6000602082019050818103600083015261265881612279565b9050919050565b600060208201905081810360008301526126788161229c565b9050919050565b60006020820190508181036000830152612698816122bf565b9050919050565b600060208201905081810360008301526126b8816122e2565b9050919050565b600060208201905081810360008301526126d881612305565b9050919050565b600060208201905081810360008301526126f881612328565b9050919050565b600060208201905081810360008301526127188161234b565b9050919050565b600060208201905081810360008301526127388161236e565b9050919050565b6000602082019050818103600083015261275881612391565b9050919050565b60006020820190508181036000830152612778816123b4565b9050919050565b600060208201905061279460008301846123d7565b92915050565b60006020820190506127af60008301846123e6565b92915050565b60006020820190506127ca6000830184612404565b92915050565b60006127da6127eb565b90506127e68282612a83565b919050565b6000604051905090565b600067ffffffffffffffff8211156128105761280f612b41565b5b602082029050919050565b6000819050919050565b600060039050919050565b600081519050919050565b600081519050919050565b6000602082019050919050565b600081905092915050565b600081905092915050565b600082825260208201905092915050565b6000612885826129df565b9150612890836129df565b9250827fffffffffffffffffffffffffffffffffffffffffffffffffffffffffffffffff038211156128c5576128c4612ab4565b5b828201905092915050565b60006128db826129df565b91506128e6836129df565b9250826128f6576128f5612ae3565b5b828204905092915050565b600061290c826129df565b9150612917836129df565b9250817fffffffffffffffffffffffffffffffffffffffffffffffffffffffffffffffff04831182151516156129505761294f612ab4565b5b828202905092915050565b6000612966826129df565b9150612971836129df565b92508282101561298457612983612ab4565b5b828203905092915050565b600061299a826129bf565b9050919050565b60006129ac826129bf565b9050919050565b60008115159050919050565b600073ffffffffffffffffffffffffffffffffffffffff82169050919050565b6000819050919050565b600060ff82169050919050565b6000612a0182612a1a565b9050919050565b6000612a1382612a1a565b9050919050565b6000612a2582612a2c565b9050919050565b6000612a37826129bf565b9050919050565b6000612a49826129e9565b9050919050565b60005b83811015612a6e578082015181840152602081019050612a53565b83811115612a7d576000848401525b50505050565b612a8c82612b7f565b810181811067ffffffffffffffff82111715612aab57612aaa612b41565b5b80604052505050565b7f4e487b7100000000000000000000000000000000000000000000000000000000600052601160045260246000fd5b7f4e487b7100000000000000000000000000000000000000000000000000000000600052601260045260246000fd5b7f4e487b7100000000000000000000000000000000000000000000000000000000600052603260045260246000fd5b7f4e487b7100000000000000000000000000000000000000000000000000000000600052604160045260246000fd5b600080fd5b600080fd5b600080fd5b6000601f19601f8301169050919050565b7f4a7573746963653a204d7573742073656e64206174206c65617374207265736560008201527f7276655072696365000000000000000000000000000000000000000000000000602082015250565b7f4f776e61626c653a206e6577206f776e657220697320746865207a65726f206160008201527f6464726573730000000000000000000000000000000000000000000000000000602082015250565b7f4a7573746963653a204d7573742073656e64206d6f7265207468616e206c617360008201527f7420626964206279206d696e426964496e6372656d656e7450657263656e746160208201527f676520616d6f756e740000000000000000000000000000000000000000000000604082015250565b7f416464726573733a20696e73756666696369656e742062616c616e636520666f60008201527f722063616c6c0000000000000000000000000000000000000000000000000000602082015250565b7f4a7573746963653a20746f6b656e206964206973206e6f742061756374696f6e60008201527f61626c6500000000000000000000000000000000000000000000000000000000602082015250565b7f4a7573746963653a20417274206e6f7420757020666f722061756374696f6e00600082015250565b7f4f776e61626c653a2063616c6c6572206973206e6f7420746865206f776e6572600082015250565b7f4a7573746963653a2041756374696f6e20657870697265640000000000000000600082015250565b7f4a7573746963653a2041756374696f6e2068617320616c72656164792062656560008201527f6e20736574746c65640000000000000000000000000000000000000000000000602082015250565b7f4a7573746963653a2041756374696f6e206861736e277420636f6d706c65746560008201527f6400000000000000000000000000000000000000000000000000000000000000602082015250565b7f416464726573733a2063616c6c20746f206e6f6e2d636f6e7472616374000000600082015250565b7f4a7573746963653a2041756374696f6e206861736e277420626567756e000000600082015250565b7f5361666545524332303a204552433230206f7065726174696f6e20646964206e60008201527f6f74207375636365656400000000000000000000000000000000000000000000602082015250565b7f5265656e7472616e637947756172643a207265656e7472616e742063616c6c00600082015250565b612f2d8161298f565b8114612f3857600080fd5b50565b612f44816129b3565b8114612f4f57600080fd5b50565b612f5b816129df565b8114612f6657600080fd5b50565b612f72816129e9565b8114612f7d57600080fd5b5056fea2646970667358221220ca9dae7485457f88eb6b068634053a5d6045cb362f5b00e727370a43150e3f0264736f6c63430008070033",
  "devdoc": {
    "kind": "dev",
    "methods": {
      "createAuction(address,uint256,uint8[3])": {
        "params": {
          "creator": "the address of the creator so we can pass it to the payment splitter once the auction is settled.",
          "split": "a fixed-sized array of max 3 members which determines how sale proceeds are split between pr1s0nartPayment              (the address that exchanges into USD and pays LFOs), pr1s0nartFund (our onchain fund to cover operations),              and the creator address if they have one and can receive crypto in addition to the LFO payments we cover.              This is likely only the case if they are no longer incarcerated and have an ETH address.",
          "tokenId": "the index of the art piece to be auctioned off"
        }
      },
      "createBid(uint256)": {
        "details": "This contract only accepts payment in ETH."
      },
      "owner()": {
        "details": "Returns the address of the current owner."
      },
      "renounceOwnership()": {
        "details": "Leaves the contract without owner. It will not be possible to call `onlyOwner` functions anymore. Can only be called by the current owner. NOTE: Renouncing ownership will leave the contract without an owner, thereby removing any functionality that is only available to the owner."
      },
      "setFundAddress(address)": {
        "details": "Only callable by the owner."
      },
      "setMinBidIncrementPercentage(uint8)": {
        "details": "Only callable by the owner."
      },
      "setPaymentAddress(address)": {
        "details": "Only callable by the owner."
      },
      "setReservePrice(uint256)": {
        "details": "Only callable by the owner."
      },
      "setTimeBuffer(uint256)": {
        "details": "Only callable by the owner."
      },
      "settleAuction()": {
        "details": "This function can only be called when the contract is paused."
      },
      "transferOwnership(address)": {
        "details": "Transfers ownership of the contract to a new account (`newOwner`). Can only be called by the current owner."
      }
    },
    "title": "Justice Justice - a contract that creates unique NFTs to be auctioned off, using the Restore the ERC721 Contract. Adapted from the wonderful people at Nounders DAO. https://github.com/nounsDAO/nouns-monorepo/blob/2cbe6c7bdfee258e646e8d9e84302375320abc72/packages/nouns-contracts/contracts/NounsAuctionHouse.sol Once auctioned, this contract does not immediatedly transfer the art, but 'freezes' it, while ensuring that the owner of the system, which is multisig owned by Pr1s0n Art Inc - a 501(c)3 registered in Florida - can only ever transfer them to the winning bidder. Pr1s0n Art takes the funds raised from the sale, exchanges them into USD, pays the Legal Financial Obligations of the people who made the art and then reattaches the receipts as the `data` in `transferToBuyer`, which uses the `safeTransferFrom` method in the ERC721 standard. This means you receive not just the art, but the full story - aesthetic, economic and sociopolitical - of a human being's journey home. This contract enacts restorative justice because, unless we are all involved with justice, we will never realise it fully.",
    "version": 1
  },
  "userdoc": {
    "kind": "user",
    "methods": {
      "constructor": {
        "notice": "Set up the Justice Auction House and prepopulate initial values"
      },
      "createAuction(address,uint256,uint8[3])": {
        "notice": "Create an auction."
      },
      "createBid(uint256)": {
        "notice": "Create a bid for a pr1s0n.art piece, with a given amount."
      },
      "setFundAddress(address)": {
        "notice": "Set the pr1s0nartFund address (handles onchain fund for operations)"
      },
      "setMinBidIncrementPercentage(uint8)": {
        "notice": "Set the auction minimum bid increment percentage."
      },
      "setPaymentAddress(address)": {
        "notice": "Set the pr1s0nart payment address (handles exchange to USD + LFO payments)."
      },
      "setReservePrice(uint256)": {
        "notice": "Set the auction reserve price."
      },
      "setTimeBuffer(uint256)": {
        "notice": "Set the auction time buffer."
      },
      "settleAuction()": {
        "notice": "Settle the current auction."
      }
    },
    "version": 1
  },
  "storageLayout": {
    "storage": [
      {
        "astId": 115,
        "contract": "contracts/Justice.sol:Justice",
        "label": "_status",
        "offset": 0,
        "slot": "0",
        "type": "t_uint256"
      },
      {
        "astId": 7,
        "contract": "contracts/Justice.sol:Justice",
        "label": "_owner",
        "offset": 0,
        "slot": "1",
        "type": "t_address"
      },
      {
        "astId": 1267,
        "contract": "contracts/Justice.sol:Justice",
        "label": "restore",
        "offset": 0,
        "slot": "2",
        "type": "t_contract(IRestore)3407"
      },
      {
        "astId": 1269,
        "contract": "contracts/Justice.sol:Justice",
        "label": "weth",
        "offset": 0,
        "slot": "3",
        "type": "t_address"
      },
      {
        "astId": 1271,
        "contract": "contracts/Justice.sol:Justice",
        "label": "timeBuffer",
        "offset": 0,
        "slot": "4",
        "type": "t_uint256"
      },
      {
        "astId": 1273,
        "contract": "contracts/Justice.sol:Justice",
        "label": "reservePrice",
        "offset": 0,
        "slot": "5",
        "type": "t_uint256"
      },
      {
        "astId": 1275,
        "contract": "contracts/Justice.sol:Justice",
        "label": "minBidIncrementPercentage",
        "offset": 0,
        "slot": "6",
        "type": "t_uint8"
      },
      {
        "astId": 1277,
        "contract": "contracts/Justice.sol:Justice",
        "label": "duration",
        "offset": 0,
        "slot": "7",
        "type": "t_uint256"
      },
      {
        "astId": 1280,
        "contract": "contracts/Justice.sol:Justice",
        "label": "auction",
        "offset": 0,
        "slot": "8",
        "type": "t_struct(Auction)3252_storage"
      },
      {
        "astId": 1282,
        "contract": "contracts/Justice.sol:Justice",
        "label": "payment",
        "offset": 0,
        "slot": "15",
        "type": "t_address"
      },
      {
        "astId": 1284,
        "contract": "contracts/Justice.sol:Justice",
        "label": "fund",
        "offset": 0,
        "slot": "16",
        "type": "t_address"
      }
    ],
    "types": {
      "t_address": {
        "encoding": "inplace",
        "label": "address",
        "numberOfBytes": "20"
      },
      "t_address_payable": {
        "encoding": "inplace",
        "label": "address payable",
        "numberOfBytes": "20"
      },
      "t_array(t_uint8)3_storage": {
        "base": "t_uint8",
        "encoding": "inplace",
        "label": "uint8[3]",
        "numberOfBytes": "32"
      },
      "t_bool": {
        "encoding": "inplace",
        "label": "bool",
        "numberOfBytes": "1"
      },
      "t_contract(IRestore)3407": {
        "encoding": "inplace",
        "label": "contract IRestore",
        "numberOfBytes": "20"
      },
      "t_struct(Auction)3252_storage": {
        "encoding": "inplace",
        "label": "struct IJustice.Auction",
        "members": [
          {
            "astId": 3237,
            "contract": "contracts/Justice.sol:Justice",
            "label": "saleSplit",
            "offset": 0,
            "slot": "0",
            "type": "t_array(t_uint8)3_storage"
          },
          {
            "astId": 3239,
            "contract": "contracts/Justice.sol:Justice",
            "label": "creator",
            "offset": 0,
            "slot": "1",
            "type": "t_address"
          },
          {
            "astId": 3241,
            "contract": "contracts/Justice.sol:Justice",
            "label": "tokenId",
            "offset": 0,
            "slot": "2",
            "type": "t_uint256"
          },
          {
            "astId": 3243,
            "contract": "contracts/Justice.sol:Justice",
            "label": "amount",
            "offset": 0,
            "slot": "3",
            "type": "t_uint256"
          },
          {
            "astId": 3245,
            "contract": "contracts/Justice.sol:Justice",
            "label": "startTime",
            "offset": 0,
            "slot": "4",
            "type": "t_uint256"
          },
          {
            "astId": 3247,
            "contract": "contracts/Justice.sol:Justice",
            "label": "endTime",
            "offset": 0,
            "slot": "5",
            "type": "t_uint256"
          },
          {
            "astId": 3249,
            "contract": "contracts/Justice.sol:Justice",
            "label": "bidder",
            "offset": 0,
            "slot": "6",
            "type": "t_address_payable"
          },
          {
            "astId": 3251,
            "contract": "contracts/Justice.sol:Justice",
            "label": "settled",
            "offset": 20,
            "slot": "6",
            "type": "t_bool"
          }
        ],
        "numberOfBytes": "224"
      },
      "t_uint256": {
        "encoding": "inplace",
        "label": "uint256",
        "numberOfBytes": "32"
      },
      "t_uint8": {
        "encoding": "inplace",
        "label": "uint8",
        "numberOfBytes": "1"
      }
    }
  }
}