{
  "address": "0xB4aF09df21389743bddD77404895dAAccdc4e58B",
  "abi": [
    {
      "inputs": [
        {
          "internalType": "address",
          "name": "_proxyRegistryAddress",
          "type": "address"
        }
      ],
      "stateMutability": "nonpayable",
      "type": "constructor"
    },
    {
      "anonymous": false,
      "inputs": [
        {
          "indexed": true,
          "internalType": "address",
          "name": "owner",
          "type": "address"
        },
        {
          "indexed": true,
          "internalType": "address",
          "name": "approved",
          "type": "address"
        },
        {
          "indexed": true,
          "internalType": "uint256",
          "name": "tokenId",
          "type": "uint256"
        }
      ],
      "name": "Approval",
      "type": "event"
    },
    {
      "anonymous": false,
      "inputs": [
        {
          "indexed": true,
          "internalType": "address",
          "name": "owner",
          "type": "address"
        },
        {
          "indexed": true,
          "internalType": "address",
          "name": "operator",
          "type": "address"
        },
        {
          "indexed": false,
          "internalType": "bool",
          "name": "approved",
          "type": "bool"
        }
      ],
      "name": "ApprovalForAll",
      "type": "event"
    },
    {
      "anonymous": false,
      "inputs": [
        {
          "indexed": false,
          "internalType": "address",
          "name": "buyer",
          "type": "address"
        },
        {
          "indexed": true,
          "internalType": "uint256",
          "name": "tokenId",
          "type": "uint256"
        }
      ],
      "name": "ArtFrozen",
      "type": "event"
    },
    {
      "anonymous": false,
      "inputs": [
        {
          "indexed": false,
          "internalType": "address",
          "name": "buyer",
          "type": "address"
        },
        {
          "indexed": true,
          "internalType": "uint256",
          "name": "tokenId",
          "type": "uint256"
        },
        {
          "indexed": false,
          "internalType": "bytes",
          "name": "data",
          "type": "bytes"
        }
      ],
      "name": "ArtTransferred",
      "type": "event"
    },
    {
      "anonymous": false,
      "inputs": [
        {
          "indexed": true,
          "internalType": "address",
          "name": "previousOwner",
          "type": "address"
        },
        {
          "indexed": true,
          "internalType": "address",
          "name": "newOwner",
          "type": "address"
        }
      ],
      "name": "OwnershipTransferred",
      "type": "event"
    },
    {
      "anonymous": false,
      "inputs": [
        {
          "indexed": false,
          "internalType": "address",
          "name": "to",
          "type": "address"
        },
        {
          "indexed": false,
          "internalType": "uint256",
          "name": "tokenId",
          "type": "uint256"
        },
        {
          "indexed": false,
          "internalType": "string",
          "name": "uri",
          "type": "string"
        }
      ],
      "name": "ReadyForAuction",
      "type": "event"
    },
    {
      "anonymous": false,
      "inputs": [
        {
          "indexed": true,
          "internalType": "address",
          "name": "from",
          "type": "address"
        },
        {
          "indexed": true,
          "internalType": "address",
          "name": "to",
          "type": "address"
        },
        {
          "indexed": true,
          "internalType": "uint256",
          "name": "tokenId",
          "type": "uint256"
        }
      ],
      "name": "Transfer",
      "type": "event"
    },
    {
      "inputs": [
        {
          "internalType": "address",
          "name": "to",
          "type": "address"
        },
        {
          "internalType": "uint256",
          "name": "tokenId",
          "type": "uint256"
        }
      ],
      "name": "approve",
      "outputs": [],
      "stateMutability": "nonpayable",
      "type": "function"
    },
    {
      "inputs": [
        {
          "internalType": "uint256",
          "name": "tokenId",
          "type": "uint256"
        }
      ],
      "name": "auctionable",
      "outputs": [
        {
          "internalType": "bool",
          "name": "",
          "type": "bool"
        }
      ],
      "stateMutability": "view",
      "type": "function"
    },
    {
      "inputs": [
        {
          "internalType": "address",
          "name": "owner",
          "type": "address"
        }
      ],
      "name": "balanceOf",
      "outputs": [
        {
          "internalType": "uint256",
          "name": "",
          "type": "uint256"
        }
      ],
      "stateMutability": "view",
      "type": "function"
    },
    {
      "inputs": [],
      "name": "contractURI",
      "outputs": [
        {
          "internalType": "string",
          "name": "",
          "type": "string"
        }
      ],
      "stateMutability": "pure",
      "type": "function"
    },
    {
      "inputs": [
        {
          "internalType": "address",
          "name": "buyer",
          "type": "address"
        },
        {
          "internalType": "uint256",
          "name": "tokenId",
          "type": "uint256"
        }
      ],
      "name": "freeze",
      "outputs": [],
      "stateMutability": "nonpayable",
      "type": "function"
    },
    {
      "inputs": [
        {
          "internalType": "uint256",
          "name": "tokenId",
          "type": "uint256"
        }
      ],
      "name": "getApproved",
      "outputs": [
        {
          "internalType": "address",
          "name": "",
          "type": "address"
        }
      ],
      "stateMutability": "view",
      "type": "function"
    },
    {
      "inputs": [
        {
          "internalType": "address",
          "name": "owner",
          "type": "address"
        },
        {
          "internalType": "address",
          "name": "operator",
          "type": "address"
        }
      ],
      "name": "isApprovedForAll",
      "outputs": [
        {
          "internalType": "bool",
          "name": "",
          "type": "bool"
        }
      ],
      "stateMutability": "view",
      "type": "function"
    },
    {
      "inputs": [],
      "name": "justice",
      "outputs": [
        {
          "internalType": "address",
          "name": "",
          "type": "address"
        }
      ],
      "stateMutability": "view",
      "type": "function"
    },
    {
      "inputs": [
        {
          "internalType": "address",
          "name": "creator",
          "type": "address"
        },
        {
          "internalType": "string",
          "name": "uri",
          "type": "string"
        }
      ],
      "name": "mintForAuction",
      "outputs": [
        {
          "internalType": "uint256",
          "name": "tokenId",
          "type": "uint256"
        }
      ],
      "stateMutability": "nonpayable",
      "type": "function"
    },
    {
      "inputs": [],
      "name": "name",
      "outputs": [
        {
          "internalType": "string",
          "name": "",
          "type": "string"
        }
      ],
      "stateMutability": "view",
      "type": "function"
    },
    {
      "inputs": [
        {
          "internalType": "address",
          "name": "",
          "type": "address"
        },
        {
          "internalType": "address",
          "name": "",
          "type": "address"
        },
        {
          "internalType": "uint256",
          "name": "",
          "type": "uint256"
        },
        {
          "internalType": "bytes",
          "name": "",
          "type": "bytes"
        }
      ],
      "name": "onERC721Received",
      "outputs": [
        {
          "internalType": "bytes4",
          "name": "",
          "type": "bytes4"
        }
      ],
      "stateMutability": "nonpayable",
      "type": "function"
    },
    {
      "inputs": [],
      "name": "owner",
      "outputs": [
        {
          "internalType": "address",
          "name": "",
          "type": "address"
        }
      ],
      "stateMutability": "view",
      "type": "function"
    },
    {
      "inputs": [
        {
          "internalType": "uint256",
          "name": "tokenId",
          "type": "uint256"
        }
      ],
      "name": "ownerOf",
      "outputs": [
        {
          "internalType": "address",
          "name": "",
          "type": "address"
        }
      ],
      "stateMutability": "view",
      "type": "function"
    },
    {
      "inputs": [],
      "name": "renounceOwnership",
      "outputs": [],
      "stateMutability": "nonpayable",
      "type": "function"
    },
    {
      "inputs": [
        {
          "internalType": "uint256",
          "name": "",
          "type": "uint256"
        },
        {
          "internalType": "uint256",
          "name": "value",
          "type": "uint256"
        }
      ],
      "name": "royaltyInfo",
      "outputs": [
        {
          "internalType": "address",
          "name": "receiver",
          "type": "address"
        },
        {
          "internalType": "uint256",
          "name": "royaltyAmount",
          "type": "uint256"
        }
      ],
      "stateMutability": "view",
      "type": "function"
    },
    {
      "inputs": [
        {
          "internalType": "address",
          "name": "from",
          "type": "address"
        },
        {
          "internalType": "address",
          "name": "to",
          "type": "address"
        },
        {
          "internalType": "uint256",
          "name": "tokenId",
          "type": "uint256"
        }
      ],
      "name": "safeTransferFrom",
      "outputs": [],
      "stateMutability": "nonpayable",
      "type": "function"
    },
    {
      "inputs": [
        {
          "internalType": "address",
          "name": "from",
          "type": "address"
        },
        {
          "internalType": "address",
          "name": "to",
          "type": "address"
        },
        {
          "internalType": "uint256",
          "name": "tokenId",
          "type": "uint256"
        },
        {
          "internalType": "bytes",
          "name": "_data",
          "type": "bytes"
        }
      ],
      "name": "safeTransferFrom",
      "outputs": [],
      "stateMutability": "nonpayable",
      "type": "function"
    },
    {
      "inputs": [
        {
          "internalType": "address",
          "name": "operator",
          "type": "address"
        },
        {
          "internalType": "bool",
          "name": "approved",
          "type": "bool"
        }
      ],
      "name": "setApprovalForAll",
      "outputs": [],
      "stateMutability": "nonpayable",
      "type": "function"
    },
    {
      "inputs": [
        {
          "internalType": "address",
          "name": "_justice",
          "type": "address"
        }
      ],
      "name": "setJustice",
      "outputs": [],
      "stateMutability": "nonpayable",
      "type": "function"
    },
    {
      "inputs": [
        {
          "internalType": "address",
          "name": "recipient",
          "type": "address"
        },
        {
          "internalType": "uint256",
          "name": "value",
          "type": "uint256"
        }
      ],
      "name": "setRoyalties",
      "outputs": [],
      "stateMutability": "nonpayable",
      "type": "function"
    },
    {
      "inputs": [
        {
          "internalType": "bytes4",
          "name": "interfaceId",
          "type": "bytes4"
        }
      ],
      "name": "supportsInterface",
      "outputs": [
        {
          "internalType": "bool",
          "name": "",
          "type": "bool"
        }
      ],
      "stateMutability": "view",
      "type": "function"
    },
    {
      "inputs": [],
      "name": "symbol",
      "outputs": [
        {
          "internalType": "string",
          "name": "",
          "type": "string"
        }
      ],
      "stateMutability": "view",
      "type": "function"
    },
    {
      "inputs": [
        {
          "internalType": "uint256",
          "name": "tokenId",
          "type": "uint256"
        }
      ],
      "name": "tokenURI",
      "outputs": [
        {
          "internalType": "string",
          "name": "",
          "type": "string"
        }
      ],
      "stateMutability": "view",
      "type": "function"
    },
    {
      "inputs": [
        {
          "internalType": "address",
          "name": "from",
          "type": "address"
        },
        {
          "internalType": "address",
          "name": "to",
          "type": "address"
        },
        {
          "internalType": "uint256",
          "name": "tokenId",
          "type": "uint256"
        }
      ],
      "name": "transferFrom",
      "outputs": [],
      "stateMutability": "nonpayable",
      "type": "function"
    },
    {
      "inputs": [
        {
          "internalType": "address",
          "name": "newOwner",
          "type": "address"
        }
      ],
      "name": "transferOwnership",
      "outputs": [],
      "stateMutability": "nonpayable",
      "type": "function"
    },
    {
      "inputs": [
        {
          "internalType": "uint256",
          "name": "tokenId",
          "type": "uint256"
        },
        {
          "internalType": "bytes",
          "name": "data",
          "type": "bytes"
        }
      ],
      "name": "transferToBuyer",
      "outputs": [],
      "stateMutability": "nonpayable",
      "type": "function"
    }
  ],
  "transactionHash": "0x7f9a710c6b94e002103fd1cf13d9612b620dec5812e4f053ae614c52ab3bfa54",
  "args": [
    "0xf57b2c51ded3a29e6891aba85459d600256cf317"
  ],
  "numDeployments": 2,
  "solcInputHash": "06f190fdd9b6513f2cd06a1c880a2718",
  "bytecode": "0x60806040523480156200001157600080fd5b5060405162004293380380620042938339818101604052810190620000379190620002da565b6040518060400160405280600781526020017f526573746f7265000000000000000000000000000000000000000000000000008152506040518060400160405280600481526020017f52455354000000000000000000000000000000000000000000000000000000008152508282828160009080519060200190620000be92919062000213565b508060019080519060200190620000d792919062000213565b50505080600860006101000a81548173ffffffffffffffffffffffffffffffffffffffff021916908373ffffffffffffffffffffffffffffffffffffffff1602179055505050506200013e620001326200014560201b60201c565b6200014d60201b60201c565b50620003c4565b600033905090565b6000600960009054906101000a900473ffffffffffffffffffffffffffffffffffffffff16905081600960006101000a81548173ffffffffffffffffffffffffffffffffffffffff021916908373ffffffffffffffffffffffffffffffffffffffff1602179055508173ffffffffffffffffffffffffffffffffffffffff168173ffffffffffffffffffffffffffffffffffffffff167f8be0079c531659141344cd1fd0a4f28419497f9722a3daafe3b4186f6b6457e060405160405180910390a35050565b828054620002219062000340565b90600052602060002090601f01602090048101928262000245576000855562000291565b82601f106200026057805160ff191683800117855562000291565b8280016001018555821562000291579182015b828111156200029057825182559160200191906001019062000273565b5b509050620002a09190620002a4565b5090565b5b80821115620002bf576000816000905550600101620002a5565b5090565b600081519050620002d481620003aa565b92915050565b600060208284031215620002f357620002f2620003a5565b5b60006200030384828501620002c3565b91505092915050565b6000620003198262000320565b9050919050565b600073ffffffffffffffffffffffffffffffffffffffff82169050919050565b600060028204905060018216806200035957607f821691505b6020821081141562000370576200036f62000376565b5b50919050565b7f4e487b7100000000000000000000000000000000000000000000000000000000600052602260045260246000fd5b600080fd5b620003b5816200030c565b8114620003c157600080fd5b50565b613ebf80620003d46000396000f3fe608060405234801561001057600080fd5b506004361061018e5760003560e01c806370a08231116100de578063a57f7ad811610097578063d793a17911610071578063d793a17914610492578063e8a3d485146104c2578063e985e9c5146104e0578063f2fde38b146105105761018e565b8063a57f7ad81461042a578063b88d4fde14610446578063c87b56dd146104625761018e565b806370a082311461037c578063715018a6146103ac5780638c7ea24b146103b65780638da5cb5b146103d257806395d89b41146103f0578063a22cb4651461040e5761018e565b806323b872dd1161014b5780632a55205a116101255780632a55205a146102cf57806342842e0e146103005780634cc96fd51461031c5780636352211e1461034c5761018e565b806323b872dd1461027b578063245d61a61461029757806324bce60c146102b35761018e565b806301ffc9a71461019357806306fdde03146101c3578063081812fc146101e1578063095ea7b3146102115780630d8013351461022d578063150b7a021461024b575b600080fd5b6101ad60048036038101906101a89190612aa8565b61052c565b6040516101ba91906130d8565b60405180910390f35b6101cb61053e565b6040516101d8919061310e565b60405180910390f35b6101fb60048036038101906101f69190612b2f565b6105d0565b6040516102089190612fda565b60405180910390f35b61022b60048036038101906102269190612a68565b610655565b005b61023561076d565b6040516102429190612fda565b60405180910390f35b61026560048036038101906102609190612949565b610793565b60405161027291906130f3565b60405180910390f35b610295600480360381019061029091906128f6565b6107a7565b005b6102b160048036038101906102ac9190612b5c565b610807565b005b6102cd60048036038101906102c89190612a68565b610933565b005b6102e960048036038101906102e49190612bb8565b610a51565b6040516102f7929190613071565b60405180910390f35b61031a600480360381019061031591906128f6565b610b11565b005b61033660048036038101906103319190612a0c565b610b31565b60405161034391906133d0565b60405180910390f35b61036660048036038101906103619190612b2f565b610c64565b6040516103739190612fda565b60405180910390f35b61039660048036038101906103919190612889565b610d16565b6040516103a391906133d0565b60405180910390f35b6103b4610dce565b005b6103d060048036038101906103cb9190612a68565b610e56565b005b6103da610ee0565b6040516103e79190612fda565b60405180910390f35b6103f8610f0a565b604051610405919061310e565b60405180910390f35b610428600480360381019061042391906129cc565b610f9c565b005b610444600480360381019061043f9190612889565b61111d565b005b610460600480360381019061045b9190612949565b6111dd565b005b61047c60048036038101906104779190612b2f565b61123f565b604051610489919061310e565b60405180910390f35b6104ac60048036038101906104a79190612b2f565b611251565b6040516104b991906130d8565b60405180910390f35b6104ca611305565b6040516104d7919061310e565b60405180910390f35b6104fa60048036038101906104f591906128b6565b611342565b60405161050791906130d8565b60405180910390f35b61052a60048036038101906105259190612889565b611444565b005b60006105378261153c565b9050919050565b60606000805461054d90613692565b80601f016020809104026020016040519081016040528092919081815260200182805461057990613692565b80156105c65780601f1061059b576101008083540402835291602001916105c6565b820191906000526020600020905b8154815290600101906020018083116105a957829003601f168201915b5050505050905090565b60006105db826115b6565b61061a576040517f08c379a0000000000000000000000000000000000000000000000000000000008152600401610611906132f0565b60405180910390fd5b6004600083815260200190815260200160002060009054906101000a900473ffffffffffffffffffffffffffffffffffffffff169050919050565b600061066082610c64565b90508073ffffffffffffffffffffffffffffffffffffffff168373ffffffffffffffffffffffffffffffffffffffff1614156106d1576040517f08c379a00000000000000000000000000000000000000000000000000000000081526004016106c890613370565b60405180910390fd5b8073ffffffffffffffffffffffffffffffffffffffff166106f0611622565b73ffffffffffffffffffffffffffffffffffffffff16148061071f575061071e81610719611622565b611342565b5b61075e576040517f08c379a000000000000000000000000000000000000000000000000000000000815260040161075590613210565b60405180910390fd5b610768838361162a565b505050565b600c60009054906101000a900473ffffffffffffffffffffffffffffffffffffffff1681565b600063150b7a0260e01b9050949350505050565b6107b86107b2611622565b826116e3565b6107f7576040517f08c379a00000000000000000000000000000000000000000000000000000000081526004016107ee90613390565b60405180910390fd5b6108028383836117c1565b505050565b61080f611622565b73ffffffffffffffffffffffffffffffffffffffff1661082d610ee0565b73ffffffffffffffffffffffffffffffffffffffff1614610883576040517f08c379a000000000000000000000000000000000000000000000000000000000815260040161087a90613310565b60405180910390fd5b817f2100d6eaadb9162c3c47b8c058cd6340e944f932331f8ae70c91f7cf45929014600b600085815260200190815260200160002060009054906101000a900473ffffffffffffffffffffffffffffffffffffffff16836040516108e8929190613041565b60405180910390a261092f30600b600085815260200190815260200160002060009054906101000a900473ffffffffffffffffffffffffffffffffffffffff168484611a1d565b5050565b600c60009054906101000a900473ffffffffffffffffffffffffffffffffffffffff1673ffffffffffffffffffffffffffffffffffffffff163373ffffffffffffffffffffffffffffffffffffffff16146109c3576040517f08c379a00000000000000000000000000000000000000000000000000000000081526004016109ba90613290565b60405180910390fd5b81600b600083815260200190815260200160002060006101000a81548173ffffffffffffffffffffffffffffffffffffffff021916908373ffffffffffffffffffffffffffffffffffffffff160217905550807f9a90b690b283d5b728bf75802cfe38a25c3a9121fa2c9a1a9b98e977f0910b9c83604051610a459190612fda565b60405180910390a25050565b600080600060076040518060400160405290816000820160009054906101000a900473ffffffffffffffffffffffffffffffffffffffff1673ffffffffffffffffffffffffffffffffffffffff1673ffffffffffffffffffffffffffffffffffffffff1681526020016000820160149054906101000a900462ffffff1662ffffff1662ffffff1681525050905080600001519250612710816020015162ffffff1685610afd919061353c565b610b07919061350b565b9150509250929050565b610b2c838383604051806020016040528060008152506111dd565b505050565b6000610b3b611622565b73ffffffffffffffffffffffffffffffffffffffff16610b59610ee0565b73ffffffffffffffffffffffffffffffffffffffff1614610baf576040517f08c379a0000000000000000000000000000000000000000000000000000000008152600401610ba690613310565b60405180910390fd5b6000610bbb600a611a79565b9050610bc8843083611a87565b610bd28184611aa7565b610bdc600a611b1b565b610c1e846000836040518060400160405280601b81526020017f4e657720746f6b656e20726561647920666f722061756374696f6e0000000000815250610793565b507fb971b80483a21abdb157bd662939d519b3b05d96653e672a51da2641297355bd308285604051610c529392919061309a565b60405180910390a18091505092915050565b6000806002600084815260200190815260200160002060009054906101000a900473ffffffffffffffffffffffffffffffffffffffff169050600073ffffffffffffffffffffffffffffffffffffffff168173ffffffffffffffffffffffffffffffffffffffff161415610d0d576040517f08c379a0000000000000000000000000000000000000000000000000000000008152600401610d0490613250565b60405180910390fd5b80915050919050565b60008073ffffffffffffffffffffffffffffffffffffffff168273ffffffffffffffffffffffffffffffffffffffff161415610d87576040517f08c379a0000000000000000000000000000000000000000000000000000000008152600401610d7e90613230565b60405180910390fd5b600360008373ffffffffffffffffffffffffffffffffffffffff1673ffffffffffffffffffffffffffffffffffffffff168152602001908152602001600020549050919050565b610dd6611622565b73ffffffffffffffffffffffffffffffffffffffff16610df4610ee0565b73ffffffffffffffffffffffffffffffffffffffff1614610e4a576040517f08c379a0000000000000000000000000000000000000000000000000000000008152600401610e4190613310565b60405180910390fd5b610e546000611b31565b565b610e5e611622565b73ffffffffffffffffffffffffffffffffffffffff16610e7c610ee0565b73ffffffffffffffffffffffffffffffffffffffff1614610ed2576040517f08c379a0000000000000000000000000000000000000000000000000000000008152600401610ec990613310565b60405180910390fd5b610edc8282611bf7565b5050565b6000600960009054906101000a900473ffffffffffffffffffffffffffffffffffffffff16905090565b606060018054610f1990613692565b80601f0160208091040260200160405190810160405280929190818152602001828054610f4590613692565b8015610f925780601f10610f6757610100808354040283529160200191610f92565b820191906000526020600020905b815481529060010190602001808311610f7557829003601f168201915b5050505050905090565b610fa4611622565b73ffffffffffffffffffffffffffffffffffffffff168273ffffffffffffffffffffffffffffffffffffffff161415611012576040517f08c379a0000000000000000000000000000000000000000000000000000000008152600401611009906131d0565b60405180910390fd5b806005600061101f611622565b73ffffffffffffffffffffffffffffffffffffffff1673ffffffffffffffffffffffffffffffffffffffff16815260200190815260200160002060008473ffffffffffffffffffffffffffffffffffffffff1673ffffffffffffffffffffffffffffffffffffffff16815260200190815260200160002060006101000a81548160ff0219169083151502179055508173ffffffffffffffffffffffffffffffffffffffff166110cc611622565b73ffffffffffffffffffffffffffffffffffffffff167f17307eab39ab6107e8899845ad3d59bd9653f200f220920489ca2b5937696c318360405161111191906130d8565b60405180910390a35050565b611125611622565b73ffffffffffffffffffffffffffffffffffffffff16611143610ee0565b73ffffffffffffffffffffffffffffffffffffffff1614611199576040517f08c379a000000000000000000000000000000000000000000000000000000000815260040161119090613310565b60405180910390fd5b80600c60006101000a81548173ffffffffffffffffffffffffffffffffffffffff021916908373ffffffffffffffffffffffffffffffffffffffff16021790555050565b6111ee6111e8611622565b836116e3565b61122d576040517f08c379a000000000000000000000000000000000000000000000000000000000815260040161122490613390565b60405180910390fd5b61123984848484611a1d565b50505050565b606061124a82611ce1565b9050919050565b600061125c826115b6565b61129b576040517f08c379a0000000000000000000000000000000000000000000000000000000008152600401611292906133b0565b60405180910390fd5b600b600083815260200190815260200160002060009054906101000a900473ffffffffffffffffffffffffffffffffffffffff1673ffffffffffffffffffffffffffffffffffffffff16600073ffffffffffffffffffffffffffffffffffffffff16149050919050565b60606040518060400160405280601481526020017f68747470733a2f2f617277656176652e6e65742f000000000000000000000000815250905090565b600080600860009054906101000a900473ffffffffffffffffffffffffffffffffffffffff1690508273ffffffffffffffffffffffffffffffffffffffff168173ffffffffffffffffffffffffffffffffffffffff1663c4552791866040518263ffffffff1660e01b81526004016113ba9190612fda565b60206040518083038186803b1580156113d257600080fd5b505afa1580156113e6573d6000803e3d6000fd5b505050506040513d601f19601f8201168201806040525081019061140a9190612b02565b73ffffffffffffffffffffffffffffffffffffffff16141561143057600191505061143e565b61143a8484611e33565b9150505b92915050565b61144c611622565b73ffffffffffffffffffffffffffffffffffffffff1661146a610ee0565b73ffffffffffffffffffffffffffffffffffffffff16146114c0576040517f08c379a00000000000000000000000000000000000000000000000000000000081526004016114b790613310565b60405180910390fd5b600073ffffffffffffffffffffffffffffffffffffffff168173ffffffffffffffffffffffffffffffffffffffff161415611530576040517f08c379a000000000000000000000000000000000000000000000000000000000815260040161152790613170565b60405180910390fd5b61153981611b31565b50565b60007f2a55205a000000000000000000000000000000000000000000000000000000007bffffffffffffffffffffffffffffffffffffffffffffffffffffffff1916827bffffffffffffffffffffffffffffffffffffffffffffffffffffffff191614806115af57506115ae82611ec7565b5b9050919050565b60008073ffffffffffffffffffffffffffffffffffffffff166002600084815260200190815260200160002060009054906101000a900473ffffffffffffffffffffffffffffffffffffffff1673ffffffffffffffffffffffffffffffffffffffff1614159050919050565b600033905090565b816004600083815260200190815260200160002060006101000a81548173ffffffffffffffffffffffffffffffffffffffff021916908373ffffffffffffffffffffffffffffffffffffffff160217905550808273ffffffffffffffffffffffffffffffffffffffff1661169d83610c64565b73ffffffffffffffffffffffffffffffffffffffff167f8c5be1e5ebec7d5bd14f71427d1e84f3dd0314c0f7b2291e5b200ac8c7c3b92560405160405180910390a45050565b60006116ee826115b6565b61172d576040517f08c379a0000000000000000000000000000000000000000000000000000000008152600401611724906131f0565b60405180910390fd5b600061173883610c64565b90508073ffffffffffffffffffffffffffffffffffffffff168473ffffffffffffffffffffffffffffffffffffffff1614806117a757508373ffffffffffffffffffffffffffffffffffffffff1661178f846105d0565b73ffffffffffffffffffffffffffffffffffffffff16145b806117b857506117b78185611342565b5b91505092915050565b8273ffffffffffffffffffffffffffffffffffffffff166117e182610c64565b73ffffffffffffffffffffffffffffffffffffffff1614611837576040517f08c379a000000000000000000000000000000000000000000000000000000000815260040161182e90613330565b60405180910390fd5b600073ffffffffffffffffffffffffffffffffffffffff168273ffffffffffffffffffffffffffffffffffffffff1614156118a7576040517f08c379a000000000000000000000000000000000000000000000000000000000815260040161189e906131b0565b60405180910390fd5b6118b2838383611fa9565b6118bd60008261162a565b6001600360008573ffffffffffffffffffffffffffffffffffffffff1673ffffffffffffffffffffffffffffffffffffffff168152602001908152602001600020600082825461190d9190613596565b925050819055506001600360008473ffffffffffffffffffffffffffffffffffffffff1673ffffffffffffffffffffffffffffffffffffffff168152602001908152602001600020600082825461196491906134b5565b92505081905550816002600083815260200190815260200160002060006101000a81548173ffffffffffffffffffffffffffffffffffffffff021916908373ffffffffffffffffffffffffffffffffffffffff160217905550808273ffffffffffffffffffffffffffffffffffffffff168473ffffffffffffffffffffffffffffffffffffffff167fddf252ad1be2c89b69c2b068fc378daa952ba7f163c4a11628f55a4df523b3ef60405160405180910390a4505050565b611a288484846117c1565b611a3484848484611fb9565b611a73576040517f08c379a0000000000000000000000000000000000000000000000000000000008152600401611a6a90613150565b60405180910390fd5b50505050565b600081600001549050919050565b611aa283838360405180602001604052806000815250612150565b505050565b611ab0826115b6565b611aef576040517f08c379a0000000000000000000000000000000000000000000000000000000008152600401611ae690613270565b60405180910390fd5b80600660008481526020019081526020016000209080519060200190611b16929190612688565b505050565b6001816000016000828254019250508190555050565b6000600960009054906101000a900473ffffffffffffffffffffffffffffffffffffffff16905081600960006101000a81548173ffffffffffffffffffffffffffffffffffffffff021916908373ffffffffffffffffffffffffffffffffffffffff1602179055508173ffffffffffffffffffffffffffffffffffffffff168173ffffffffffffffffffffffffffffffffffffffff167f8be0079c531659141344cd1fd0a4f28419497f9722a3daafe3b4186f6b6457e060405160405180910390a35050565b612710811115611c3c576040517f08c379a0000000000000000000000000000000000000000000000000000000008152600401611c3390613130565b60405180910390fd5b60405180604001604052808373ffffffffffffffffffffffffffffffffffffffff1681526020018262ffffff16815250600760008201518160000160006101000a81548173ffffffffffffffffffffffffffffffffffffffff021916908373ffffffffffffffffffffffffffffffffffffffff16021790555060208201518160000160146101000a81548162ffffff021916908362ffffff1602179055509050505050565b6060611cec826115b6565b611d2b576040517f08c379a0000000000000000000000000000000000000000000000000000000008152600401611d22906132d0565b60405180910390fd5b6000600660008481526020019081526020016000208054611d4b90613692565b80601f0160208091040260200160405190810160405280929190818152602001828054611d7790613692565b8015611dc45780601f10611d9957610100808354040283529160200191611dc4565b820191906000526020600020905b815481529060010190602001808311611da757829003601f168201915b505050505090506000611dd56121ad565b9050600081511415611deb578192505050611e2e565b600082511115611e20578082604051602001611e08929190612fb6565b60405160208183030381529060405292505050611e2e565b611e29846121c4565b925050505b919050565b6000600560008473ffffffffffffffffffffffffffffffffffffffff1673ffffffffffffffffffffffffffffffffffffffff16815260200190815260200160002060008373ffffffffffffffffffffffffffffffffffffffff1673ffffffffffffffffffffffffffffffffffffffff16815260200190815260200160002060009054906101000a900460ff16905092915050565b60007f80ac58cd000000000000000000000000000000000000000000000000000000007bffffffffffffffffffffffffffffffffffffffffffffffffffffffff1916827bffffffffffffffffffffffffffffffffffffffffffffffffffffffff19161480611f9257507f5b5e139f000000000000000000000000000000000000000000000000000000007bffffffffffffffffffffffffffffffffffffffffffffffffffffffff1916827bffffffffffffffffffffffffffffffffffffffffffffffffffffffff1916145b80611fa25750611fa18261226b565b5b9050919050565b611fb48383836122d5565b505050565b6000611fda8473ffffffffffffffffffffffffffffffffffffffff166122da565b15612143578373ffffffffffffffffffffffffffffffffffffffff1663150b7a02612003611622565b8786866040518563ffffffff1660e01b81526004016120259493929190612ff5565b602060405180830381600087803b15801561203f57600080fd5b505af192505050801561207057506040513d601f19601f8201168201806040525081019061206d9190612ad5565b60015b6120f3573d80600081146120a0576040519150601f19603f3d011682016040523d82523d6000602084013e6120a5565b606091505b506000815114156120eb576040517f08c379a00000000000000000000000000000000000000000000000000000000081526004016120e290613150565b60405180910390fd5b805181602001fd5b63150b7a0260e01b7bffffffffffffffffffffffffffffffffffffffffffffffffffffffff1916817bffffffffffffffffffffffffffffffffffffffffffffffffffffffff191614915050612148565b600190505b949350505050565b61215b8484846122fd565b6121686000848484611fb9565b6121a7576040517f08c379a000000000000000000000000000000000000000000000000000000000815260040161219e90613150565b60405180910390fd5b50505050565b606060405180602001604052806000815250905090565b60606121cf826115b6565b61220e576040517f08c379a000000000000000000000000000000000000000000000000000000000815260040161220590613350565b60405180910390fd5b60006122186121ad565b905060008151116122385760405180602001604052806000815250612263565b8061224284612527565b604051602001612253929190612fb6565b6040516020818303038152906040525b915050919050565b60007f01ffc9a7000000000000000000000000000000000000000000000000000000007bffffffffffffffffffffffffffffffffffffffffffffffffffffffff1916827bffffffffffffffffffffffffffffffffffffffffffffffffffffffff1916149050919050565b505050565b6000808273ffffffffffffffffffffffffffffffffffffffff163b119050919050565b600073ffffffffffffffffffffffffffffffffffffffff168273ffffffffffffffffffffffffffffffffffffffff16141561236d576040517f08c379a0000000000000000000000000000000000000000000000000000000008152600401612364906132b0565b60405180910390fd5b612376816115b6565b156123b6576040517f08c379a00000000000000000000000000000000000000000000000000000000081526004016123ad90613190565b60405180910390fd5b6123c260008383611fa9565b6001600360008473ffffffffffffffffffffffffffffffffffffffff1673ffffffffffffffffffffffffffffffffffffffff168152602001908152602001600020600082825461241291906134b5565b92505081905550816002600083815260200190815260200160002060006101000a81548173ffffffffffffffffffffffffffffffffffffffff021916908373ffffffffffffffffffffffffffffffffffffffff160217905550808373ffffffffffffffffffffffffffffffffffffffff16600073ffffffffffffffffffffffffffffffffffffffff167fddf252ad1be2c89b69c2b068fc378daa952ba7f163c4a11628f55a4df523b3ef60405160405180910390a4808273ffffffffffffffffffffffffffffffffffffffff168473ffffffffffffffffffffffffffffffffffffffff167fddf252ad1be2c89b69c2b068fc378daa952ba7f163c4a11628f55a4df523b3ef60405160405180910390a4505050565b6060600082141561256f576040518060400160405280600181526020017f30000000000000000000000000000000000000000000000000000000000000008152509050612683565b600082905060005b600082146125a157808061258a906136f5565b915050600a8261259a919061350b565b9150612577565b60008167ffffffffffffffff8111156125bd576125bc61382b565b5b6040519080825280601f01601f1916602001820160405280156125ef5781602001600182028036833780820191505090505b5090505b6000851461267c576001826126089190613596565b9150600a85612617919061373e565b603061262391906134b5565b60f81b818381518110612639576126386137fc565b5b60200101907effffffffffffffffffffffffffffffffffffffffffffffffffffffffffffff1916908160001a905350600a85612675919061350b565b94506125f3565b8093505050505b919050565b82805461269490613692565b90600052602060002090601f0160209004810192826126b657600085556126fd565b82601f106126cf57805160ff19168380011785556126fd565b828001600101855582156126fd579182015b828111156126fc5782518255916020019190600101906126e1565b5b50905061270a919061270e565b5090565b5b8082111561272757600081600090555060010161270f565b5090565b600061273e61273984613410565b6133eb565b90508281526020810184848401111561275a5761275961385f565b5b612765848285613650565b509392505050565b600061278061277b84613441565b6133eb565b90508281526020810184848401111561279c5761279b61385f565b5b6127a7848285613650565b509392505050565b6000813590506127be81613e16565b92915050565b6000813590506127d381613e2d565b92915050565b6000813590506127e881613e44565b92915050565b6000815190506127fd81613e44565b92915050565b600082601f8301126128185761281761385a565b5b813561282884826020860161272b565b91505092915050565b60008151905061284081613e5b565b92915050565b600082601f83011261285b5761285a61385a565b5b813561286b84826020860161276d565b91505092915050565b60008135905061288381613e72565b92915050565b60006020828403121561289f5761289e613869565b5b60006128ad848285016127af565b91505092915050565b600080604083850312156128cd576128cc613869565b5b60006128db858286016127af565b92505060206128ec858286016127af565b9150509250929050565b60008060006060848603121561290f5761290e613869565b5b600061291d868287016127af565b935050602061292e868287016127af565b925050604061293f86828701612874565b9150509250925092565b6000806000806080858703121561296357612962613869565b5b6000612971878288016127af565b9450506020612982878288016127af565b935050604061299387828801612874565b925050606085013567ffffffffffffffff8111156129b4576129b3613864565b5b6129c087828801612803565b91505092959194509250565b600080604083850312156129e3576129e2613869565b5b60006129f1858286016127af565b9250506020612a02858286016127c4565b9150509250929050565b60008060408385031215612a2357612a22613869565b5b6000612a31858286016127af565b925050602083013567ffffffffffffffff811115612a5257612a51613864565b5b612a5e85828601612846565b9150509250929050565b60008060408385031215612a7f57612a7e613869565b5b6000612a8d858286016127af565b9250506020612a9e85828601612874565b9150509250929050565b600060208284031215612abe57612abd613869565b5b6000612acc848285016127d9565b91505092915050565b600060208284031215612aeb57612aea613869565b5b6000612af9848285016127ee565b91505092915050565b600060208284031215612b1857612b17613869565b5b6000612b2684828501612831565b91505092915050565b600060208284031215612b4557612b44613869565b5b6000612b5384828501612874565b91505092915050565b60008060408385031215612b7357612b72613869565b5b6000612b8185828601612874565b925050602083013567ffffffffffffffff811115612ba257612ba1613864565b5b612bae85828601612803565b9150509250929050565b60008060408385031215612bcf57612bce613869565b5b6000612bdd85828601612874565b9250506020612bee85828601612874565b9150509250929050565b612c01816135ca565b82525050565b612c10816135dc565b82525050565b612c1f816135e8565b82525050565b6000612c3082613472565b612c3a8185613488565b9350612c4a81856020860161365f565b612c538161386e565b840191505092915050565b6000612c698261347d565b612c738185613499565b9350612c8381856020860161365f565b612c8c8161386e565b840191505092915050565b6000612ca28261347d565b612cac81856134aa565b9350612cbc81856020860161365f565b80840191505092915050565b6000612cd5601a83613499565b9150612ce08261387f565b602082019050919050565b6000612cf8603283613499565b9150612d03826138a8565b604082019050919050565b6000612d1b602683613499565b9150612d26826138f7565b604082019050919050565b6000612d3e601c83613499565b9150612d4982613946565b602082019050919050565b6000612d61602483613499565b9150612d6c8261396f565b604082019050919050565b6000612d84601983613499565b9150612d8f826139be565b602082019050919050565b6000612da7602c83613499565b9150612db2826139e7565b604082019050919050565b6000612dca603883613499565b9150612dd582613a36565b604082019050919050565b6000612ded602a83613499565b9150612df882613a85565b604082019050919050565b6000612e10602983613499565b9150612e1b82613ad4565b604082019050919050565b6000612e33602e83613499565b9150612e3e82613b23565b604082019050919050565b6000612e56603c83613499565b9150612e6182613b72565b604082019050919050565b6000612e79602083613499565b9150612e8482613bc1565b602082019050919050565b6000612e9c603183613499565b9150612ea782613bea565b604082019050919050565b6000612ebf602c83613499565b9150612eca82613c39565b604082019050919050565b6000612ee2602083613499565b9150612eed82613c88565b602082019050919050565b6000612f05602983613499565b9150612f1082613cb1565b604082019050919050565b6000612f28602f83613499565b9150612f3382613d00565b604082019050919050565b6000612f4b602183613499565b9150612f5682613d4f565b604082019050919050565b6000612f6e603183613499565b9150612f7982613d9e565b604082019050919050565b6000612f91601683613499565b9150612f9c82613ded565b602082019050919050565b612fb081613646565b82525050565b6000612fc28285612c97565b9150612fce8284612c97565b91508190509392505050565b6000602082019050612fef6000830184612bf8565b92915050565b600060808201905061300a6000830187612bf8565b6130176020830186612bf8565b6130246040830185612fa7565b81810360608301526130368184612c25565b905095945050505050565b60006040820190506130566000830185612bf8565b81810360208301526130688184612c25565b90509392505050565b60006040820190506130866000830185612bf8565b6130936020830184612fa7565b9392505050565b60006060820190506130af6000830186612bf8565b6130bc6020830185612fa7565b81810360408301526130ce8184612c5e565b9050949350505050565b60006020820190506130ed6000830184612c07565b92915050565b60006020820190506131086000830184612c16565b92915050565b600060208201905081810360008301526131288184612c5e565b905092915050565b6000602082019050818103600083015261314981612cc8565b9050919050565b6000602082019050818103600083015261316981612ceb565b9050919050565b6000602082019050818103600083015261318981612d0e565b9050919050565b600060208201905081810360008301526131a981612d31565b9050919050565b600060208201905081810360008301526131c981612d54565b9050919050565b600060208201905081810360008301526131e981612d77565b9050919050565b6000602082019050818103600083015261320981612d9a565b9050919050565b6000602082019050818103600083015261322981612dbd565b9050919050565b6000602082019050818103600083015261324981612de0565b9050919050565b6000602082019050818103600083015261326981612e03565b9050919050565b6000602082019050818103600083015261328981612e26565b9050919050565b600060208201905081810360008301526132a981612e49565b9050919050565b600060208201905081810360008301526132c981612e6c565b9050919050565b600060208201905081810360008301526132e981612e8f565b9050919050565b6000602082019050818103600083015261330981612eb2565b9050919050565b6000602082019050818103600083015261332981612ed5565b9050919050565b6000602082019050818103600083015261334981612ef8565b9050919050565b6000602082019050818103600083015261336981612f1b565b9050919050565b6000602082019050818103600083015261338981612f3e565b9050919050565b600060208201905081810360008301526133a981612f61565b9050919050565b600060208201905081810360008301526133c981612f84565b9050919050565b60006020820190506133e56000830184612fa7565b92915050565b60006133f5613406565b905061340182826136c4565b919050565b6000604051905090565b600067ffffffffffffffff82111561342b5761342a61382b565b5b6134348261386e565b9050602081019050919050565b600067ffffffffffffffff82111561345c5761345b61382b565b5b6134658261386e565b9050602081019050919050565b600081519050919050565b600081519050919050565b600082825260208201905092915050565b600082825260208201905092915050565b600081905092915050565b60006134c082613646565b91506134cb83613646565b9250827fffffffffffffffffffffffffffffffffffffffffffffffffffffffffffffffff03821115613500576134ff61376f565b5b828201905092915050565b600061351682613646565b915061352183613646565b9250826135315761353061379e565b5b828204905092915050565b600061354782613646565b915061355283613646565b9250817fffffffffffffffffffffffffffffffffffffffffffffffffffffffffffffffff048311821515161561358b5761358a61376f565b5b828202905092915050565b60006135a182613646565b91506135ac83613646565b9250828210156135bf576135be61376f565b5b828203905092915050565b60006135d582613626565b9050919050565b60008115159050919050565b60007fffffffff0000000000000000000000000000000000000000000000000000000082169050919050565b600061361f826135ca565b9050919050565b600073ffffffffffffffffffffffffffffffffffffffff82169050919050565b6000819050919050565b82818337600083830152505050565b60005b8381101561367d578082015181840152602081019050613662565b8381111561368c576000848401525b50505050565b600060028204905060018216806136aa57607f821691505b602082108114156136be576136bd6137cd565b5b50919050565b6136cd8261386e565b810181811067ffffffffffffffff821117156136ec576136eb61382b565b5b80604052505050565b600061370082613646565b91507fffffffffffffffffffffffffffffffffffffffffffffffffffffffffffffffff8214156137335761373261376f565b5b600182019050919050565b600061374982613646565b915061375483613646565b9250826137645761376361379e565b5b828206905092915050565b7f4e487b7100000000000000000000000000000000000000000000000000000000600052601160045260246000fd5b7f4e487b7100000000000000000000000000000000000000000000000000000000600052601260045260246000fd5b7f4e487b7100000000000000000000000000000000000000000000000000000000600052602260045260246000fd5b7f4e487b7100000000000000000000000000000000000000000000000000000000600052603260045260246000fd5b7f4e487b7100000000000000000000000000000000000000000000000000000000600052604160045260246000fd5b600080fd5b600080fd5b600080fd5b600080fd5b6000601f19601f8301169050919050565b7f45524332393831526f79616c746965733a20546f6f2068696768000000000000600082015250565b7f4552433732313a207472616e7366657220746f206e6f6e20455243373231526560008201527f63656976657220696d706c656d656e7465720000000000000000000000000000602082015250565b7f4f776e61626c653a206e6577206f776e657220697320746865207a65726f206160008201527f6464726573730000000000000000000000000000000000000000000000000000602082015250565b7f4552433732313a20746f6b656e20616c7265616479206d696e74656400000000600082015250565b7f4552433732313a207472616e7366657220746f20746865207a65726f2061646460008201527f7265737300000000000000000000000000000000000000000000000000000000602082015250565b7f4552433732313a20617070726f766520746f2063616c6c657200000000000000600082015250565b7f4552433732313a206f70657261746f7220717565727920666f72206e6f6e657860008201527f697374656e7420746f6b656e0000000000000000000000000000000000000000602082015250565b7f4552433732313a20617070726f76652063616c6c6572206973206e6f74206f7760008201527f6e6572206e6f7220617070726f76656420666f7220616c6c0000000000000000602082015250565b7f4552433732313a2062616c616e636520717565727920666f7220746865207a6560008201527f726f206164647265737300000000000000000000000000000000000000000000602082015250565b7f4552433732313a206f776e657220717565727920666f72206e6f6e657869737460008201527f656e7420746f6b656e0000000000000000000000000000000000000000000000602082015250565b7f45524337323155524953746f726167653a2055524920736574206f66206e6f6e60008201527f6578697374656e7420746f6b656e000000000000000000000000000000000000602082015250565b7f526573746f72653a2061756374696f6e6564207069656365206d75737420626560008201527f2066726f7a656e206279206f776e657220766961204a75737469636500000000602082015250565b7f4552433732313a206d696e7420746f20746865207a65726f2061646472657373600082015250565b7f45524337323155524953746f726167653a2055524920717565727920666f722060008201527f6e6f6e6578697374656e7420746f6b656e000000000000000000000000000000602082015250565b7f4552433732313a20617070726f76656420717565727920666f72206e6f6e657860008201527f697374656e7420746f6b656e0000000000000000000000000000000000000000602082015250565b7f4f776e61626c653a2063616c6c6572206973206e6f7420746865206f776e6572600082015250565b7f4552433732313a207472616e73666572206f6620746f6b656e2074686174206960008201527f73206e6f74206f776e0000000000000000000000000000000000000000000000602082015250565b7f4552433732314d657461646174613a2055524920717565727920666f72206e6f60008201527f6e6578697374656e7420746f6b656e0000000000000000000000000000000000602082015250565b7f4552433732313a20617070726f76616c20746f2063757272656e74206f776e6560008201527f7200000000000000000000000000000000000000000000000000000000000000602082015250565b7f4552433732313a207472616e736665722063616c6c6572206973206e6f74206f60008201527f776e6572206e6f7220617070726f766564000000000000000000000000000000602082015250565b7f526573746f72653a20756e6b6e6f776e20746f6b656e00000000000000000000600082015250565b613e1f816135ca565b8114613e2a57600080fd5b50565b613e36816135dc565b8114613e4157600080fd5b50565b613e4d816135e8565b8114613e5857600080fd5b50565b613e6481613614565b8114613e6f57600080fd5b50565b613e7b81613646565b8114613e8657600080fd5b5056fea26469706673582212208cbe082069f02c6c51933f1b2f8265d574d6128d33cf628d9b85f7ed2ea5985d64736f6c63430008070033",
  "devdoc": {
    "kind": "dev",
    "methods": {
      "approve(address,uint256)": {
        "details": "See {IERC721-approve}."
      },
      "auctionable(uint256)": {
        "params": {
          "tokenId": "the tokenId to be checked for auction"
        }
      },
      "balanceOf(address)": {
        "details": "See {IERC721-balanceOf}."
      },
      "contractURI()": {
        "details": "Link to Contract metadata https://docs.opensea.io/docs/contract-level-metadata TODO: add contract metadata"
      },
      "freeze(address,uint256)": {
        "params": {
          "buyer": "address of winning bid",
          "tokenId": "index of the NFT bought in the auction"
        }
      },
      "getApproved(uint256)": {
        "details": "See {IERC721-getApproved}."
      },
      "mintForAuction(address,string)": {
        "details": "Safely mints a token to an address with a tokenURI.",
        "params": {
          "creator": "this will likely be pr1s0n.art, but may be others in the future. Included here for proper attribution.",
          "uri": "full URI to token metadata"
        }
      },
      "name()": {
        "details": "See {IERC721Metadata-name}."
      },
      "onERC721Received(address,address,uint256,bytes)": {
        "details": "See {IERC721Receiver-onERC721Received}. Always returns `IERC721Receiver.onERC721Received.selector`."
      },
      "owner()": {
        "details": "Returns the address of the current owner."
      },
      "ownerOf(uint256)": {
        "details": "See {IERC721-ownerOf}."
      },
      "renounceOwnership()": {
        "details": "Leaves the contract without owner. It will not be possible to call `onlyOwner` functions anymore. Can only be called by the current owner. NOTE: Renouncing ownership will leave the contract without an owner, thereby removing any functionality that is only available to the owner."
      },
      "royaltyInfo(uint256,uint256)": {
        "params": {
          "_tokenId": "- the NFT asset queried for royalty information",
          "_value": "- the sale price of the NFT asset specified by _tokenId"
        },
        "returns": {
          "receiver": "- address of who should be sent the royalty payment",
          "royaltyAmount": "- the royalty payment amount for value sale price"
        }
      },
      "safeTransferFrom(address,address,uint256)": {
        "details": "See {IERC721-safeTransferFrom}."
      },
      "safeTransferFrom(address,address,uint256,bytes)": {
        "details": "See {IERC721-safeTransferFrom}."
      },
      "setApprovalForAll(address,bool)": {
        "details": "See {IERC721-setApprovalForAll}."
      },
      "setJustice(address)": {
        "params": {
          "_justice": "the address of the justice contract"
        }
      },
      "setRoyalties(address,uint256)": {
        "params": {
          "recipient": "the royalties recipient - will always be pr1s0nart, for regulatory reasons.",
          "value": "royalties value (between 0 and 10000)"
        }
      },
      "symbol()": {
        "details": "See {IERC721Metadata-symbol}."
      },
      "tokenURI(uint256)": {
        "details": "See {IERC721Metadata-tokenURI}."
      },
      "transferFrom(address,address,uint256)": {
        "details": "See {IERC721-transferFrom}."
      },
      "transferOwnership(address)": {
        "details": "Transfers ownership of the contract to a new account (`newOwner`). Can only be called by the current owner."
      },
      "transferToBuyer(uint256,bytes)": {
        "params": {
          "data": "URI to receipt metadata that will be added to the NFT TODO: is it an issue that we store the receipt uri in bytes and the metadata uri above as a string?"
        }
      }
    },
    "version": 1
  },
  "userdoc": {
    "kind": "user",
    "methods": {
      "auctionable(uint256)": {
        "notice": "called by Justice to ensure that this token exists and can be auctioned before creating an auction"
      },
      "freeze(address,uint256)": {
        "notice": "called when an auction is settled, sets the frozenToken struct."
      },
      "isApprovedForAll(address,address)": {
        "notice": "Override isApprovedForAll to whitelist user's OpenSea proxy accounts to enable gas-less listings."
      },
      "mintForAuction(address,string)": {
        "notice": "this mints the NFT to this contract so that we can ensure only the buyer can receive the first transfer and         prove contractually that no-one else can."
      },
      "setJustice(address)": {
        "notice": "called by the owner to make sure the checks in freeze and transferToBuyer pass correctly"
      },
      "setRoyalties(address,uint256)": {
        "notice": "Set the royalties for the whole contract. Our intention is to set it to 10% in perpetuity."
      },
      "transferToBuyer(uint256,bytes)": {
        "notice": "sends 'frozen' NFT to the winning bidder by attaching the receipt. Protected only to ensure no random         data is uploaded on the transfer."
      }
    },
    "version": 1
  },
  "storageLayout": {
    "storage": [
      {
        "astId": 2206,
        "contract": "contracts/Restore.sol:Restore",
        "label": "_name",
        "offset": 0,
        "slot": "0",
        "type": "t_string_storage"
      },
      {
        "astId": 2208,
        "contract": "contracts/Restore.sol:Restore",
        "label": "_symbol",
        "offset": 0,
        "slot": "1",
        "type": "t_string_storage"
      },
      {
        "astId": 2212,
        "contract": "contracts/Restore.sol:Restore",
        "label": "_owners",
        "offset": 0,
        "slot": "2",
        "type": "t_mapping(t_uint256,t_address)"
      },
      {
        "astId": 2216,
        "contract": "contracts/Restore.sol:Restore",
        "label": "_balances",
        "offset": 0,
        "slot": "3",
        "type": "t_mapping(t_address,t_uint256)"
      },
      {
        "astId": 2220,
        "contract": "contracts/Restore.sol:Restore",
        "label": "_tokenApprovals",
        "offset": 0,
        "slot": "4",
        "type": "t_mapping(t_uint256,t_address)"
      },
      {
        "astId": 2226,
        "contract": "contracts/Restore.sol:Restore",
        "label": "_operatorApprovals",
        "offset": 0,
        "slot": "5",
        "type": "t_mapping(t_address,t_mapping(t_address,t_bool))"
      },
      {
        "astId": 3130,
        "contract": "contracts/Restore.sol:Restore",
        "label": "_tokenURIs",
        "offset": 0,
        "slot": "6",
        "type": "t_mapping(t_uint256,t_string_storage)"
      },
      {
        "astId": 2081,
        "contract": "contracts/Restore.sol:Restore",
        "label": "_royalties",
        "offset": 0,
        "slot": "7",
        "type": "t_struct(RoyaltyInfo)2157_storage"
      },
      {
        "astId": 2989,
        "contract": "contracts/Restore.sol:Restore",
        "label": "proxyRegistryAddress",
        "offset": 0,
        "slot": "8",
        "type": "t_address"
      },
      {
        "astId": 7,
        "contract": "contracts/Restore.sol:Restore",
        "label": "_owner",
        "offset": 0,
        "slot": "9",
        "type": "t_address"
      },
      {
        "astId": 1862,
        "contract": "contracts/Restore.sol:Restore",
        "label": "_tokenIdCounter",
        "offset": 0,
        "slot": "10",
        "type": "t_struct(Counter)930_storage"
      },
      {
        "astId": 1866,
        "contract": "contracts/Restore.sol:Restore",
        "label": "buyers",
        "offset": 0,
        "slot": "11",
        "type": "t_mapping(t_uint256,t_address)"
      },
      {
        "astId": 1868,
        "contract": "contracts/Restore.sol:Restore",
        "label": "justice",
        "offset": 0,
        "slot": "12",
        "type": "t_address"
      }
    ],
    "types": {
      "t_address": {
        "encoding": "inplace",
        "label": "address",
        "numberOfBytes": "20"
      },
      "t_bool": {
        "encoding": "inplace",
        "label": "bool",
        "numberOfBytes": "1"
      },
      "t_mapping(t_address,t_bool)": {
        "encoding": "mapping",
        "key": "t_address",
        "label": "mapping(address => bool)",
        "numberOfBytes": "32",
        "value": "t_bool"
      },
      "t_mapping(t_address,t_mapping(t_address,t_bool))": {
        "encoding": "mapping",
        "key": "t_address",
        "label": "mapping(address => mapping(address => bool))",
        "numberOfBytes": "32",
        "value": "t_mapping(t_address,t_bool)"
      },
      "t_mapping(t_address,t_uint256)": {
        "encoding": "mapping",
        "key": "t_address",
        "label": "mapping(address => uint256)",
        "numberOfBytes": "32",
        "value": "t_uint256"
      },
      "t_mapping(t_uint256,t_address)": {
        "encoding": "mapping",
        "key": "t_uint256",
        "label": "mapping(uint256 => address)",
        "numberOfBytes": "32",
        "value": "t_address"
      },
      "t_mapping(t_uint256,t_string_storage)": {
        "encoding": "mapping",
        "key": "t_uint256",
        "label": "mapping(uint256 => string)",
        "numberOfBytes": "32",
        "value": "t_string_storage"
      },
      "t_string_storage": {
        "encoding": "bytes",
        "label": "string",
        "numberOfBytes": "32"
      },
      "t_struct(Counter)930_storage": {
        "encoding": "inplace",
        "label": "struct Counters.Counter",
        "members": [
          {
            "astId": 929,
            "contract": "contracts/Restore.sol:Restore",
            "label": "_value",
            "offset": 0,
            "slot": "0",
            "type": "t_uint256"
          }
        ],
        "numberOfBytes": "32"
      },
      "t_struct(RoyaltyInfo)2157_storage": {
        "encoding": "inplace",
        "label": "struct ERC2981Royalties.RoyaltyInfo",
        "members": [
          {
            "astId": 2154,
            "contract": "contracts/Restore.sol:Restore",
            "label": "recipient",
            "offset": 0,
            "slot": "0",
            "type": "t_address"
          },
          {
            "astId": 2156,
            "contract": "contracts/Restore.sol:Restore",
            "label": "amount",
            "offset": 20,
            "slot": "0",
            "type": "t_uint24"
          }
        ],
        "numberOfBytes": "32"
      },
      "t_uint24": {
        "encoding": "inplace",
        "label": "uint24",
        "numberOfBytes": "3"
      },
      "t_uint256": {
        "encoding": "inplace",
        "label": "uint256",
        "numberOfBytes": "32"
      }
    }
  }
}