{
  "address": "0x9e3647eF0F85402110f9A54f99B32a00B66a4Fca",
  "abi": [
    {
      "inputs": [
        {
          "internalType": "address",
          "name": "_proxyRegistryAddress",
          "type": "address"
        }
      ],
      "stateMutability": "nonpayable",
      "type": "constructor"
    },
    {
      "anonymous": false,
      "inputs": [
        {
          "indexed": true,
          "internalType": "address",
          "name": "owner",
          "type": "address"
        },
        {
          "indexed": true,
          "internalType": "address",
          "name": "approved",
          "type": "address"
        },
        {
          "indexed": true,
          "internalType": "uint256",
          "name": "tokenId",
          "type": "uint256"
        }
      ],
      "name": "Approval",
      "type": "event"
    },
    {
      "anonymous": false,
      "inputs": [
        {
          "indexed": true,
          "internalType": "address",
          "name": "owner",
          "type": "address"
        },
        {
          "indexed": true,
          "internalType": "address",
          "name": "operator",
          "type": "address"
        },
        {
          "indexed": false,
          "internalType": "bool",
          "name": "approved",
          "type": "bool"
        }
      ],
      "name": "ApprovalForAll",
      "type": "event"
    },
    {
      "anonymous": false,
      "inputs": [
        {
          "indexed": false,
          "internalType": "address",
          "name": "buyer",
          "type": "address"
        },
        {
          "indexed": true,
          "internalType": "uint256",
          "name": "tokenId",
          "type": "uint256"
        }
      ],
      "name": "ArtFrozen",
      "type": "event"
    },
    {
      "anonymous": false,
      "inputs": [
        {
          "indexed": false,
          "internalType": "address",
          "name": "buyer",
          "type": "address"
        },
        {
          "indexed": true,
          "internalType": "uint256",
          "name": "tokenId",
          "type": "uint256"
        },
        {
          "indexed": false,
          "internalType": "bytes",
          "name": "data",
          "type": "bytes"
        }
      ],
      "name": "ArtTransferred",
      "type": "event"
    },
    {
      "anonymous": false,
      "inputs": [
        {
          "indexed": true,
          "internalType": "address",
          "name": "previousOwner",
          "type": "address"
        },
        {
          "indexed": true,
          "internalType": "address",
          "name": "newOwner",
          "type": "address"
        }
      ],
      "name": "OwnershipTransferred",
      "type": "event"
    },
    {
      "anonymous": false,
      "inputs": [
        {
          "indexed": false,
          "internalType": "uint256",
          "name": "tokenId",
          "type": "uint256"
        },
        {
          "indexed": false,
          "internalType": "string",
          "name": "uri",
          "type": "string"
        }
      ],
      "name": "ReadyForAuction",
      "type": "event"
    },
    {
      "anonymous": false,
      "inputs": [
        {
          "indexed": true,
          "internalType": "address",
          "name": "from",
          "type": "address"
        },
        {
          "indexed": true,
          "internalType": "address",
          "name": "to",
          "type": "address"
        },
        {
          "indexed": true,
          "internalType": "uint256",
          "name": "tokenId",
          "type": "uint256"
        }
      ],
      "name": "Transfer",
      "type": "event"
    },
    {
      "inputs": [
        {
          "internalType": "address",
          "name": "to",
          "type": "address"
        },
        {
          "internalType": "uint256",
          "name": "tokenId",
          "type": "uint256"
        }
      ],
      "name": "approve",
      "outputs": [],
      "stateMutability": "nonpayable",
      "type": "function"
    },
    {
      "inputs": [
        {
          "internalType": "address",
          "name": "owner",
          "type": "address"
        }
      ],
      "name": "balanceOf",
      "outputs": [
        {
          "internalType": "uint256",
          "name": "",
          "type": "uint256"
        }
      ],
      "stateMutability": "view",
      "type": "function"
    },
    {
      "inputs": [
        {
          "internalType": "uint256",
          "name": "tokenId",
          "type": "uint256"
        }
      ],
      "name": "burn",
      "outputs": [],
      "stateMutability": "nonpayable",
      "type": "function"
    },
    {
      "inputs": [],
      "name": "contractURI",
      "outputs": [
        {
          "internalType": "string",
          "name": "",
          "type": "string"
        }
      ],
      "stateMutability": "pure",
      "type": "function"
    },
    {
      "inputs": [
        {
          "internalType": "address",
          "name": "buyer",
          "type": "address"
        },
        {
          "internalType": "uint256",
          "name": "tokenId",
          "type": "uint256"
        }
      ],
      "name": "freeze",
      "outputs": [],
      "stateMutability": "nonpayable",
      "type": "function"
    },
    {
      "inputs": [
        {
          "internalType": "uint256",
          "name": "tokenId",
          "type": "uint256"
        }
      ],
      "name": "getApproved",
      "outputs": [
        {
          "internalType": "address",
          "name": "",
          "type": "address"
        }
      ],
      "stateMutability": "view",
      "type": "function"
    },
    {
      "inputs": [
        {
          "internalType": "address",
          "name": "owner",
          "type": "address"
        },
        {
          "internalType": "address",
          "name": "operator",
          "type": "address"
        }
      ],
      "name": "isApprovedForAll",
      "outputs": [
        {
          "internalType": "bool",
          "name": "",
          "type": "bool"
        }
      ],
      "stateMutability": "view",
      "type": "function"
    },
    {
      "inputs": [
        {
          "internalType": "address",
          "name": "creator",
          "type": "address"
        },
        {
          "internalType": "string",
          "name": "uri",
          "type": "string"
        }
      ],
      "name": "mintForAuction",
      "outputs": [
        {
          "internalType": "uint256",
          "name": "tokenId",
          "type": "uint256"
        }
      ],
      "stateMutability": "nonpayable",
      "type": "function"
    },
    {
      "inputs": [],
      "name": "name",
      "outputs": [
        {
          "internalType": "string",
          "name": "",
          "type": "string"
        }
      ],
      "stateMutability": "view",
      "type": "function"
    },
    {
      "inputs": [
        {
          "internalType": "address",
          "name": "",
          "type": "address"
        },
        {
          "internalType": "address",
          "name": "",
          "type": "address"
        },
        {
          "internalType": "uint256",
          "name": "",
          "type": "uint256"
        },
        {
          "internalType": "bytes",
          "name": "",
          "type": "bytes"
        }
      ],
      "name": "onERC721Received",
      "outputs": [
        {
          "internalType": "bytes4",
          "name": "",
          "type": "bytes4"
        }
      ],
      "stateMutability": "nonpayable",
      "type": "function"
    },
    {
      "inputs": [],
      "name": "owner",
      "outputs": [
        {
          "internalType": "address",
          "name": "",
          "type": "address"
        }
      ],
      "stateMutability": "view",
      "type": "function"
    },
    {
      "inputs": [
        {
          "internalType": "uint256",
          "name": "tokenId",
          "type": "uint256"
        }
      ],
      "name": "ownerOf",
      "outputs": [
        {
          "internalType": "address",
          "name": "",
          "type": "address"
        }
      ],
      "stateMutability": "view",
      "type": "function"
    },
    {
      "inputs": [],
      "name": "renounceOwnership",
      "outputs": [],
      "stateMutability": "nonpayable",
      "type": "function"
    },
    {
      "inputs": [
        {
          "internalType": "uint256",
          "name": "tokenId",
          "type": "uint256"
        },
        {
          "internalType": "bytes",
          "name": "data",
          "type": "bytes"
        }
      ],
      "name": "returnToPA",
      "outputs": [],
      "stateMutability": "nonpayable",
      "type": "function"
    },
    {
      "inputs": [
        {
          "internalType": "uint256",
          "name": "",
          "type": "uint256"
        },
        {
          "internalType": "uint256",
          "name": "value",
          "type": "uint256"
        }
      ],
      "name": "royaltyInfo",
      "outputs": [
        {
          "internalType": "address",
          "name": "receiver",
          "type": "address"
        },
        {
          "internalType": "uint256",
          "name": "royaltyAmount",
          "type": "uint256"
        }
      ],
      "stateMutability": "view",
      "type": "function"
    },
    {
      "inputs": [
        {
          "internalType": "address",
          "name": "from",
          "type": "address"
        },
        {
          "internalType": "address",
          "name": "to",
          "type": "address"
        },
        {
          "internalType": "uint256",
          "name": "tokenId",
          "type": "uint256"
        }
      ],
      "name": "safeTransferFrom",
      "outputs": [],
      "stateMutability": "nonpayable",
      "type": "function"
    },
    {
      "inputs": [
        {
          "internalType": "address",
          "name": "from",
          "type": "address"
        },
        {
          "internalType": "address",
          "name": "to",
          "type": "address"
        },
        {
          "internalType": "uint256",
          "name": "tokenId",
          "type": "uint256"
        },
        {
          "internalType": "bytes",
          "name": "_data",
          "type": "bytes"
        }
      ],
      "name": "safeTransferFrom",
      "outputs": [],
      "stateMutability": "nonpayable",
      "type": "function"
    },
    {
      "inputs": [
        {
          "internalType": "address",
          "name": "operator",
          "type": "address"
        },
        {
          "internalType": "bool",
          "name": "approved",
          "type": "bool"
        }
      ],
      "name": "setApprovalForAll",
      "outputs": [],
      "stateMutability": "nonpayable",
      "type": "function"
    },
    {
      "inputs": [
        {
          "internalType": "address",
          "name": "recipient",
          "type": "address"
        },
        {
          "internalType": "uint256",
          "name": "value",
          "type": "uint256"
        }
      ],
      "name": "setRoyalties",
      "outputs": [],
      "stateMutability": "nonpayable",
      "type": "function"
    },
    {
      "inputs": [
        {
          "internalType": "bytes4",
          "name": "interfaceId",
          "type": "bytes4"
        }
      ],
      "name": "supportsInterface",
      "outputs": [
        {
          "internalType": "bool",
          "name": "",
          "type": "bool"
        }
      ],
      "stateMutability": "view",
      "type": "function"
    },
    {
      "inputs": [],
      "name": "symbol",
      "outputs": [
        {
          "internalType": "string",
          "name": "",
          "type": "string"
        }
      ],
      "stateMutability": "view",
      "type": "function"
    },
    {
      "inputs": [
        {
          "internalType": "uint256",
          "name": "index",
          "type": "uint256"
        }
      ],
      "name": "tokenByIndex",
      "outputs": [
        {
          "internalType": "uint256",
          "name": "",
          "type": "uint256"
        }
      ],
      "stateMutability": "view",
      "type": "function"
    },
    {
      "inputs": [
        {
          "internalType": "address",
          "name": "owner",
          "type": "address"
        },
        {
          "internalType": "uint256",
          "name": "index",
          "type": "uint256"
        }
      ],
      "name": "tokenOfOwnerByIndex",
      "outputs": [
        {
          "internalType": "uint256",
          "name": "",
          "type": "uint256"
        }
      ],
      "stateMutability": "view",
      "type": "function"
    },
    {
      "inputs": [
        {
          "internalType": "uint256",
          "name": "tokenId",
          "type": "uint256"
        }
      ],
      "name": "tokenURI",
      "outputs": [
        {
          "internalType": "string",
          "name": "",
          "type": "string"
        }
      ],
      "stateMutability": "view",
      "type": "function"
    },
    {
      "inputs": [],
      "name": "totalSupply",
      "outputs": [
        {
          "internalType": "uint256",
          "name": "",
          "type": "uint256"
        }
      ],
      "stateMutability": "view",
      "type": "function"
    },
    {
      "inputs": [
        {
          "internalType": "address",
          "name": "from",
          "type": "address"
        },
        {
          "internalType": "address",
          "name": "to",
          "type": "address"
        },
        {
          "internalType": "uint256",
          "name": "tokenId",
          "type": "uint256"
        }
      ],
      "name": "transferFrom",
      "outputs": [],
      "stateMutability": "nonpayable",
      "type": "function"
    },
    {
      "inputs": [
        {
          "internalType": "address",
          "name": "newOwner",
          "type": "address"
        }
      ],
      "name": "transferOwnership",
      "outputs": [],
      "stateMutability": "nonpayable",
      "type": "function"
    },
    {
      "inputs": [
        {
          "internalType": "uint256",
          "name": "tokenId",
          "type": "uint256"
        },
        {
          "internalType": "bytes",
          "name": "data",
          "type": "bytes"
        }
      ],
      "name": "transferToBuyer",
      "outputs": [],
      "stateMutability": "nonpayable",
      "type": "function"
    }
  ],
  "transactionHash": "0x5cc067b1a4d3362940d477d8eff548cbfb252ffed4ad91b4ac599f601aa3bb1a",
  "args": [
    "0xf57b2c51ded3a29e6891aba85459d600256cf317"
  ],
  "numDeployments": 1,
  "solcInputHash": "dd6b6444cfb2e28c873f37a804bab0cb",
  "bytecode": "0x60806040523480156200001157600080fd5b5060405162004c1338038062004c1383398181016040528101906200003791906200032d565b6040518060400160405280600781526020017f526573746f7265000000000000000000000000000000000000000000000000008152506040518060400160405280600481526020017f52455354000000000000000000000000000000000000000000000000000000008152508282828160009080519060200190620000be92919062000213565b508060019080519060200190620000d792919062000213565b50505080600c60006101000a81548173ffffffffffffffffffffffffffffffffffffffff021916908373ffffffffffffffffffffffffffffffffffffffff1602179055505050506200013e620001326200014560201b60201c565b6200014d60201b60201c565b50620003c4565b600033905090565b6000600d60009054906101000a900473ffffffffffffffffffffffffffffffffffffffff16905081600d60006101000a81548173ffffffffffffffffffffffffffffffffffffffff021916908373ffffffffffffffffffffffffffffffffffffffff1602179055508173ffffffffffffffffffffffffffffffffffffffff168173ffffffffffffffffffffffffffffffffffffffff167f8be0079c531659141344cd1fd0a4f28419497f9722a3daafe3b4186f6b6457e060405160405180910390a35050565b82805462000221906200038e565b90600052602060002090601f01602090048101928262000245576000855562000291565b82601f106200026057805160ff191683800117855562000291565b8280016001018555821562000291579182015b828111156200029057825182559160200191906001019062000273565b5b509050620002a09190620002a4565b5090565b5b80821115620002bf576000816000905550600101620002a5565b5090565b600080fd5b600073ffffffffffffffffffffffffffffffffffffffff82169050919050565b6000620002f582620002c8565b9050919050565b6200030781620002e8565b81146200031357600080fd5b50565b6000815190506200032781620002fc565b92915050565b600060208284031215620003465762000345620002c3565b5b6000620003568482850162000316565b91505092915050565b7f4e487b7100000000000000000000000000000000000000000000000000000000600052602260045260246000fd5b60006002820490506001821680620003a757607f821691505b60208210811415620003be57620003bd6200035f565b5b50919050565b61483f80620003d46000396000f3fe608060405234801561001057600080fd5b50600436106101c45760003560e01c80634f6ccce7116100f9578063a22cb46511610097578063dd9e533811610071578063dd9e533814610528578063e8a3d48514610544578063e985e9c514610562578063f2fde38b14610592576101c4565b8063a22cb465146104c0578063b88d4fde146104dc578063c87b56dd146104f8576101c4565b8063715018a6116100d3578063715018a61461045e5780638c7ea24b146104685780638da5cb5b1461048457806395d89b41146104a2576101c4565b80634f6ccce7146103ce5780636352211e146103fe57806370a082311461042e576101c4565b8063245d61a6116101665780632f745c59116101405780632f745c591461033657806342842e0e1461036657806342966c68146103825780634cc96fd51461039e576101c4565b8063245d61a6146102cd57806324bce60c146102e95780632a55205a14610305576101c4565b8063095ea7b3116101a2578063095ea7b314610247578063150b7a021461026357806318160ddd1461029357806323b872dd146102b1576101c4565b806301ffc9a7146101c957806306fdde03146101f9578063081812fc14610217575b600080fd5b6101e360048036038101906101de9190612f1a565b6105ae565b6040516101f09190612f62565b60405180910390f35b6102016105c0565b60405161020e9190613016565b60405180910390f35b610231600480360381019061022c919061306e565b610652565b60405161023e91906130dc565b60405180910390f35b610261600480360381019061025c9190613123565b6106d7565b005b61027d60048036038101906102789190613298565b6107ef565b60405161028a919061332a565b60405180910390f35b61029b610803565b6040516102a89190613354565b60405180910390f35b6102cb60048036038101906102c6919061336f565b610810565b005b6102e760048036038101906102e291906133c2565b610870565b005b61030360048036038101906102fe9190613123565b61099c565b005b61031f600480360381019061031a919061341e565b610ac2565b60405161032d92919061345e565b60405180910390f35b610350600480360381019061034b9190613123565b610b82565b60405161035d9190613354565b60405180910390f35b610380600480360381019061037b919061336f565b610c27565b005b61039c6004803603810190610397919061306e565b610c47565b005b6103b860048036038101906103b39190613528565b610ca3565b6040516103c59190613354565b60405180910390f35b6103e860048036038101906103e3919061306e565b610dd4565b6040516103f59190613354565b60405180910390f35b6104186004803603810190610413919061306e565b610e45565b60405161042591906130dc565b60405180910390f35b61044860048036038101906104439190613584565b610ef7565b6040516104559190613354565b60405180910390f35b610466610faf565b005b610482600480360381019061047d9190613123565b611037565b005b61048c6110c1565b60405161049991906130dc565b60405180910390f35b6104aa6110eb565b6040516104b79190613016565b60405180910390f35b6104da60048036038101906104d591906135dd565b61117d565b005b6104f660048036038101906104f19190613298565b6112fe565b005b610512600480360381019061050d919061306e565b611360565b60405161051f9190613016565b60405180910390f35b610542600480360381019061053d91906133c2565b611372565b005b61054c611462565b6040516105599190613016565b60405180910390f35b61057c6004803603810190610577919061361d565b61149f565b6040516105899190612f62565b60405180910390f35b6105ac60048036038101906105a79190613584565b611592565b005b60006105b98261168a565b9050919050565b6060600080546105cf9061368c565b80601f01602080910402602001604051908101604052809291908181526020018280546105fb9061368c565b80156106485780601f1061061d57610100808354040283529160200191610648565b820191906000526020600020905b81548152906001019060200180831161062b57829003601f168201915b5050505050905090565b600061065d82611704565b61069c576040517f08c379a000000000000000000000000000000000000000000000000000000000815260040161069390613730565b60405180910390fd5b6004600083815260200190815260200160002060009054906101000a900473ffffffffffffffffffffffffffffffffffffffff169050919050565b60006106e282610e45565b90508073ffffffffffffffffffffffffffffffffffffffff168373ffffffffffffffffffffffffffffffffffffffff161415610753576040517f08c379a000000000000000000000000000000000000000000000000000000000815260040161074a906137c2565b60405180910390fd5b8073ffffffffffffffffffffffffffffffffffffffff16610772611770565b73ffffffffffffffffffffffffffffffffffffffff1614806107a157506107a08161079b611770565b61149f565b5b6107e0576040517f08c379a00000000000000000000000000000000000000000000000000000000081526004016107d790613854565b60405180910390fd5b6107ea8383611778565b505050565b600063150b7a0260e01b9050949350505050565b6000600880549050905090565b61082161081b611770565b82611831565b610860576040517f08c379a0000000000000000000000000000000000000000000000000000000008152600401610857906138e6565b60405180910390fd5b61086b83838361190f565b505050565b610878611770565b73ffffffffffffffffffffffffffffffffffffffff166108966110c1565b73ffffffffffffffffffffffffffffffffffffffff16146108ec576040517f08c379a00000000000000000000000000000000000000000000000000000000081526004016108e390613952565b60405180910390fd5b61092b30600f600085815260200190815260200160002060009054906101000a900473ffffffffffffffffffffffffffffffffffffffff168484611b6b565b817f2100d6eaadb9162c3c47b8c058cd6340e944f932331f8ae70c91f7cf45929014600f600085815260200190815260200160002060009054906101000a900473ffffffffffffffffffffffffffffffffffffffff16836040516109909291906139c7565b60405180910390a25050565b6109a46110c1565b73ffffffffffffffffffffffffffffffffffffffff163273ffffffffffffffffffffffffffffffffffffffff161480156109f5575060003373ffffffffffffffffffffffffffffffffffffffff163b115b610a34576040517f08c379a0000000000000000000000000000000000000000000000000000000008152600401610a2b90613a69565b60405180910390fd5b81600f600083815260200190815260200160002060006101000a81548173ffffffffffffffffffffffffffffffffffffffff021916908373ffffffffffffffffffffffffffffffffffffffff160217905550807f9a90b690b283d5b728bf75802cfe38a25c3a9121fa2c9a1a9b98e977f0910b9c83604051610ab691906130dc565b60405180910390a25050565b6000806000600b6040518060400160405290816000820160009054906101000a900473ffffffffffffffffffffffffffffffffffffffff1673ffffffffffffffffffffffffffffffffffffffff1673ffffffffffffffffffffffffffffffffffffffff1681526020016000820160149054906101000a900462ffffff1662ffffff1662ffffff1681525050905080600001519250612710816020015162ffffff1685610b6e9190613ab8565b610b789190613b41565b9150509250929050565b6000610b8d83610ef7565b8210610bce576040517f08c379a0000000000000000000000000000000000000000000000000000000008152600401610bc590613be4565b60405180910390fd5b600660008473ffffffffffffffffffffffffffffffffffffffff1673ffffffffffffffffffffffffffffffffffffffff168152602001908152602001600020600083815260200190815260200160002054905092915050565b610c42838383604051806020016040528060008152506112fe565b505050565b610c58610c52611770565b82611831565b610c97576040517f08c379a0000000000000000000000000000000000000000000000000000000008152600401610c8e90613c76565b60405180910390fd5b610ca081611bc7565b50565b6000610cad611770565b73ffffffffffffffffffffffffffffffffffffffff16610ccb6110c1565b73ffffffffffffffffffffffffffffffffffffffff1614610d21576040517f08c379a0000000000000000000000000000000000000000000000000000000008152600401610d1890613952565b60405180910390fd5b6000610d2d600e611bd3565b9050610d3a843083611be1565b610d7c846000836040518060400160405280601b81526020017f4e657720746f6b656e20726561647920666f722061756374696f6e00000000008152506107ef565b50610d878184611c01565b610d91600e611c75565b7f2c6a061a1a051fe651ede56bbd822b27997fdaa0e25ad6225d65ae6c73cfd0468184604051610dc2929190613c96565b60405180910390a18091505092915050565b6000610dde610803565b8210610e1f576040517f08c379a0000000000000000000000000000000000000000000000000000000008152600401610e1690613d38565b60405180910390fd5b60088281548110610e3357610e32613d58565b5b90600052602060002001549050919050565b6000806002600084815260200190815260200160002060009054906101000a900473ffffffffffffffffffffffffffffffffffffffff169050600073ffffffffffffffffffffffffffffffffffffffff168173ffffffffffffffffffffffffffffffffffffffff161415610eee576040517f08c379a0000000000000000000000000000000000000000000000000000000008152600401610ee590613df9565b60405180910390fd5b80915050919050565b60008073ffffffffffffffffffffffffffffffffffffffff168273ffffffffffffffffffffffffffffffffffffffff161415610f68576040517f08c379a0000000000000000000000000000000000000000000000000000000008152600401610f5f90613e8b565b60405180910390fd5b600360008373ffffffffffffffffffffffffffffffffffffffff1673ffffffffffffffffffffffffffffffffffffffff168152602001908152602001600020549050919050565b610fb7611770565b73ffffffffffffffffffffffffffffffffffffffff16610fd56110c1565b73ffffffffffffffffffffffffffffffffffffffff161461102b576040517f08c379a000000000000000000000000000000000000000000000000000000000815260040161102290613952565b60405180910390fd5b6110356000611c8b565b565b61103f611770565b73ffffffffffffffffffffffffffffffffffffffff1661105d6110c1565b73ffffffffffffffffffffffffffffffffffffffff16146110b3576040517f08c379a00000000000000000000000000000000000000000000000000000000081526004016110aa90613952565b60405180910390fd5b6110bd8282611d51565b5050565b6000600d60009054906101000a900473ffffffffffffffffffffffffffffffffffffffff16905090565b6060600180546110fa9061368c565b80601f01602080910402602001604051908101604052809291908181526020018280546111269061368c565b80156111735780601f1061114857610100808354040283529160200191611173565b820191906000526020600020905b81548152906001019060200180831161115657829003601f168201915b5050505050905090565b611185611770565b73ffffffffffffffffffffffffffffffffffffffff168273ffffffffffffffffffffffffffffffffffffffff1614156111f3576040517f08c379a00000000000000000000000000000000000000000000000000000000081526004016111ea90613ef7565b60405180910390fd5b8060056000611200611770565b73ffffffffffffffffffffffffffffffffffffffff1673ffffffffffffffffffffffffffffffffffffffff16815260200190815260200160002060008473ffffffffffffffffffffffffffffffffffffffff1673ffffffffffffffffffffffffffffffffffffffff16815260200190815260200160002060006101000a81548160ff0219169083151502179055508173ffffffffffffffffffffffffffffffffffffffff166112ad611770565b73ffffffffffffffffffffffffffffffffffffffff167f17307eab39ab6107e8899845ad3d59bd9653f200f220920489ca2b5937696c31836040516112f29190612f62565b60405180910390a35050565b61130f611309611770565b83611831565b61134e576040517f08c379a0000000000000000000000000000000000000000000000000000000008152600401611345906138e6565b60405180910390fd5b61135a84848484611b6b565b50505050565b606061136b82611e3b565b9050919050565b61137a6110c1565b73ffffffffffffffffffffffffffffffffffffffff163273ffffffffffffffffffffffffffffffffffffffff161480156113cb575060003373ffffffffffffffffffffffffffffffffffffffff163b115b61140a576040517f08c379a000000000000000000000000000000000000000000000000000000000815260040161140190613f89565b60405180910390fd5b61141d306114166110c1565b8484611b6b565b817f2100d6eaadb9162c3c47b8c058cd6340e944f932331f8ae70c91f7cf459290146114476110c1565b836040516114569291906139c7565b60405180910390a25050565b60606040518060400160405280601481526020017f68747470733a2f2f617277656176652e6e65742f000000000000000000000000815250905090565b600080600c60009054906101000a900473ffffffffffffffffffffffffffffffffffffffff1690508273ffffffffffffffffffffffffffffffffffffffff168173ffffffffffffffffffffffffffffffffffffffff1663c4552791866040518263ffffffff1660e01b815260040161151791906130dc565b602060405180830381865afa158015611534573d6000803e3d6000fd5b505050506040513d601f19601f820116820180604052508101906115589190613fe7565b73ffffffffffffffffffffffffffffffffffffffff16141561157e57600191505061158c565b6115888484611f8d565b9150505b92915050565b61159a611770565b73ffffffffffffffffffffffffffffffffffffffff166115b86110c1565b73ffffffffffffffffffffffffffffffffffffffff161461160e576040517f08c379a000000000000000000000000000000000000000000000000000000000815260040161160590613952565b60405180910390fd5b600073ffffffffffffffffffffffffffffffffffffffff168173ffffffffffffffffffffffffffffffffffffffff16141561167e576040517f08c379a000000000000000000000000000000000000000000000000000000000815260040161167590614086565b60405180910390fd5b61168781611c8b565b50565b60007f2a55205a000000000000000000000000000000000000000000000000000000007bffffffffffffffffffffffffffffffffffffffffffffffffffffffff1916827bffffffffffffffffffffffffffffffffffffffffffffffffffffffff191614806116fd57506116fc82612021565b5b9050919050565b60008073ffffffffffffffffffffffffffffffffffffffff166002600084815260200190815260200160002060009054906101000a900473ffffffffffffffffffffffffffffffffffffffff1673ffffffffffffffffffffffffffffffffffffffff1614159050919050565b600033905090565b816004600083815260200190815260200160002060006101000a81548173ffffffffffffffffffffffffffffffffffffffff021916908373ffffffffffffffffffffffffffffffffffffffff160217905550808273ffffffffffffffffffffffffffffffffffffffff166117eb83610e45565b73ffffffffffffffffffffffffffffffffffffffff167f8c5be1e5ebec7d5bd14f71427d1e84f3dd0314c0f7b2291e5b200ac8c7c3b92560405160405180910390a45050565b600061183c82611704565b61187b576040517f08c379a000000000000000000000000000000000000000000000000000000000815260040161187290614118565b60405180910390fd5b600061188683610e45565b90508073ffffffffffffffffffffffffffffffffffffffff168473ffffffffffffffffffffffffffffffffffffffff1614806118f557508373ffffffffffffffffffffffffffffffffffffffff166118dd84610652565b73ffffffffffffffffffffffffffffffffffffffff16145b806119065750611905818561149f565b5b91505092915050565b8273ffffffffffffffffffffffffffffffffffffffff1661192f82610e45565b73ffffffffffffffffffffffffffffffffffffffff1614611985576040517f08c379a000000000000000000000000000000000000000000000000000000000815260040161197c906141aa565b60405180910390fd5b600073ffffffffffffffffffffffffffffffffffffffff168273ffffffffffffffffffffffffffffffffffffffff1614156119f5576040517f08c379a00000000000000000000000000000000000000000000000000000000081526004016119ec9061423c565b60405180910390fd5b611a0083838361209b565b611a0b600082611778565b6001600360008573ffffffffffffffffffffffffffffffffffffffff1673ffffffffffffffffffffffffffffffffffffffff1681526020019081526020016000206000828254611a5b919061425c565b925050819055506001600360008473ffffffffffffffffffffffffffffffffffffffff1673ffffffffffffffffffffffffffffffffffffffff1681526020019081526020016000206000828254611ab29190614290565b92505081905550816002600083815260200190815260200160002060006101000a81548173ffffffffffffffffffffffffffffffffffffffff021916908373ffffffffffffffffffffffffffffffffffffffff160217905550808273ffffffffffffffffffffffffffffffffffffffff168473ffffffffffffffffffffffffffffffffffffffff167fddf252ad1be2c89b69c2b068fc378daa952ba7f163c4a11628f55a4df523b3ef60405160405180910390a4505050565b611b7684848461190f565b611b82848484846120ab565b611bc1576040517f08c379a0000000000000000000000000000000000000000000000000000000008152600401611bb890614358565b60405180910390fd5b50505050565b611bd081612233565b50565b600081600001549050919050565b611bfc83838360405180602001604052806000815250612286565b505050565b611c0a82611704565b611c49576040517f08c379a0000000000000000000000000000000000000000000000000000000008152600401611c40906143ea565b60405180910390fd5b80600a60008481526020019081526020016000209080519060200190611c70929190612dcb565b505050565b6001816000016000828254019250508190555050565b6000600d60009054906101000a900473ffffffffffffffffffffffffffffffffffffffff16905081600d60006101000a81548173ffffffffffffffffffffffffffffffffffffffff021916908373ffffffffffffffffffffffffffffffffffffffff1602179055508173ffffffffffffffffffffffffffffffffffffffff168173ffffffffffffffffffffffffffffffffffffffff167f8be0079c531659141344cd1fd0a4f28419497f9722a3daafe3b4186f6b6457e060405160405180910390a35050565b612710811115611d96576040517f08c379a0000000000000000000000000000000000000000000000000000000008152600401611d8d90614456565b60405180910390fd5b60405180604001604052808373ffffffffffffffffffffffffffffffffffffffff1681526020018262ffffff16815250600b60008201518160000160006101000a81548173ffffffffffffffffffffffffffffffffffffffff021916908373ffffffffffffffffffffffffffffffffffffffff16021790555060208201518160000160146101000a81548162ffffff021916908362ffffff1602179055509050505050565b6060611e4682611704565b611e85576040517f08c379a0000000000000000000000000000000000000000000000000000000008152600401611e7c906144e8565b60405180910390fd5b6000600a60008481526020019081526020016000208054611ea59061368c565b80601f0160208091040260200160405190810160405280929190818152602001828054611ed19061368c565b8015611f1e5780601f10611ef357610100808354040283529160200191611f1e565b820191906000526020600020905b815481529060010190602001808311611f0157829003601f168201915b505050505090506000611f2f6122e3565b9050600081511415611f45578192505050611f88565b600082511115611f7a578082604051602001611f62929190614544565b60405160208183030381529060405292505050611f88565b611f83846122fa565b925050505b919050565b6000600560008473ffffffffffffffffffffffffffffffffffffffff1673ffffffffffffffffffffffffffffffffffffffff16815260200190815260200160002060008373ffffffffffffffffffffffffffffffffffffffff1673ffffffffffffffffffffffffffffffffffffffff16815260200190815260200160002060009054906101000a900460ff16905092915050565b60007f780e9d63000000000000000000000000000000000000000000000000000000007bffffffffffffffffffffffffffffffffffffffffffffffffffffffff1916827bffffffffffffffffffffffffffffffffffffffffffffffffffffffff191614806120945750612093826123a1565b5b9050919050565b6120a6838383612483565b505050565b60006120cc8473ffffffffffffffffffffffffffffffffffffffff16612597565b15612226578373ffffffffffffffffffffffffffffffffffffffff1663150b7a026120f5611770565b8786866040518563ffffffff1660e01b81526004016121179493929190614568565b6020604051808303816000875af192505050801561215357506040513d601f19601f8201168201806040525081019061215091906145c9565b60015b6121d6573d8060008114612183576040519150601f19603f3d011682016040523d82523d6000602084013e612188565b606091505b506000815114156121ce576040517f08c379a00000000000000000000000000000000000000000000000000000000081526004016121c590614358565b60405180910390fd5b805181602001fd5b63150b7a0260e01b7bffffffffffffffffffffffffffffffffffffffffffffffffffffffff1916817bffffffffffffffffffffffffffffffffffffffffffffffffffffffff19161491505061222b565b600190505b949350505050565b61223c816125ba565b6000600a6000838152602001908152602001600020805461225c9061368c565b90501461228357600a600082815260200190815260200160002060006122829190612e51565b5b50565b6122918484846126cb565b61229e60008484846120ab565b6122dd576040517f08c379a00000000000000000000000000000000000000000000000000000000081526004016122d490614358565b60405180910390fd5b50505050565b606060405180602001604052806000815250905090565b606061230582611704565b612344576040517f08c379a000000000000000000000000000000000000000000000000000000000815260040161233b90614668565b60405180910390fd5b600061234e6122e3565b9050600081511161236e5760405180602001604052806000815250612399565b80612378846128f5565b604051602001612389929190614544565b6040516020818303038152906040525b915050919050565b60007f80ac58cd000000000000000000000000000000000000000000000000000000007bffffffffffffffffffffffffffffffffffffffffffffffffffffffff1916827bffffffffffffffffffffffffffffffffffffffffffffffffffffffff1916148061246c57507f5b5e139f000000000000000000000000000000000000000000000000000000007bffffffffffffffffffffffffffffffffffffffffffffffffffffffff1916827bffffffffffffffffffffffffffffffffffffffffffffffffffffffff1916145b8061247c575061247b82612a56565b5b9050919050565b61248e838383612ac0565b600073ffffffffffffffffffffffffffffffffffffffff168373ffffffffffffffffffffffffffffffffffffffff1614156124d1576124cc81612ac5565b612510565b8173ffffffffffffffffffffffffffffffffffffffff168373ffffffffffffffffffffffffffffffffffffffff161461250f5761250e8382612b0e565b5b5b600073ffffffffffffffffffffffffffffffffffffffff168273ffffffffffffffffffffffffffffffffffffffff1614156125535761254e81612c7b565b612592565b8273ffffffffffffffffffffffffffffffffffffffff168273ffffffffffffffffffffffffffffffffffffffff1614612591576125908282612d4c565b5b5b505050565b6000808273ffffffffffffffffffffffffffffffffffffffff163b119050919050565b60006125c582610e45565b90506125d38160008461209b565b6125de600083611778565b6001600360008373ffffffffffffffffffffffffffffffffffffffff1673ffffffffffffffffffffffffffffffffffffffff168152602001908152602001600020600082825461262e919061425c565b925050819055506002600083815260200190815260200160002060006101000a81549073ffffffffffffffffffffffffffffffffffffffff021916905581600073ffffffffffffffffffffffffffffffffffffffff168273ffffffffffffffffffffffffffffffffffffffff167fddf252ad1be2c89b69c2b068fc378daa952ba7f163c4a11628f55a4df523b3ef60405160405180910390a45050565b600073ffffffffffffffffffffffffffffffffffffffff168273ffffffffffffffffffffffffffffffffffffffff16141561273b576040517f08c379a0000000000000000000000000000000000000000000000000000000008152600401612732906146d4565b60405180910390fd5b61274481611704565b15612784576040517f08c379a000000000000000000000000000000000000000000000000000000000815260040161277b90614740565b60405180910390fd5b6127906000838361209b565b6001600360008473ffffffffffffffffffffffffffffffffffffffff1673ffffffffffffffffffffffffffffffffffffffff16815260200190815260200160002060008282546127e09190614290565b92505081905550816002600083815260200190815260200160002060006101000a81548173ffffffffffffffffffffffffffffffffffffffff021916908373ffffffffffffffffffffffffffffffffffffffff160217905550808373ffffffffffffffffffffffffffffffffffffffff16600073ffffffffffffffffffffffffffffffffffffffff167fddf252ad1be2c89b69c2b068fc378daa952ba7f163c4a11628f55a4df523b3ef60405160405180910390a4808273ffffffffffffffffffffffffffffffffffffffff168473ffffffffffffffffffffffffffffffffffffffff167fddf252ad1be2c89b69c2b068fc378daa952ba7f163c4a11628f55a4df523b3ef60405160405180910390a4505050565b6060600082141561293d576040518060400160405280600181526020017f30000000000000000000000000000000000000000000000000000000000000008152509050612a51565b600082905060005b6000821461296f57808061295890614760565b915050600a826129689190613b41565b9150612945565b60008167ffffffffffffffff81111561298b5761298a61316d565b5b6040519080825280601f01601f1916602001820160405280156129bd5781602001600182028036833780820191505090505b5090505b60008514612a4a576001826129d6919061425c565b9150600a856129e591906147a9565b60306129f19190614290565b60f81b818381518110612a0757612a06613d58565b5b60200101907effffffffffffffffffffffffffffffffffffffffffffffffffffffffffffff1916908160001a905350600a85612a439190613b41565b94506129c1565b8093505050505b919050565b60007f01ffc9a7000000000000000000000000000000000000000000000000000000007bffffffffffffffffffffffffffffffffffffffffffffffffffffffff1916827bffffffffffffffffffffffffffffffffffffffffffffffffffffffff1916149050919050565b505050565b6008805490506009600083815260200190815260200160002081905550600881908060018154018082558091505060019003906000526020600020016000909190919091505550565b60006001612b1b84610ef7565b612b25919061425c565b9050600060076000848152602001908152602001600020549050818114612c0a576000600660008673ffffffffffffffffffffffffffffffffffffffff1673ffffffffffffffffffffffffffffffffffffffff168152602001908152602001600020600084815260200190815260200160002054905080600660008773ffffffffffffffffffffffffffffffffffffffff1673ffffffffffffffffffffffffffffffffffffffff168152602001908152602001600020600084815260200190815260200160002081905550816007600083815260200190815260200160002081905550505b6007600084815260200190815260200160002060009055600660008573ffffffffffffffffffffffffffffffffffffffff1673ffffffffffffffffffffffffffffffffffffffff16815260200190815260200160002060008381526020019081526020016000206000905550505050565b60006001600880549050612c8f919061425c565b9050600060096000848152602001908152602001600020549050600060088381548110612cbf57612cbe613d58565b5b906000526020600020015490508060088381548110612ce157612ce0613d58565b5b906000526020600020018190555081600960008381526020019081526020016000208190555060096000858152602001908152602001600020600090556008805480612d3057612d2f6147da565b5b6001900381819060005260206000200160009055905550505050565b6000612d5783610ef7565b905081600660008573ffffffffffffffffffffffffffffffffffffffff1673ffffffffffffffffffffffffffffffffffffffff168152602001908152602001600020600083815260200190815260200160002081905550806007600084815260200190815260200160002081905550505050565b828054612dd79061368c565b90600052602060002090601f016020900481019282612df95760008555612e40565b82601f10612e1257805160ff1916838001178555612e40565b82800160010185558215612e40579182015b82811115612e3f578251825591602001919060010190612e24565b5b509050612e4d9190612e91565b5090565b508054612e5d9061368c565b6000825580601f10612e6f5750612e8e565b601f016020900490600052602060002090810190612e8d9190612e91565b5b50565b5b80821115612eaa576000816000905550600101612e92565b5090565b6000604051905090565b600080fd5b600080fd5b60007fffffffff0000000000000000000000000000000000000000000000000000000082169050919050565b612ef781612ec2565b8114612f0257600080fd5b50565b600081359050612f1481612eee565b92915050565b600060208284031215612f3057612f2f612eb8565b5b6000612f3e84828501612f05565b91505092915050565b60008115159050919050565b612f5c81612f47565b82525050565b6000602082019050612f776000830184612f53565b92915050565b600081519050919050565b600082825260208201905092915050565b60005b83811015612fb7578082015181840152602081019050612f9c565b83811115612fc6576000848401525b50505050565b6000601f19601f8301169050919050565b6000612fe882612f7d565b612ff28185612f88565b9350613002818560208601612f99565b61300b81612fcc565b840191505092915050565b600060208201905081810360008301526130308184612fdd565b905092915050565b6000819050919050565b61304b81613038565b811461305657600080fd5b50565b60008135905061306881613042565b92915050565b60006020828403121561308457613083612eb8565b5b600061309284828501613059565b91505092915050565b600073ffffffffffffffffffffffffffffffffffffffff82169050919050565b60006130c68261309b565b9050919050565b6130d6816130bb565b82525050565b60006020820190506130f160008301846130cd565b92915050565b613100816130bb565b811461310b57600080fd5b50565b60008135905061311d816130f7565b92915050565b6000806040838503121561313a57613139612eb8565b5b60006131488582860161310e565b925050602061315985828601613059565b9150509250929050565b600080fd5b600080fd5b7f4e487b7100000000000000000000000000000000000000000000000000000000600052604160045260246000fd5b6131a582612fcc565b810181811067ffffffffffffffff821117156131c4576131c361316d565b5b80604052505050565b60006131d7612eae565b90506131e3828261319c565b919050565b600067ffffffffffffffff8211156132035761320261316d565b5b61320c82612fcc565b9050602081019050919050565b82818337600083830152505050565b600061323b613236846131e8565b6131cd565b90508281526020810184848401111561325757613256613168565b5b613262848285613219565b509392505050565b600082601f83011261327f5761327e613163565b5b813561328f848260208601613228565b91505092915050565b600080600080608085870312156132b2576132b1612eb8565b5b60006132c08782880161310e565b94505060206132d18782880161310e565b93505060406132e287828801613059565b925050606085013567ffffffffffffffff81111561330357613302612ebd565b5b61330f8782880161326a565b91505092959194509250565b61332481612ec2565b82525050565b600060208201905061333f600083018461331b565b92915050565b61334e81613038565b82525050565b60006020820190506133696000830184613345565b92915050565b60008060006060848603121561338857613387612eb8565b5b60006133968682870161310e565b93505060206133a78682870161310e565b92505060406133b886828701613059565b9150509250925092565b600080604083850312156133d9576133d8612eb8565b5b60006133e785828601613059565b925050602083013567ffffffffffffffff81111561340857613407612ebd565b5b6134148582860161326a565b9150509250929050565b6000806040838503121561343557613434612eb8565b5b600061344385828601613059565b925050602061345485828601613059565b9150509250929050565b600060408201905061347360008301856130cd565b6134806020830184613345565b9392505050565b600067ffffffffffffffff8211156134a2576134a161316d565b5b6134ab82612fcc565b9050602081019050919050565b60006134cb6134c684613487565b6131cd565b9050828152602081018484840111156134e7576134e6613168565b5b6134f2848285613219565b509392505050565b600082601f83011261350f5761350e613163565b5b813561351f8482602086016134b8565b91505092915050565b6000806040838503121561353f5761353e612eb8565b5b600061354d8582860161310e565b925050602083013567ffffffffffffffff81111561356e5761356d612ebd565b5b61357a858286016134fa565b9150509250929050565b60006020828403121561359a57613599612eb8565b5b60006135a88482850161310e565b91505092915050565b6135ba81612f47565b81146135c557600080fd5b50565b6000813590506135d7816135b1565b92915050565b600080604083850312156135f4576135f3612eb8565b5b60006136028582860161310e565b9250506020613613858286016135c8565b9150509250929050565b6000806040838503121561363457613633612eb8565b5b60006136428582860161310e565b92505060206136538582860161310e565b9150509250929050565b7f4e487b7100000000000000000000000000000000000000000000000000000000600052602260045260246000fd5b600060028204905060018216806136a457607f821691505b602082108114156136b8576136b761365d565b5b50919050565b7f4552433732313a20617070726f76656420717565727920666f72206e6f6e657860008201527f697374656e7420746f6b656e0000000000000000000000000000000000000000602082015250565b600061371a602c83612f88565b9150613725826136be565b604082019050919050565b600060208201905081810360008301526137498161370d565b9050919050565b7f4552433732313a20617070726f76616c20746f2063757272656e74206f776e6560008201527f7200000000000000000000000000000000000000000000000000000000000000602082015250565b60006137ac602183612f88565b91506137b782613750565b604082019050919050565b600060208201905081810360008301526137db8161379f565b9050919050565b7f4552433732313a20617070726f76652063616c6c6572206973206e6f74206f7760008201527f6e6572206e6f7220617070726f76656420666f7220616c6c0000000000000000602082015250565b600061383e603883612f88565b9150613849826137e2565b604082019050919050565b6000602082019050818103600083015261386d81613831565b9050919050565b7f4552433732313a207472616e736665722063616c6c6572206973206e6f74206f60008201527f776e6572206e6f7220617070726f766564000000000000000000000000000000602082015250565b60006138d0603183612f88565b91506138db82613874565b604082019050919050565b600060208201905081810360008301526138ff816138c3565b9050919050565b7f4f776e61626c653a2063616c6c6572206973206e6f7420746865206f776e6572600082015250565b600061393c602083612f88565b915061394782613906565b602082019050919050565b6000602082019050818103600083015261396b8161392f565b9050919050565b600081519050919050565b600082825260208201905092915050565b600061399982613972565b6139a3818561397d565b93506139b3818560208601612f99565b6139bc81612fcc565b840191505092915050565b60006040820190506139dc60008301856130cd565b81810360208301526139ee818461398e565b90509392505050565b7f526573746f72653a2061756374696f6e6564207069656365206d75737420626560008201527f2066726f7a656e206279206f776e657220766961204a75737469636500000000602082015250565b6000613a53603c83612f88565b9150613a5e826139f7565b604082019050919050565b60006020820190508181036000830152613a8281613a46565b9050919050565b7f4e487b7100000000000000000000000000000000000000000000000000000000600052601160045260246000fd5b6000613ac382613038565b9150613ace83613038565b9250817fffffffffffffffffffffffffffffffffffffffffffffffffffffffffffffffff0483118215151615613b0757613b06613a89565b5b828202905092915050565b7f4e487b7100000000000000000000000000000000000000000000000000000000600052601260045260246000fd5b6000613b4c82613038565b9150613b5783613038565b925082613b6757613b66613b12565b5b828204905092915050565b7f455243373231456e756d657261626c653a206f776e657220696e646578206f7560008201527f74206f6620626f756e6473000000000000000000000000000000000000000000602082015250565b6000613bce602b83612f88565b9150613bd982613b72565b604082019050919050565b60006020820190508181036000830152613bfd81613bc1565b9050919050565b7f4552433732314275726e61626c653a2063616c6c6572206973206e6f74206f7760008201527f6e6572206e6f7220617070726f76656400000000000000000000000000000000602082015250565b6000613c60603083612f88565b9150613c6b82613c04565b604082019050919050565b60006020820190508181036000830152613c8f81613c53565b9050919050565b6000604082019050613cab6000830185613345565b8181036020830152613cbd8184612fdd565b90509392505050565b7f455243373231456e756d657261626c653a20676c6f62616c20696e646578206f60008201527f7574206f6620626f756e64730000000000000000000000000000000000000000602082015250565b6000613d22602c83612f88565b9150613d2d82613cc6565b604082019050919050565b60006020820190508181036000830152613d5181613d15565b9050919050565b7f4e487b7100000000000000000000000000000000000000000000000000000000600052603260045260246000fd5b7f4552433732313a206f776e657220717565727920666f72206e6f6e657869737460008201527f656e7420746f6b656e0000000000000000000000000000000000000000000000602082015250565b6000613de3602983612f88565b9150613dee82613d87565b604082019050919050565b60006020820190508181036000830152613e1281613dd6565b9050919050565b7f4552433732313a2062616c616e636520717565727920666f7220746865207a6560008201527f726f206164647265737300000000000000000000000000000000000000000000602082015250565b6000613e75602a83612f88565b9150613e8082613e19565b604082019050919050565b60006020820190508181036000830152613ea481613e68565b9050919050565b7f4552433732313a20617070726f766520746f2063616c6c657200000000000000600082015250565b6000613ee1601983612f88565b9150613eec82613eab565b602082019050919050565b60006020820190508181036000830152613f1081613ed4565b9050919050565b7f526573746f72653a20756e626f756768742061756374696f6e206d757374206260008201527f6520736574746c6564206279206f776e657220766961204a7573746963650000602082015250565b6000613f73603e83612f88565b9150613f7e82613f17565b604082019050919050565b60006020820190508181036000830152613fa281613f66565b9050919050565b6000613fb4826130bb565b9050919050565b613fc481613fa9565b8114613fcf57600080fd5b50565b600081519050613fe181613fbb565b92915050565b600060208284031215613ffd57613ffc612eb8565b5b600061400b84828501613fd2565b91505092915050565b7f4f776e61626c653a206e6577206f776e657220697320746865207a65726f206160008201527f6464726573730000000000000000000000000000000000000000000000000000602082015250565b6000614070602683612f88565b915061407b82614014565b604082019050919050565b6000602082019050818103600083015261409f81614063565b9050919050565b7f4552433732313a206f70657261746f7220717565727920666f72206e6f6e657860008201527f697374656e7420746f6b656e0000000000000000000000000000000000000000602082015250565b6000614102602c83612f88565b915061410d826140a6565b604082019050919050565b60006020820190508181036000830152614131816140f5565b9050919050565b7f4552433732313a207472616e73666572206f6620746f6b656e2074686174206960008201527f73206e6f74206f776e0000000000000000000000000000000000000000000000602082015250565b6000614194602983612f88565b915061419f82614138565b604082019050919050565b600060208201905081810360008301526141c381614187565b9050919050565b7f4552433732313a207472616e7366657220746f20746865207a65726f2061646460008201527f7265737300000000000000000000000000000000000000000000000000000000602082015250565b6000614226602483612f88565b9150614231826141ca565b604082019050919050565b6000602082019050818103600083015261425581614219565b9050919050565b600061426782613038565b915061427283613038565b92508282101561428557614284613a89565b5b828203905092915050565b600061429b82613038565b91506142a683613038565b9250827fffffffffffffffffffffffffffffffffffffffffffffffffffffffffffffffff038211156142db576142da613a89565b5b828201905092915050565b7f4552433732313a207472616e7366657220746f206e6f6e20455243373231526560008201527f63656976657220696d706c656d656e7465720000000000000000000000000000602082015250565b6000614342603283612f88565b915061434d826142e6565b604082019050919050565b6000602082019050818103600083015261437181614335565b9050919050565b7f45524337323155524953746f726167653a2055524920736574206f66206e6f6e60008201527f6578697374656e7420746f6b656e000000000000000000000000000000000000602082015250565b60006143d4602e83612f88565b91506143df82614378565b604082019050919050565b60006020820190508181036000830152614403816143c7565b9050919050565b7f45524332393831526f79616c746965733a20546f6f2068696768000000000000600082015250565b6000614440601a83612f88565b915061444b8261440a565b602082019050919050565b6000602082019050818103600083015261446f81614433565b9050919050565b7f45524337323155524953746f726167653a2055524920717565727920666f722060008201527f6e6f6e6578697374656e7420746f6b656e000000000000000000000000000000602082015250565b60006144d2603183612f88565b91506144dd82614476565b604082019050919050565b60006020820190508181036000830152614501816144c5565b9050919050565b600081905092915050565b600061451e82612f7d565b6145288185614508565b9350614538818560208601612f99565b80840191505092915050565b60006145508285614513565b915061455c8284614513565b91508190509392505050565b600060808201905061457d60008301876130cd565b61458a60208301866130cd565b6145976040830185613345565b81810360608301526145a9818461398e565b905095945050505050565b6000815190506145c381612eee565b92915050565b6000602082840312156145df576145de612eb8565b5b60006145ed848285016145b4565b91505092915050565b7f4552433732314d657461646174613a2055524920717565727920666f72206e6f60008201527f6e6578697374656e7420746f6b656e0000000000000000000000000000000000602082015250565b6000614652602f83612f88565b915061465d826145f6565b604082019050919050565b6000602082019050818103600083015261468181614645565b9050919050565b7f4552433732313a206d696e7420746f20746865207a65726f2061646472657373600082015250565b60006146be602083612f88565b91506146c982614688565b602082019050919050565b600060208201905081810360008301526146ed816146b1565b9050919050565b7f4552433732313a20746f6b656e20616c7265616479206d696e74656400000000600082015250565b600061472a601c83612f88565b9150614735826146f4565b602082019050919050565b600060208201905081810360008301526147598161471d565b9050919050565b600061476b82613038565b91507fffffffffffffffffffffffffffffffffffffffffffffffffffffffffffffffff82141561479e5761479d613a89565b5b600182019050919050565b60006147b482613038565b91506147bf83613038565b9250826147cf576147ce613b12565b5b828206905092915050565b7f4e487b7100000000000000000000000000000000000000000000000000000000600052603160045260246000fdfea26469706673582212200e7d63f1cde39f0b8007aeef9af4650980fd18073fd97297bf62b6c9c936b17664736f6c634300080b0033",
  "devdoc": {
    "kind": "dev",
    "methods": {
      "approve(address,uint256)": {
        "details": "See {IERC721-approve}."
      },
      "balanceOf(address)": {
        "details": "See {IERC721-balanceOf}."
      },
      "burn(uint256)": {
        "details": "Burns `tokenId`. See {ERC721-_burn}. Requirements: - The caller must own `tokenId` or be an approved operator."
      },
      "contractURI()": {
        "details": "Link to Contract metadata https://docs.opensea.io/docs/contract-level-metadata TODO: add contract metadata"
      },
      "freeze(address,uint256)": {
        "params": {
          "buyer": "address of winning bid",
          "tokenId": "index of the NFT bought in the auction"
        }
      },
      "getApproved(uint256)": {
        "details": "See {IERC721-getApproved}."
      },
      "mintForAuction(address,string)": {
        "details": "Safely mints a token to an address with a tokenURI.",
        "params": {
          "creator": "this will likely be pr1s0n.art, but may be others in the future. Included here for proper attribution.",
          "uri": "full URI to token metadata"
        }
      },
      "name()": {
        "details": "See {IERC721Metadata-name}."
      },
      "onERC721Received(address,address,uint256,bytes)": {
        "details": "See {IERC721Receiver-onERC721Received}. Always returns `IERC721Receiver.onERC721Received.selector`."
      },
      "owner()": {
        "details": "Returns the address of the current owner."
      },
      "ownerOf(uint256)": {
        "details": "See {IERC721-ownerOf}."
      },
      "renounceOwnership()": {
        "details": "Leaves the contract without owner. It will not be possible to call `onlyOwner` functions anymore. Can only be called by the current owner. NOTE: Renouncing ownership will leave the contract without an owner, thereby removing any functionality that is only available to the owner."
      },
      "returnToPA(uint256,bytes)": {
        "params": {
          "data": "data which reads 'no buyer' to add to token's transactional history for completeness.",
          "tokenId": "index of the NFT bought in the auction"
        }
      },
      "royaltyInfo(uint256,uint256)": {
        "params": {
          "_tokenId": "- the NFT asset queried for royalty information",
          "_value": "- the sale price of the NFT asset specified by _tokenId"
        },
        "returns": {
          "receiver": "- address of who should be sent the royalty payment",
          "royaltyAmount": "- the royalty payment amount for value sale price"
        }
      },
      "safeTransferFrom(address,address,uint256)": {
        "details": "See {IERC721-safeTransferFrom}."
      },
      "safeTransferFrom(address,address,uint256,bytes)": {
        "details": "See {IERC721-safeTransferFrom}."
      },
      "setApprovalForAll(address,bool)": {
        "details": "See {IERC721-setApprovalForAll}."
      },
      "setRoyalties(address,uint256)": {
        "params": {
          "recipient": "the royalties recipient - will always be pr1s0nart, for regulatory reasons.",
          "value": "royalties value (between 0 and 10000)"
        }
      },
      "symbol()": {
        "details": "See {IERC721Metadata-symbol}."
      },
      "tokenByIndex(uint256)": {
        "details": "See {IERC721Enumerable-tokenByIndex}."
      },
      "tokenOfOwnerByIndex(address,uint256)": {
        "details": "See {IERC721Enumerable-tokenOfOwnerByIndex}."
      },
      "totalSupply()": {
        "details": "See {IERC721Enumerable-totalSupply}."
      },
      "transferFrom(address,address,uint256)": {
        "details": "See {IERC721-transferFrom}."
      },
      "transferOwnership(address)": {
        "details": "Transfers ownership of the contract to a new account (`newOwner`). Can only be called by the current owner."
      },
      "transferToBuyer(uint256,bytes)": {
        "params": {
          "data": "URI to receipt metadata that will be added to the NFT TODO: is it an issue that we store the receipt uri in bytes and the metadata uri above as a string?"
        }
      }
    },
    "version": 1
  },
  "userdoc": {
    "kind": "user",
    "methods": {
      "freeze(address,uint256)": {
        "notice": "called when an auction is settled, sets the frozenToken struct."
      },
      "isApprovedForAll(address,address)": {
        "notice": "Override isApprovedForAll to whitelist user's OpenSea proxy accounts to enable gas-less listings."
      },
      "mintForAuction(address,string)": {
        "notice": "this mints the NFT to this contract so that we can ensure only the buyer can receive the first transfer and         prove contractually that no-one else can."
      },
      "returnToPA(uint256,bytes)": {
        "notice": "called when there is no buyer for an auction"
      },
      "setRoyalties(address,uint256)": {
        "notice": "Set the royalties for the whole contract. Our intention is to set it to 10% in perpetuity."
      },
      "transferToBuyer(uint256,bytes)": {
        "notice": "sends 'frozen' NFT to the winning bidder by attaching the receipt. Protected only to ensure no random         data is uploaded on the transfer."
      }
    },
    "version": 1
  },
  "storageLayout": {
    "storage": [
      {
        "astId": 1999,
        "contract": "contracts/Restore.sol:Restore",
        "label": "_name",
        "offset": 0,
        "slot": "0",
        "type": "t_string_storage"
      },
      {
        "astId": 2001,
        "contract": "contracts/Restore.sol:Restore",
        "label": "_symbol",
        "offset": 0,
        "slot": "1",
        "type": "t_string_storage"
      },
      {
        "astId": 2005,
        "contract": "contracts/Restore.sol:Restore",
        "label": "_owners",
        "offset": 0,
        "slot": "2",
        "type": "t_mapping(t_uint256,t_address)"
      },
      {
        "astId": 2009,
        "contract": "contracts/Restore.sol:Restore",
        "label": "_balances",
        "offset": 0,
        "slot": "3",
        "type": "t_mapping(t_address,t_uint256)"
      },
      {
        "astId": 2013,
        "contract": "contracts/Restore.sol:Restore",
        "label": "_tokenApprovals",
        "offset": 0,
        "slot": "4",
        "type": "t_mapping(t_uint256,t_address)"
      },
      {
        "astId": 2019,
        "contract": "contracts/Restore.sol:Restore",
        "label": "_operatorApprovals",
        "offset": 0,
        "slot": "5",
        "type": "t_mapping(t_address,t_mapping(t_address,t_bool))"
      },
      {
        "astId": 2850,
        "contract": "contracts/Restore.sol:Restore",
        "label": "_ownedTokens",
        "offset": 0,
        "slot": "6",
        "type": "t_mapping(t_address,t_mapping(t_uint256,t_uint256))"
      },
      {
        "astId": 2854,
        "contract": "contracts/Restore.sol:Restore",
        "label": "_ownedTokensIndex",
        "offset": 0,
        "slot": "7",
        "type": "t_mapping(t_uint256,t_uint256)"
      },
      {
        "astId": 2857,
        "contract": "contracts/Restore.sol:Restore",
        "label": "_allTokens",
        "offset": 0,
        "slot": "8",
        "type": "t_array(t_uint256)dyn_storage"
      },
      {
        "astId": 2861,
        "contract": "contracts/Restore.sol:Restore",
        "label": "_allTokensIndex",
        "offset": 0,
        "slot": "9",
        "type": "t_mapping(t_uint256,t_uint256)"
      },
      {
        "astId": 3368,
        "contract": "contracts/Restore.sol:Restore",
        "label": "_tokenURIs",
        "offset": 0,
        "slot": "10",
        "type": "t_mapping(t_uint256,t_string_storage)"
      },
      {
        "astId": 1874,
        "contract": "contracts/Restore.sol:Restore",
        "label": "_royalties",
        "offset": 0,
        "slot": "11",
        "type": "t_struct(RoyaltyInfo)1950_storage"
      },
      {
        "astId": 3209,
        "contract": "contracts/Restore.sol:Restore",
        "label": "proxyRegistryAddress",
        "offset": 0,
        "slot": "12",
        "type": "t_address"
      },
      {
        "astId": 7,
        "contract": "contracts/Restore.sol:Restore",
        "label": "_owner",
        "offset": 0,
        "slot": "13",
        "type": "t_address"
      },
      {
        "astId": 1649,
        "contract": "contracts/Restore.sol:Restore",
        "label": "_tokenIdCounter",
        "offset": 0,
        "slot": "14",
        "type": "t_struct(Counter)737_storage"
      },
      {
        "astId": 1653,
        "contract": "contracts/Restore.sol:Restore",
        "label": "buyers",
        "offset": 0,
        "slot": "15",
        "type": "t_mapping(t_uint256,t_address)"
      }
    ],
    "types": {
      "t_address": {
        "encoding": "inplace",
        "label": "address",
        "numberOfBytes": "20"
      },
      "t_array(t_uint256)dyn_storage": {
        "base": "t_uint256",
        "encoding": "dynamic_array",
        "label": "uint256[]",
        "numberOfBytes": "32"
      },
      "t_bool": {
        "encoding": "inplace",
        "label": "bool",
        "numberOfBytes": "1"
      },
      "t_mapping(t_address,t_bool)": {
        "encoding": "mapping",
        "key": "t_address",
        "label": "mapping(address => bool)",
        "numberOfBytes": "32",
        "value": "t_bool"
      },
      "t_mapping(t_address,t_mapping(t_address,t_bool))": {
        "encoding": "mapping",
        "key": "t_address",
        "label": "mapping(address => mapping(address => bool))",
        "numberOfBytes": "32",
        "value": "t_mapping(t_address,t_bool)"
      },
      "t_mapping(t_address,t_mapping(t_uint256,t_uint256))": {
        "encoding": "mapping",
        "key": "t_address",
        "label": "mapping(address => mapping(uint256 => uint256))",
        "numberOfBytes": "32",
        "value": "t_mapping(t_uint256,t_uint256)"
      },
      "t_mapping(t_address,t_uint256)": {
        "encoding": "mapping",
        "key": "t_address",
        "label": "mapping(address => uint256)",
        "numberOfBytes": "32",
        "value": "t_uint256"
      },
      "t_mapping(t_uint256,t_address)": {
        "encoding": "mapping",
        "key": "t_uint256",
        "label": "mapping(uint256 => address)",
        "numberOfBytes": "32",
        "value": "t_address"
      },
      "t_mapping(t_uint256,t_string_storage)": {
        "encoding": "mapping",
        "key": "t_uint256",
        "label": "mapping(uint256 => string)",
        "numberOfBytes": "32",
        "value": "t_string_storage"
      },
      "t_mapping(t_uint256,t_uint256)": {
        "encoding": "mapping",
        "key": "t_uint256",
        "label": "mapping(uint256 => uint256)",
        "numberOfBytes": "32",
        "value": "t_uint256"
      },
      "t_string_storage": {
        "encoding": "bytes",
        "label": "string",
        "numberOfBytes": "32"
      },
      "t_struct(Counter)737_storage": {
        "encoding": "inplace",
        "label": "struct Counters.Counter",
        "members": [
          {
            "astId": 736,
            "contract": "contracts/Restore.sol:Restore",
            "label": "_value",
            "offset": 0,
            "slot": "0",
            "type": "t_uint256"
          }
        ],
        "numberOfBytes": "32"
      },
      "t_struct(RoyaltyInfo)1950_storage": {
        "encoding": "inplace",
        "label": "struct ERC2981Royalties.RoyaltyInfo",
        "members": [
          {
            "astId": 1947,
            "contract": "contracts/Restore.sol:Restore",
            "label": "recipient",
            "offset": 0,
            "slot": "0",
            "type": "t_address"
          },
          {
            "astId": 1949,
            "contract": "contracts/Restore.sol:Restore",
            "label": "amount",
            "offset": 20,
            "slot": "0",
            "type": "t_uint24"
          }
        ],
        "numberOfBytes": "32"
      },
      "t_uint24": {
        "encoding": "inplace",
        "label": "uint24",
        "numberOfBytes": "3"
      },
      "t_uint256": {
        "encoding": "inplace",
        "label": "uint256",
        "numberOfBytes": "32"
      }
    }
  }
}