{
  "address": "0x864c54FB4bC795140E8c48e3f7372A9DF01B1f1F",
  "abi": [
    {
      "inputs": [
        {
          "internalType": "contract IRestore",
          "name": "_restore",
          "type": "address"
        },
        {
          "internalType": "address",
          "name": "_weth",
          "type": "address"
        },
        {
          "internalType": "address",
          "name": "_payment",
          "type": "address"
        },
        {
          "internalType": "address",
          "name": "_fund",
          "type": "address"
        },
        {
          "internalType": "uint256",
          "name": "_timeBuffer",
          "type": "uint256"
        },
        {
          "internalType": "uint256",
          "name": "_reservePrice",
          "type": "uint256"
        },
        {
          "internalType": "uint8",
          "name": "_minBidIncrementPercentage",
          "type": "uint8"
        },
        {
          "internalType": "uint256",
          "name": "_duration",
          "type": "uint256"
        }
      ],
      "stateMutability": "nonpayable",
      "type": "constructor"
    },
    {
      "anonymous": false,
      "inputs": [
        {
          "indexed": true,
          "internalType": "uint256",
          "name": "tokenId",
          "type": "uint256"
        },
        {
          "indexed": false,
          "internalType": "address",
          "name": "sender",
          "type": "address"
        },
        {
          "indexed": false,
          "internalType": "uint256",
          "name": "value",
          "type": "uint256"
        },
        {
          "indexed": false,
          "internalType": "bool",
          "name": "extended",
          "type": "bool"
        }
      ],
      "name": "AuctionBid",
      "type": "event"
    },
    {
      "anonymous": false,
      "inputs": [
        {
          "indexed": true,
          "internalType": "uint256",
          "name": "tokenId",
          "type": "uint256"
        },
        {
          "indexed": false,
          "internalType": "uint8[3]",
          "name": "saleSplit",
          "type": "uint8[3]"
        },
        {
          "indexed": false,
          "internalType": "address",
          "name": "creator",
          "type": "address"
        },
        {
          "indexed": false,
          "internalType": "uint256",
          "name": "startTime",
          "type": "uint256"
        },
        {
          "indexed": false,
          "internalType": "uint256",
          "name": "endTime",
          "type": "uint256"
        }
      ],
      "name": "AuctionCreated",
      "type": "event"
    },
    {
      "anonymous": false,
      "inputs": [
        {
          "indexed": false,
          "internalType": "uint256",
          "name": "newDuration",
          "type": "uint256"
        }
      ],
      "name": "AuctionDurationUpdated",
      "type": "event"
    },
    {
      "anonymous": false,
      "inputs": [
        {
          "indexed": true,
          "internalType": "uint256",
          "name": "tokenId",
          "type": "uint256"
        },
        {
          "indexed": false,
          "internalType": "uint256",
          "name": "endTime",
          "type": "uint256"
        }
      ],
      "name": "AuctionExtended",
      "type": "event"
    },
    {
      "anonymous": false,
      "inputs": [
        {
          "indexed": false,
          "internalType": "uint256",
          "name": "minBidIncrementPercentage",
          "type": "uint256"
        }
      ],
      "name": "AuctionMinBidIncrementPercentageUpdated",
      "type": "event"
    },
    {
      "anonymous": false,
      "inputs": [
        {
          "indexed": false,
          "internalType": "uint256",
          "name": "reservePrice",
          "type": "uint256"
        }
      ],
      "name": "AuctionReservePriceUpdated",
      "type": "event"
    },
    {
      "anonymous": false,
      "inputs": [
        {
          "indexed": true,
          "internalType": "uint256",
          "name": "tokenId",
          "type": "uint256"
        },
        {
          "indexed": false,
          "internalType": "address",
          "name": "winner",
          "type": "address"
        },
        {
          "indexed": false,
          "internalType": "uint256",
          "name": "amount",
          "type": "uint256"
        }
      ],
      "name": "AuctionSettled",
      "type": "event"
    },
    {
      "anonymous": false,
      "inputs": [
        {
          "indexed": false,
          "internalType": "uint256",
          "name": "timeBuffer",
          "type": "uint256"
        }
      ],
      "name": "AuctionTimeBufferUpdated",
      "type": "event"
    },
    {
      "anonymous": false,
      "inputs": [
        {
          "indexed": false,
          "internalType": "address",
          "name": "newFund",
          "type": "address"
        }
      ],
      "name": "FundAddressUpdated",
      "type": "event"
    },
    {
      "anonymous": false,
      "inputs": [
        {
          "indexed": true,
          "internalType": "uint256",
          "name": "tokenId",
          "type": "uint256"
        }
      ],
      "name": "NoBuyer",
      "type": "event"
    },
    {
      "anonymous": false,
      "inputs": [
        {
          "indexed": true,
          "internalType": "address",
          "name": "previousOwner",
          "type": "address"
        },
        {
          "indexed": true,
          "internalType": "address",
          "name": "newOwner",
          "type": "address"
        }
      ],
      "name": "OwnershipTransferred",
      "type": "event"
    },
    {
      "anonymous": false,
      "inputs": [
        {
          "indexed": false,
          "internalType": "address",
          "name": "newPayment",
          "type": "address"
        }
      ],
      "name": "PaymentAddressUpdated",
      "type": "event"
    },
    {
      "inputs": [],
      "name": "auction",
      "outputs": [
        {
          "internalType": "address",
          "name": "creator",
          "type": "address"
        },
        {
          "internalType": "uint256",
          "name": "tokenId",
          "type": "uint256"
        },
        {
          "internalType": "uint256",
          "name": "amount",
          "type": "uint256"
        },
        {
          "internalType": "uint256",
          "name": "startTime",
          "type": "uint256"
        },
        {
          "internalType": "uint256",
          "name": "endTime",
          "type": "uint256"
        },
        {
          "internalType": "address payable",
          "name": "bidder",
          "type": "address"
        },
        {
          "internalType": "bool",
          "name": "settled",
          "type": "bool"
        }
      ],
      "stateMutability": "view",
      "type": "function"
    },
    {
      "inputs": [
        {
          "internalType": "address",
          "name": "creator",
          "type": "address"
        },
        {
          "internalType": "uint256",
          "name": "tokenId",
          "type": "uint256"
        },
        {
          "internalType": "uint8[3]",
          "name": "split",
          "type": "uint8[3]"
        }
      ],
      "name": "createAuction",
      "outputs": [],
      "stateMutability": "nonpayable",
      "type": "function"
    },
    {
      "inputs": [
        {
          "internalType": "uint256",
          "name": "tokenId",
          "type": "uint256"
        }
      ],
      "name": "createBid",
      "outputs": [],
      "stateMutability": "payable",
      "type": "function"
    },
    {
      "inputs": [],
      "name": "duration",
      "outputs": [
        {
          "internalType": "uint256",
          "name": "",
          "type": "uint256"
        }
      ],
      "stateMutability": "view",
      "type": "function"
    },
    {
      "inputs": [],
      "name": "minBidIncrementPercentage",
      "outputs": [
        {
          "internalType": "uint8",
          "name": "",
          "type": "uint8"
        }
      ],
      "stateMutability": "view",
      "type": "function"
    },
    {
      "inputs": [],
      "name": "owner",
      "outputs": [
        {
          "internalType": "address",
          "name": "",
          "type": "address"
        }
      ],
      "stateMutability": "view",
      "type": "function"
    },
    {
      "inputs": [],
      "name": "renounceOwnership",
      "outputs": [],
      "stateMutability": "nonpayable",
      "type": "function"
    },
    {
      "inputs": [],
      "name": "reservePrice",
      "outputs": [
        {
          "internalType": "uint256",
          "name": "",
          "type": "uint256"
        }
      ],
      "stateMutability": "view",
      "type": "function"
    },
    {
      "inputs": [],
      "name": "restore",
      "outputs": [
        {
          "internalType": "contract IRestore",
          "name": "",
          "type": "address"
        }
      ],
      "stateMutability": "view",
      "type": "function"
    },
    {
      "inputs": [
        {
          "internalType": "uint256",
          "name": "_duration",
          "type": "uint256"
        }
      ],
      "name": "setDuration",
      "outputs": [],
      "stateMutability": "nonpayable",
      "type": "function"
    },
    {
      "inputs": [
        {
          "internalType": "address",
          "name": "_newFund",
          "type": "address"
        }
      ],
      "name": "setFundAddress",
      "outputs": [],
      "stateMutability": "nonpayable",
      "type": "function"
    },
    {
      "inputs": [
        {
          "internalType": "uint8",
          "name": "_minBidIncrementPercentage",
          "type": "uint8"
        }
      ],
      "name": "setMinBidIncrementPercentage",
      "outputs": [],
      "stateMutability": "nonpayable",
      "type": "function"
    },
    {
      "inputs": [
        {
          "internalType": "address",
          "name": "_newPayment",
          "type": "address"
        }
      ],
      "name": "setPaymentAddress",
      "outputs": [],
      "stateMutability": "nonpayable",
      "type": "function"
    },
    {
      "inputs": [
        {
          "internalType": "uint256",
          "name": "_reservePrice",
          "type": "uint256"
        }
      ],
      "name": "setReservePrice",
      "outputs": [],
      "stateMutability": "nonpayable",
      "type": "function"
    },
    {
      "inputs": [
        {
          "internalType": "uint256",
          "name": "_timeBuffer",
          "type": "uint256"
        }
      ],
      "name": "setTimeBuffer",
      "outputs": [],
      "stateMutability": "nonpayable",
      "type": "function"
    },
    {
      "inputs": [],
      "name": "settleAuction",
      "outputs": [],
      "stateMutability": "nonpayable",
      "type": "function"
    },
    {
      "inputs": [],
      "name": "timeBuffer",
      "outputs": [
        {
          "internalType": "uint256",
          "name": "",
          "type": "uint256"
        }
      ],
      "stateMutability": "view",
      "type": "function"
    },
    {
      "inputs": [
        {
          "internalType": "address",
          "name": "newOwner",
          "type": "address"
        }
      ],
      "name": "transferOwnership",
      "outputs": [],
      "stateMutability": "nonpayable",
      "type": "function"
    },
    {
      "inputs": [],
      "name": "weth",
      "outputs": [
        {
          "internalType": "address",
          "name": "",
          "type": "address"
        }
      ],
      "stateMutability": "view",
      "type": "function"
    }
  ],
  "transactionHash": "0x6601a4f796e1af1ddce883365beb8166f47928a1e22449270aabad5f200177da",
  "args": [
    "0x136fA646d6eEB201D4424c0c6a8d6cD806fEB96f",
    "0xC02aaA39b223FE8D0A0e5C4F27eAD9083C756Cc2",
    "0x911753aB62fFd27B78C6db07685DBf0089634eb4",
    "0x9e26a782c88CbD70F47575804b1f10dC58F91afd",
    600,
    "100000000000000000",
    5,
    345600
  ],
  "numDeployments": 1,
  "solcInputHash": "da8abac695309491cdcd02fb46bde356",
  "bytecode": "0x60806040523480156200001157600080fd5b5060405162003517380380620035178339818101604052810190620000379190620002cb565b60016000819055506200005f62000053620001a160201b60201c565b620001a960201b60201c565b87600260006101000a81548173ffffffffffffffffffffffffffffffffffffffff021916908373ffffffffffffffffffffffffffffffffffffffff16021790555086600360006101000a81548173ffffffffffffffffffffffffffffffffffffffff021916908373ffffffffffffffffffffffffffffffffffffffff16021790555085600f60006101000a81548173ffffffffffffffffffffffffffffffffffffffff021916908373ffffffffffffffffffffffffffffffffffffffff16021790555084601060006101000a81548173ffffffffffffffffffffffffffffffffffffffff021916908373ffffffffffffffffffffffffffffffffffffffff160217905550836004819055508260058190555081600660006101000a81548160ff021916908360ff16021790555080600781905550505050505050505062000460565b600033905090565b6000600160009054906101000a900473ffffffffffffffffffffffffffffffffffffffff16905081600160006101000a81548173ffffffffffffffffffffffffffffffffffffffff021916908373ffffffffffffffffffffffffffffffffffffffff1602179055508173ffffffffffffffffffffffffffffffffffffffff168173ffffffffffffffffffffffffffffffffffffffff167f8be0079c531659141344cd1fd0a4f28419497f9722a3daafe3b4186f6b6457e060405160405180910390a35050565b6000815190506200028081620003f8565b92915050565b600081519050620002978162000412565b92915050565b600081519050620002ae816200042c565b92915050565b600081519050620002c58162000446565b92915050565b600080600080600080600080610100898b031215620002ef57620002ee620003f3565b5b6000620002ff8b828c0162000286565b9850506020620003128b828c016200026f565b9750506040620003258b828c016200026f565b9650506060620003388b828c016200026f565b95505060806200034b8b828c016200029d565b94505060a06200035e8b828c016200029d565b93505060c0620003718b828c01620002b4565b92505060e0620003848b828c016200029d565b9150509295985092959890939650565b6000620003a182620003bc565b9050919050565b6000620003b58262000394565b9050919050565b600073ffffffffffffffffffffffffffffffffffffffff82169050919050565b6000819050919050565b600060ff82169050919050565b600080fd5b620004038162000394565b81146200040f57600080fd5b50565b6200041d81620003a8565b81146200042957600080fd5b50565b6200043781620003dc565b81146200044357600080fd5b50565b6200045181620003e6565b81146200045d57600080fd5b50565b6130a780620004706000396000f3fe6080604052600436106101145760003560e01c806385dc3004116100a0578063ce9c7c0d11610064578063ce9c7c0d14610338578063db2e1eed14610361578063ec91f2a41461038c578063f2fde38b146103b7578063f6be71d1146103e057610114565b806385dc3004146102795780638da5cb5b146102a2578063a4d0a17e146102cd578063a8a9fe15146102e4578063b296024d1461030d57610114565b80635e1e1004116100e75780635e1e1004146101c3578063659dd2b4146101ec5780637120334b14610208578063715018a6146102315780637d9f6db51461024857610114565b80630fb5a6b4146101195780632fda332e1461014457806336ebdb381461016f5780633fc8cef314610198575b600080fd5b34801561012557600080fd5b5061012e610409565b60405161013b9190612870565b60405180910390f35b34801561015057600080fd5b5061015961040f565b6040516101669190612673565b60405180910390f35b34801561017b57600080fd5b506101966004803603810190610191919061218d565b610435565b005b3480156101a457600080fd5b506101ad610506565b6040516101ba919061251b565b60405180910390f35b3480156101cf57600080fd5b506101ea60048036038101906101e59190612086565b61052c565b005b61020660048036038101906102019190612160565b610623565b005b34801561021457600080fd5b5061022f600480360381019061022a9190612160565b610a9a565b005b34801561023d57600080fd5b50610246610b57565b005b34801561025457600080fd5b5061025d610bdf565b60405161027097969594939291906125bf565b60405180910390f35b34801561028557600080fd5b506102a0600480360381019061029b9190612086565b610c5c565b005b3480156102ae57600080fd5b506102b7610d53565b6040516102c4919061251b565b60405180910390f35b3480156102d957600080fd5b506102e2610d7d565b005b3480156102f057600080fd5b5061030b600480360381019061030691906120e0565b610ddd565b005b34801561031957600080fd5b50610322611202565b60405161032f91906128a6565b60405180910390f35b34801561034457600080fd5b5061035f600480360381019061035a9190612160565b611215565b005b34801561036d57600080fd5b506103766112d2565b6040516103839190612870565b60405180910390f35b34801561039857600080fd5b506103a16112d8565b6040516103ae9190612870565b60405180910390f35b3480156103c357600080fd5b506103de60048036038101906103d99190612086565b6112de565b005b3480156103ec57600080fd5b5061040760048036038101906104029190612160565b6113d6565b005b60075481565b600260009054906101000a900473ffffffffffffffffffffffffffffffffffffffff1681565b61043d611493565b73ffffffffffffffffffffffffffffffffffffffff1661045b610d53565b73ffffffffffffffffffffffffffffffffffffffff16146104b1576040517f08c379a00000000000000000000000000000000000000000000000000000000081526004016104a890612770565b60405180910390fd5b80600660006101000a81548160ff021916908360ff1602179055507fec5ccd96cc77b6219e9d44143df916af68fc169339ea7de5008ff15eae13450d816040516104fb919061288b565b60405180910390a150565b600360009054906101000a900473ffffffffffffffffffffffffffffffffffffffff1681565b610534611493565b73ffffffffffffffffffffffffffffffffffffffff16610552610d53565b73ffffffffffffffffffffffffffffffffffffffff16146105a8576040517f08c379a000000000000000000000000000000000000000000000000000000000815260040161059f90612770565b60405180910390fd5b80600f60006101000a81548173ffffffffffffffffffffffffffffffffffffffff021916908373ffffffffffffffffffffffffffffffffffffffff1602179055507f38391451438b7e6e244427ebf168c1c4955ab37f81307aa329e3ce3ba24c286681604051610618919061251b565b60405180910390a150565b60026000541415610669576040517f08c379a000000000000000000000000000000000000000000000000000000000815260040161066090612850565b60405180910390fd5b60026000819055506000600860405180610100016040529081600082016003806020026040519081016040528092919082600380156106e3576020028201916000905b82829054906101000a900460ff1660ff16815260200190600101906020826000010492830192600103820291508084116106ac5790505b505050505081526020016001820160009054906101000a900473ffffffffffffffffffffffffffffffffffffffff1673ffffffffffffffffffffffffffffffffffffffff1673ffffffffffffffffffffffffffffffffffffffff168152602001600282015481526020016003820154815260200160048201548152602001600582015481526020016006820160009054906101000a900473ffffffffffffffffffffffffffffffffffffffff1673ffffffffffffffffffffffffffffffffffffffff1673ffffffffffffffffffffffffffffffffffffffff1681526020016006820160149054906101000a900460ff161515151581525050905081816040015114610823576040517f08c379a000000000000000000000000000000000000000000000000000000000815260040161081a90612750565b60405180910390fd5b8060a001514210610869576040517f08c379a000000000000000000000000000000000000000000000000000000000815260040161086090612790565b60405180910390fd5b6005543410156108ae576040517f08c379a00000000000000000000000000000000000000000000000000000000081526004016108a5906126b0565b60405180910390fd5b6064600660009054906101000a900460ff1660ff1682606001516108d291906129f2565b6108dc91906129c1565b81606001516108eb919061296b565b34101561092d576040517f08c379a0000000000000000000000000000000000000000000000000000000008152600401610924906126f0565b60405180910390fd5b60008160c0015190503460086003018190555033600860060160006101000a81548173ffffffffffffffffffffffffffffffffffffffff021916908373ffffffffffffffffffffffffffffffffffffffff1602179055506000600454428460a001516109999190612a4c565b10905080156109c257600454426109b0919061296b565b8360a001818152506008600501819055505b82604001517f1159164c56f277e6fc99c11731bd380e0347deb969b75523398734c252706ea33334846040516109fa93929190612588565b60405180910390a28015610a495782604001517f6e912a3a9105bdd2af817ba5adc14e6c127c1035b5b648faa29ca0d58ab8ff4e8460a00151604051610a409190612870565b60405180910390a25b600073ffffffffffffffffffffffffffffffffffffffff168273ffffffffffffffffffffffffffffffffffffffff1614610a8c57610a8b82846060015161149b565b5b505050600160008190555050565b610aa2611493565b73ffffffffffffffffffffffffffffffffffffffff16610ac0610d53565b73ffffffffffffffffffffffffffffffffffffffff1614610b16576040517f08c379a0000000000000000000000000000000000000000000000000000000008152600401610b0d90612770565b60405180910390fd5b806004819055507f1b55d9f7002bda4490f467e326f22a4a847629c0f2d1ed421607d318d25b410d81604051610b4c9190612870565b60405180910390a150565b610b5f611493565b73ffffffffffffffffffffffffffffffffffffffff16610b7d610d53565b73ffffffffffffffffffffffffffffffffffffffff1614610bd3576040517f08c379a0000000000000000000000000000000000000000000000000000000008152600401610bca90612770565b60405180910390fd5b610bdd600061157e565b565b60088060010160009054906101000a900473ffffffffffffffffffffffffffffffffffffffff16908060020154908060030154908060040154908060050154908060060160009054906101000a900473ffffffffffffffffffffffffffffffffffffffff16908060060160149054906101000a900460ff16905087565b610c64611493565b73ffffffffffffffffffffffffffffffffffffffff16610c82610d53565b73ffffffffffffffffffffffffffffffffffffffff1614610cd8576040517f08c379a0000000000000000000000000000000000000000000000000000000008152600401610ccf90612770565b60405180910390fd5b80601060006101000a81548173ffffffffffffffffffffffffffffffffffffffff021916908373ffffffffffffffffffffffffffffffffffffffff1602179055507f6bed6474711943f2d27e5ea867d18cf848a8dab37cc30943bc20c38b12494ab481604051610d48919061251b565b60405180910390a150565b6000600160009054906101000a900473ffffffffffffffffffffffffffffffffffffffff16905090565b60026000541415610dc3576040517f08c379a0000000000000000000000000000000000000000000000000000000008152600401610dba90612850565b60405180910390fd5b6002600081905550610dd3611644565b6001600081905550565b610de5611493565b73ffffffffffffffffffffffffffffffffffffffff16610e03610d53565b73ffffffffffffffffffffffffffffffffffffffff1614610e59576040517f08c379a0000000000000000000000000000000000000000000000000000000008152600401610e5090612770565b60405180910390fd5b600260009054906101000a900473ffffffffffffffffffffffffffffffffffffffff1673ffffffffffffffffffffffffffffffffffffffff1663d793a179836040518263ffffffff1660e01b8152600401610eb49190612870565b602060405180830381600087803b158015610ece57600080fd5b505af1158015610ee2573d6000803e3d6000fd5b505050506040513d601f19601f82011682018060405250810190610f069190612133565b80156110095750600260009054906101000a900473ffffffffffffffffffffffffffffffffffffffff1673ffffffffffffffffffffffffffffffffffffffff16636352211e836040518263ffffffff1660e01b8152600401610f689190612870565b60206040518083038186803b158015610f8057600080fd5b505afa158015610f94573d6000803e3d6000fd5b505050506040513d601f19601f82011682018060405250810190610fb891906120b3565b73ffffffffffffffffffffffffffffffffffffffff16600260009054906101000a900473ffffffffffffffffffffffffffffffffffffffff1673ffffffffffffffffffffffffffffffffffffffff16145b611048576040517f08c379a000000000000000000000000000000000000000000000000000000000815260040161103f90612730565b60405180910390fd5b600042905060006007548261105d919061296b565b90506040518061010001604052808481526020018673ffffffffffffffffffffffffffffffffffffffff16815260200185815260200160008152602001838152602001828152602001600073ffffffffffffffffffffffffffffffffffffffff1681526020016000151581525060086000820151816000019060036110e3929190611ed4565b5060208201518160010160006101000a81548173ffffffffffffffffffffffffffffffffffffffff021916908373ffffffffffffffffffffffffffffffffffffffff16021790555060408201518160020155606082015181600301556080820151816004015560a0820151816005015560c08201518160060160006101000a81548173ffffffffffffffffffffffffffffffffffffffff021916908373ffffffffffffffffffffffffffffffffffffffff16021790555060e08201518160060160146101000a81548160ff021916908315150217905550905050837f18c01be17ac75e313c54e5ef9c77f189ac10cb7960575650a1c499ed83423316848785856040516111f3949392919061262e565b60405180910390a25050505050565b600660009054906101000a900460ff1681565b61121d611493565b73ffffffffffffffffffffffffffffffffffffffff1661123b610d53565b73ffffffffffffffffffffffffffffffffffffffff1614611291576040517f08c379a000000000000000000000000000000000000000000000000000000000815260040161128890612770565b60405180910390fd5b806005819055507f6ab2e127d7fdf53b8f304e59d3aab5bfe97979f52a85479691a6fab27a28a6b2816040516112c79190612870565b60405180910390a150565b60055481565b60045481565b6112e6611493565b73ffffffffffffffffffffffffffffffffffffffff16611304610d53565b73ffffffffffffffffffffffffffffffffffffffff161461135a576040517f08c379a000000000000000000000000000000000000000000000000000000000815260040161135190612770565b60405180910390fd5b600073ffffffffffffffffffffffffffffffffffffffff168173ffffffffffffffffffffffffffffffffffffffff1614156113ca576040517f08c379a00000000000000000000000000000000000000000000000000000000081526004016113c1906126d0565b60405180910390fd5b6113d38161157e565b50565b6113de611493565b73ffffffffffffffffffffffffffffffffffffffff166113fc610d53565b73ffffffffffffffffffffffffffffffffffffffff1614611452576040517f08c379a000000000000000000000000000000000000000000000000000000000815260040161144990612770565b60405180910390fd5b806007819055507faab6389d8f1c16ba1deb6e9831f5c5442cf4fcf99bf5bfa867460be408a91118816040516114889190612870565b60405180910390a150565b600033905090565b6114a58282611b06565b61157a57600360009054906101000a900473ffffffffffffffffffffffffffffffffffffffff1673ffffffffffffffffffffffffffffffffffffffff1663d0e30db0826040518263ffffffff1660e01b81526004016000604051808303818588803b15801561151357600080fd5b505af1158015611527573d6000803e3d6000fd5b50505050506115798282600360009054906101000a900473ffffffffffffffffffffffffffffffffffffffff1673ffffffffffffffffffffffffffffffffffffffff16611bd19092919063ffffffff16565b5b5050565b6000600160009054906101000a900473ffffffffffffffffffffffffffffffffffffffff16905081600160006101000a81548173ffffffffffffffffffffffffffffffffffffffff021916908373ffffffffffffffffffffffffffffffffffffffff1602179055508173ffffffffffffffffffffffffffffffffffffffff168173ffffffffffffffffffffffffffffffffffffffff167f8be0079c531659141344cd1fd0a4f28419497f9722a3daafe3b4186f6b6457e060405160405180910390a35050565b6000600860405180610100016040529081600082016003806020026040519081016040528092919082600380156116b6576020028201916000905b82829054906101000a900460ff1660ff168152602001906001019060208260000104928301926001038202915080841161167f5790505b505050505081526020016001820160009054906101000a900473ffffffffffffffffffffffffffffffffffffffff1673ffffffffffffffffffffffffffffffffffffffff1673ffffffffffffffffffffffffffffffffffffffff168152602001600282015481526020016003820154815260200160048201548152602001600582015481526020016006820160009054906101000a900473ffffffffffffffffffffffffffffffffffffffff1673ffffffffffffffffffffffffffffffffffffffff1673ffffffffffffffffffffffffffffffffffffffff1681526020016006820160149054906101000a900460ff16151515158152505090506000816080015114156117f8576040517f08c379a00000000000000000000000000000000000000000000000000000000081526004016117ef90612810565b60405180910390fd5b8060e001511561183d576040517f08c379a0000000000000000000000000000000000000000000000000000000008152600401611834906127b0565b60405180910390fd5b8060a00151421015611884576040517f08c379a000000000000000000000000000000000000000000000000000000000815260040161187b906127d0565b60405180910390fd5b6001600860060160146101000a81548160ff02191690831515021790555080604001517fc9f72b276a388619c6d185d146697036241880c36654b1a3ffdad07c24038d998260c0015183606001516040516118e0929190612536565b60405180910390a2600073ffffffffffffffffffffffffffffffffffffffff168160c0015173ffffffffffffffffffffffffffffffffffffffff1614156119575780604001517f38f0a524342c45c820fde6f1f918015581bef487b9b31b3959e8a7d749bfa93060405160405180910390a26119ef565b600260009054906101000a900473ffffffffffffffffffffffffffffffffffffffff1673ffffffffffffffffffffffffffffffffffffffff166324bce60c8260c0015183604001516040518363ffffffff1660e01b81526004016119bc929190612536565b600060405180830381600087803b1580156119d657600080fd5b505af11580156119ea573d6000803e3d6000fd5b505050505b600081606001511115611b03576000606482606001518360000151600060038110611a1d57611a1c612c03565b5b602002015160ff16611a2f91906129f2565b611a3991906129c1565b9050611a67600f60009054906101000a900473ffffffffffffffffffffffffffffffffffffffff168261149b565b6000606483606001518460000151600160038110611a8857611a87612c03565b5b602002015160ff16611a9a91906129f2565b611aa491906129c1565b9050611ad2601060009054906101000a900473ffffffffffffffffffffffffffffffffffffffff168261149b565b600081838560600151611ae59190612a4c565b611aef9190612a4c565b9050611aff84602001518261149b565b5050505b50565b6000808373ffffffffffffffffffffffffffffffffffffffff168361753090600067ffffffffffffffff811115611b4057611b3f612c32565b5b6040519080825280601f01601f191660200182016040528015611b725781602001600182028036833780820191505090505b50604051611b809190612504565b600060405180830381858888f193505050503d8060008114611bbe576040519150601f19603f3d011682016040523d82523d6000602084013e611bc3565b606091505b505090508091505092915050565b611c528363a9059cbb60e01b8484604051602401611bf092919061255f565b604051602081830303815290604052907bffffffffffffffffffffffffffffffffffffffffffffffffffffffff19166020820180517bffffffffffffffffffffffffffffffffffffffffffffffffffffffff8381831617835250505050611c57565b505050565b6000611cb9826040518060400160405280602081526020017f5361666545524332303a206c6f772d6c6576656c2063616c6c206661696c65648152508573ffffffffffffffffffffffffffffffffffffffff16611d1e9092919063ffffffff16565b9050600081511115611d195780806020019051810190611cd99190612133565b611d18576040517f08c379a0000000000000000000000000000000000000000000000000000000008152600401611d0f90612830565b60405180910390fd5b5b505050565b6060611d2d8484600085611d36565b90509392505050565b606082471015611d7b576040517f08c379a0000000000000000000000000000000000000000000000000000000008152600401611d7290612710565b60405180910390fd5b611d8485611e4a565b611dc3576040517f08c379a0000000000000000000000000000000000000000000000000000000008152600401611dba906127f0565b60405180910390fd5b6000808673ffffffffffffffffffffffffffffffffffffffff168587604051611dec9190612504565b60006040518083038185875af1925050503d8060008114611e29576040519150601f19603f3d011682016040523d82523d6000602084013e611e2e565b606091505b5091509150611e3e828286611e6d565b92505050949350505050565b6000808273ffffffffffffffffffffffffffffffffffffffff163b119050919050565b60608315611e7d57829050611ecd565b600083511115611e905782518084602001fd5b816040517f08c379a0000000000000000000000000000000000000000000000000000000008152600401611ec4919061268e565b60405180910390fd5b9392505050565b826003601f01602090048101928215611f5d5791602002820160005b83821115611f2e57835183826101000a81548160ff021916908360ff1602179055509260200192600101602081600001049283019260010302611ef0565b8015611f5b5782816101000a81549060ff0219169055600101602081600001049283019260010302611f2e565b505b509050611f6a9190611f6e565b5090565b5b80821115611f87576000816000905550600101611f6f565b5090565b6000611f9e611f99846128e6565b6128c1565b90508082856020860282011115611fb857611fb7612c66565b5b60005b85811015611fe85781611fce8882612071565b845260208401935060208301925050600181019050611fbb565b5050509392505050565b60008135905061200181613015565b92915050565b60008151905061201681613015565b92915050565b600082601f83011261203157612030612c61565b5b600361203e848285611f8b565b91505092915050565b6000815190506120568161302c565b92915050565b60008135905061206b81613043565b92915050565b6000813590506120808161305a565b92915050565b60006020828403121561209c5761209b612c6b565b5b60006120aa84828501611ff2565b91505092915050565b6000602082840312156120c9576120c8612c6b565b5b60006120d784828501612007565b91505092915050565b600080600060a084860312156120f9576120f8612c6b565b5b600061210786828701611ff2565b93505060206121188682870161205c565b92505060406121298682870161201c565b9150509250925092565b60006020828403121561214957612148612c6b565b5b600061215784828501612047565b91505092915050565b60006020828403121561217657612175612c6b565b5b60006121848482850161205c565b91505092915050565b6000602082840312156121a3576121a2612c6b565b5b60006121b184828501612071565b91505092915050565b60006121c683836124e6565b60208301905092915050565b6121db81612ae7565b82525050565b6121ea81612a92565b82525050565b6121f981612a80565b82525050565b61220881612916565b6122128184612944565b925061221d8261290c565b8060005b8381101561224e57815161223587826121ba565b965061224083612937565b925050600181019050612221565b505050505050565b61225f81612aa4565b82525050565b600061227082612921565b61227a818561294f565b935061228a818560208601612b41565b80840191505092915050565b61229f81612af9565b82525050565b60006122b08261292c565b6122ba818561295a565b93506122ca818560208601612b41565b6122d381612c70565b840191505092915050565b60006122eb60288361295a565b91506122f682612c81565b604082019050919050565b600061230e60268361295a565b915061231982612cd0565b604082019050919050565b600061233160498361295a565b915061233c82612d1f565b606082019050919050565b600061235460268361295a565b915061235f82612d94565b604082019050919050565b600061237760248361295a565b915061238282612de3565b604082019050919050565b600061239a601f8361295a565b91506123a582612e32565b602082019050919050565b60006123bd60208361295a565b91506123c882612e5b565b602082019050919050565b60006123e060188361295a565b91506123eb82612e84565b602082019050919050565b600061240360298361295a565b915061240e82612ead565b604082019050919050565b600061242660218361295a565b915061243182612efc565b604082019050919050565b6000612449601d8361295a565b915061245482612f4b565b602082019050919050565b600061246c601d8361295a565b915061247782612f74565b602082019050919050565b600061248f602a8361295a565b915061249a82612f9d565b604082019050919050565b60006124b2601f8361295a565b91506124bd82612fec565b602082019050919050565b6124d181612ad0565b82525050565b6124e081612b2f565b82525050565b6124ef81612ada565b82525050565b6124fe81612ada565b82525050565b60006125108284612265565b915081905092915050565b600060208201905061253060008301846121f0565b92915050565b600060408201905061254b60008301856121d2565b61255860208301846124c8565b9392505050565b600060408201905061257460008301856121f0565b61258160208301846124c8565b9392505050565b600060608201905061259d60008301866121f0565b6125aa60208301856124c8565b6125b76040830184612256565b949350505050565b600060e0820190506125d4600083018a6121f0565b6125e160208301896124c8565b6125ee60408301886124c8565b6125fb60608301876124c8565b61260860808301866124c8565b61261560a08301856121e1565b61262260c0830184612256565b98975050505050505050565b600060c08201905061264360008301876121ff565b61265060608301866121f0565b61265d60808301856124c8565b61266a60a08301846124c8565b95945050505050565b60006020820190506126886000830184612296565b92915050565b600060208201905081810360008301526126a881846122a5565b905092915050565b600060208201905081810360008301526126c9816122de565b9050919050565b600060208201905081810360008301526126e981612301565b9050919050565b6000602082019050818103600083015261270981612324565b9050919050565b6000602082019050818103600083015261272981612347565b9050919050565b600060208201905081810360008301526127498161236a565b9050919050565b600060208201905081810360008301526127698161238d565b9050919050565b60006020820190508181036000830152612789816123b0565b9050919050565b600060208201905081810360008301526127a9816123d3565b9050919050565b600060208201905081810360008301526127c9816123f6565b9050919050565b600060208201905081810360008301526127e981612419565b9050919050565b600060208201905081810360008301526128098161243c565b9050919050565b600060208201905081810360008301526128298161245f565b9050919050565b6000602082019050818103600083015261284981612482565b9050919050565b60006020820190508181036000830152612869816124a5565b9050919050565b600060208201905061288560008301846124c8565b92915050565b60006020820190506128a060008301846124d7565b92915050565b60006020820190506128bb60008301846124f5565b92915050565b60006128cb6128dc565b90506128d78282612b74565b919050565b6000604051905090565b600067ffffffffffffffff82111561290157612900612c32565b5b602082029050919050565b6000819050919050565b600060039050919050565b600081519050919050565b600081519050919050565b6000602082019050919050565b600081905092915050565b600081905092915050565b600082825260208201905092915050565b600061297682612ad0565b915061298183612ad0565b9250827fffffffffffffffffffffffffffffffffffffffffffffffffffffffffffffffff038211156129b6576129b5612ba5565b5b828201905092915050565b60006129cc82612ad0565b91506129d783612ad0565b9250826129e7576129e6612bd4565b5b828204905092915050565b60006129fd82612ad0565b9150612a0883612ad0565b9250817fffffffffffffffffffffffffffffffffffffffffffffffffffffffffffffffff0483118215151615612a4157612a40612ba5565b5b828202905092915050565b6000612a5782612ad0565b9150612a6283612ad0565b925082821015612a7557612a74612ba5565b5b828203905092915050565b6000612a8b82612ab0565b9050919050565b6000612a9d82612ab0565b9050919050565b60008115159050919050565b600073ffffffffffffffffffffffffffffffffffffffff82169050919050565b6000819050919050565b600060ff82169050919050565b6000612af282612b0b565b9050919050565b6000612b0482612b0b565b9050919050565b6000612b1682612b1d565b9050919050565b6000612b2882612ab0565b9050919050565b6000612b3a82612ada565b9050919050565b60005b83811015612b5f578082015181840152602081019050612b44565b83811115612b6e576000848401525b50505050565b612b7d82612c70565b810181811067ffffffffffffffff82111715612b9c57612b9b612c32565b5b80604052505050565b7f4e487b7100000000000000000000000000000000000000000000000000000000600052601160045260246000fd5b7f4e487b7100000000000000000000000000000000000000000000000000000000600052601260045260246000fd5b7f4e487b7100000000000000000000000000000000000000000000000000000000600052603260045260246000fd5b7f4e487b7100000000000000000000000000000000000000000000000000000000600052604160045260246000fd5b600080fd5b600080fd5b600080fd5b6000601f19601f8301169050919050565b7f4a7573746963653a204d7573742073656e64206174206c65617374207265736560008201527f7276655072696365000000000000000000000000000000000000000000000000602082015250565b7f4f776e61626c653a206e6577206f776e657220697320746865207a65726f206160008201527f6464726573730000000000000000000000000000000000000000000000000000602082015250565b7f4a7573746963653a204d7573742073656e64206d6f7265207468616e206c617360008201527f7420626964206279206d696e426964496e6372656d656e7450657263656e746160208201527f676520616d6f756e740000000000000000000000000000000000000000000000604082015250565b7f416464726573733a20696e73756666696369656e742062616c616e636520666f60008201527f722063616c6c0000000000000000000000000000000000000000000000000000602082015250565b7f4a7573746963653a20746f6b656e206964206973206e6f742061756374696f6e60008201527f61626c6500000000000000000000000000000000000000000000000000000000602082015250565b7f4a7573746963653a20417274206e6f7420757020666f722061756374696f6e00600082015250565b7f4f776e61626c653a2063616c6c6572206973206e6f7420746865206f776e6572600082015250565b7f4a7573746963653a2041756374696f6e20657870697265640000000000000000600082015250565b7f4a7573746963653a2041756374696f6e2068617320616c72656164792062656560008201527f6e20736574746c65640000000000000000000000000000000000000000000000602082015250565b7f4a7573746963653a2041756374696f6e206861736e277420636f6d706c65746560008201527f6400000000000000000000000000000000000000000000000000000000000000602082015250565b7f416464726573733a2063616c6c20746f206e6f6e2d636f6e7472616374000000600082015250565b7f4a7573746963653a2041756374696f6e206861736e277420626567756e000000600082015250565b7f5361666545524332303a204552433230206f7065726174696f6e20646964206e60008201527f6f74207375636365656400000000000000000000000000000000000000000000602082015250565b7f5265656e7472616e637947756172643a207265656e7472616e742063616c6c00600082015250565b61301e81612a80565b811461302957600080fd5b50565b61303581612aa4565b811461304057600080fd5b50565b61304c81612ad0565b811461305757600080fd5b50565b61306381612ada565b811461306e57600080fd5b5056fea264697066735822122081949b1042f9efcde8e5b9b9e671c53b1fcee8441e7da3c031bdf50d27690ca464736f6c63430008070033",
  "devdoc": {
    "kind": "dev",
    "methods": {
      "createAuction(address,uint256,uint8[3])": {
        "params": {
          "creator": "the address of the creator so we can pass it to the payment splitter once the auction is settled.",
          "split": "a fixed-sized array of max 3 members which determines how sale proceeds are split between pr1s0nartPayment              (the address that exchanges into USD and pays LFOs), pr1s0nartFund (our onchain fund to cover operations),              and the creator address if they have one and can receive crypto in addition to the LFO payments we cover.              This is likely only the case if they are no longer incarcerated and have an ETH address.",
          "tokenId": "the index of the art piece to be auctioned off"
        }
      },
      "createBid(uint256)": {
        "details": "This contract only accepts payment in ETH."
      },
      "owner()": {
        "details": "Returns the address of the current owner."
      },
      "renounceOwnership()": {
        "details": "Leaves the contract without owner. It will not be possible to call `onlyOwner` functions anymore. Can only be called by the current owner. NOTE: Renouncing ownership will leave the contract without an owner, thereby removing any functionality that is only available to the owner."
      },
      "setDuration(uint256)": {
        "details": "Only callable by the owner."
      },
      "setFundAddress(address)": {
        "details": "Only callable by the owner."
      },
      "setMinBidIncrementPercentage(uint8)": {
        "details": "Only callable by the owner."
      },
      "setPaymentAddress(address)": {
        "details": "Only callable by the owner."
      },
      "setReservePrice(uint256)": {
        "details": "Only callable by the owner."
      },
      "setTimeBuffer(uint256)": {
        "details": "Only callable by the owner."
      },
      "settleAuction()": {
        "details": "This function can only be called when the contract is paused."
      },
      "transferOwnership(address)": {
        "details": "Transfers ownership of the contract to a new account (`newOwner`). Can only be called by the current owner."
      }
    },
    "title": "Justice Justice - a contract that creates unique NFTs to be auctioned off, using the Restore ERC721 Contract. Adapted from the wonderful Nounders. https://github.com/nounsDAO/nouns-monorepo/blob/2cbe6c7bdfee258e646e8d9e84302375320abc72/packages/nouns-contracts/contracts/NounsAuctionHouse.sol Once auctioned, this contract does not immediatedly transfer the art, but 'freezes' it, while ensuring that the steward of the system, which is multisig maintained by Pr1s0n Art Inc - a 501(c)3 registered in Florida - can only ever transfer them to the winning bidder. Pr1s0n Art takes the funds raised from the sale, exchanges them into USD, pays the Legal Financial Obligations of the people who made the art and then reattaches the receipts as the `data` in `transferToBuyer`, which uses the `safeTransfer` method in the ERC721 standard. This means you receive not just the art, but the full story - aesthetic, economic, and sociopolitical - of a human being's journey home. This contract enacts restorative justice because, unless we are all involved with justice, we will never realise it fully.",
    "version": 1
  },
  "userdoc": {
    "kind": "user",
    "methods": {
      "constructor": {
        "notice": "Set up the Justice Auction House and prepopulate initial values"
      },
      "createAuction(address,uint256,uint8[3])": {
        "notice": "Create an auction."
      },
      "createBid(uint256)": {
        "notice": "Create a bid for a pr1s0n.art piece, with a given amount."
      },
      "setDuration(uint256)": {
        "notice": "Set the duration for auctions."
      },
      "setFundAddress(address)": {
        "notice": "Set the pr1s0nartFund address (handles onchain fund for operations)"
      },
      "setMinBidIncrementPercentage(uint8)": {
        "notice": "Set the auction minimum bid increment percentage."
      },
      "setPaymentAddress(address)": {
        "notice": "Set the pr1s0nart payment address (handles exchange to USD + LFO payments)."
      },
      "setReservePrice(uint256)": {
        "notice": "Set the auction reserve price."
      },
      "setTimeBuffer(uint256)": {
        "notice": "Set the auction time buffer."
      },
      "settleAuction()": {
        "notice": "Settle the current auction."
      }
    },
    "version": 1
  },
  "storageLayout": {
    "storage": [
      {
        "astId": 115,
        "contract": "contracts/Justice.sol:Justice",
        "label": "_status",
        "offset": 0,
        "slot": "0",
        "type": "t_uint256"
      },
      {
        "astId": 7,
        "contract": "contracts/Justice.sol:Justice",
        "label": "_owner",
        "offset": 0,
        "slot": "1",
        "type": "t_address"
      },
      {
        "astId": 1267,
        "contract": "contracts/Justice.sol:Justice",
        "label": "restore",
        "offset": 0,
        "slot": "2",
        "type": "t_contract(IRestore)3434"
      },
      {
        "astId": 1269,
        "contract": "contracts/Justice.sol:Justice",
        "label": "weth",
        "offset": 0,
        "slot": "3",
        "type": "t_address"
      },
      {
        "astId": 1271,
        "contract": "contracts/Justice.sol:Justice",
        "label": "timeBuffer",
        "offset": 0,
        "slot": "4",
        "type": "t_uint256"
      },
      {
        "astId": 1273,
        "contract": "contracts/Justice.sol:Justice",
        "label": "reservePrice",
        "offset": 0,
        "slot": "5",
        "type": "t_uint256"
      },
      {
        "astId": 1275,
        "contract": "contracts/Justice.sol:Justice",
        "label": "minBidIncrementPercentage",
        "offset": 0,
        "slot": "6",
        "type": "t_uint8"
      },
      {
        "astId": 1277,
        "contract": "contracts/Justice.sol:Justice",
        "label": "duration",
        "offset": 0,
        "slot": "7",
        "type": "t_uint256"
      },
      {
        "astId": 1280,
        "contract": "contracts/Justice.sol:Justice",
        "label": "auction",
        "offset": 0,
        "slot": "8",
        "type": "t_struct(Auction)3270_storage"
      },
      {
        "astId": 1282,
        "contract": "contracts/Justice.sol:Justice",
        "label": "payment",
        "offset": 0,
        "slot": "15",
        "type": "t_address"
      },
      {
        "astId": 1284,
        "contract": "contracts/Justice.sol:Justice",
        "label": "fund",
        "offset": 0,
        "slot": "16",
        "type": "t_address"
      }
    ],
    "types": {
      "t_address": {
        "encoding": "inplace",
        "label": "address",
        "numberOfBytes": "20"
      },
      "t_address_payable": {
        "encoding": "inplace",
        "label": "address payable",
        "numberOfBytes": "20"
      },
      "t_array(t_uint8)3_storage": {
        "base": "t_uint8",
        "encoding": "inplace",
        "label": "uint8[3]",
        "numberOfBytes": "32"
      },
      "t_bool": {
        "encoding": "inplace",
        "label": "bool",
        "numberOfBytes": "1"
      },
      "t_contract(IRestore)3434": {
        "encoding": "inplace",
        "label": "contract IRestore",
        "numberOfBytes": "20"
      },
      "t_struct(Auction)3270_storage": {
        "encoding": "inplace",
        "label": "struct IJustice.Auction",
        "members": [
          {
            "astId": 3255,
            "contract": "contracts/Justice.sol:Justice",
            "label": "saleSplit",
            "offset": 0,
            "slot": "0",
            "type": "t_array(t_uint8)3_storage"
          },
          {
            "astId": 3257,
            "contract": "contracts/Justice.sol:Justice",
            "label": "creator",
            "offset": 0,
            "slot": "1",
            "type": "t_address"
          },
          {
            "astId": 3259,
            "contract": "contracts/Justice.sol:Justice",
            "label": "tokenId",
            "offset": 0,
            "slot": "2",
            "type": "t_uint256"
          },
          {
            "astId": 3261,
            "contract": "contracts/Justice.sol:Justice",
            "label": "amount",
            "offset": 0,
            "slot": "3",
            "type": "t_uint256"
          },
          {
            "astId": 3263,
            "contract": "contracts/Justice.sol:Justice",
            "label": "startTime",
            "offset": 0,
            "slot": "4",
            "type": "t_uint256"
          },
          {
            "astId": 3265,
            "contract": "contracts/Justice.sol:Justice",
            "label": "endTime",
            "offset": 0,
            "slot": "5",
            "type": "t_uint256"
          },
          {
            "astId": 3267,
            "contract": "contracts/Justice.sol:Justice",
            "label": "bidder",
            "offset": 0,
            "slot": "6",
            "type": "t_address_payable"
          },
          {
            "astId": 3269,
            "contract": "contracts/Justice.sol:Justice",
            "label": "settled",
            "offset": 20,
            "slot": "6",
            "type": "t_bool"
          }
        ],
        "numberOfBytes": "224"
      },
      "t_uint256": {
        "encoding": "inplace",
        "label": "uint256",
        "numberOfBytes": "32"
      },
      "t_uint8": {
        "encoding": "inplace",
        "label": "uint8",
        "numberOfBytes": "1"
      }
    }
  }
}