{
  "address": "0x136fA646d6eEB201D4424c0c6a8d6cD806fEB96f",
  "abi": [
    {
      "inputs": [
        {
          "internalType": "address",
          "name": "_proxyRegistryAddress",
          "type": "address"
        }
      ],
      "stateMutability": "nonpayable",
      "type": "constructor"
    },
    {
      "anonymous": false,
      "inputs": [
        {
          "indexed": true,
          "internalType": "address",
          "name": "owner",
          "type": "address"
        },
        {
          "indexed": true,
          "internalType": "address",
          "name": "approved",
          "type": "address"
        },
        {
          "indexed": true,
          "internalType": "uint256",
          "name": "tokenId",
          "type": "uint256"
        }
      ],
      "name": "Approval",
      "type": "event"
    },
    {
      "anonymous": false,
      "inputs": [
        {
          "indexed": true,
          "internalType": "address",
          "name": "owner",
          "type": "address"
        },
        {
          "indexed": true,
          "internalType": "address",
          "name": "operator",
          "type": "address"
        },
        {
          "indexed": false,
          "internalType": "bool",
          "name": "approved",
          "type": "bool"
        }
      ],
      "name": "ApprovalForAll",
      "type": "event"
    },
    {
      "anonymous": false,
      "inputs": [
        {
          "indexed": false,
          "internalType": "address",
          "name": "buyer",
          "type": "address"
        },
        {
          "indexed": true,
          "internalType": "uint256",
          "name": "tokenId",
          "type": "uint256"
        }
      ],
      "name": "ArtFrozen",
      "type": "event"
    },
    {
      "anonymous": false,
      "inputs": [
        {
          "indexed": false,
          "internalType": "address",
          "name": "buyer",
          "type": "address"
        },
        {
          "indexed": true,
          "internalType": "uint256",
          "name": "tokenId",
          "type": "uint256"
        },
        {
          "indexed": false,
          "internalType": "bytes",
          "name": "data",
          "type": "bytes"
        }
      ],
      "name": "ArtTransferred",
      "type": "event"
    },
    {
      "anonymous": false,
      "inputs": [
        {
          "indexed": true,
          "internalType": "address",
          "name": "previousOwner",
          "type": "address"
        },
        {
          "indexed": true,
          "internalType": "address",
          "name": "newOwner",
          "type": "address"
        }
      ],
      "name": "OwnershipTransferred",
      "type": "event"
    },
    {
      "anonymous": false,
      "inputs": [
        {
          "indexed": false,
          "internalType": "address",
          "name": "to",
          "type": "address"
        },
        {
          "indexed": false,
          "internalType": "uint256",
          "name": "tokenId",
          "type": "uint256"
        },
        {
          "indexed": false,
          "internalType": "string",
          "name": "uri",
          "type": "string"
        }
      ],
      "name": "ReadyForAuction",
      "type": "event"
    },
    {
      "anonymous": false,
      "inputs": [
        {
          "indexed": true,
          "internalType": "address",
          "name": "from",
          "type": "address"
        },
        {
          "indexed": true,
          "internalType": "address",
          "name": "to",
          "type": "address"
        },
        {
          "indexed": true,
          "internalType": "uint256",
          "name": "tokenId",
          "type": "uint256"
        }
      ],
      "name": "Transfer",
      "type": "event"
    },
    {
      "inputs": [
        {
          "internalType": "address",
          "name": "to",
          "type": "address"
        },
        {
          "internalType": "uint256",
          "name": "tokenId",
          "type": "uint256"
        }
      ],
      "name": "approve",
      "outputs": [],
      "stateMutability": "nonpayable",
      "type": "function"
    },
    {
      "inputs": [
        {
          "internalType": "uint256",
          "name": "tokenId",
          "type": "uint256"
        }
      ],
      "name": "auctionable",
      "outputs": [
        {
          "internalType": "bool",
          "name": "",
          "type": "bool"
        }
      ],
      "stateMutability": "view",
      "type": "function"
    },
    {
      "inputs": [
        {
          "internalType": "address",
          "name": "owner",
          "type": "address"
        }
      ],
      "name": "balanceOf",
      "outputs": [
        {
          "internalType": "uint256",
          "name": "",
          "type": "uint256"
        }
      ],
      "stateMutability": "view",
      "type": "function"
    },
    {
      "inputs": [],
      "name": "contractURI",
      "outputs": [
        {
          "internalType": "string",
          "name": "",
          "type": "string"
        }
      ],
      "stateMutability": "pure",
      "type": "function"
    },
    {
      "inputs": [
        {
          "internalType": "address",
          "name": "buyer",
          "type": "address"
        },
        {
          "internalType": "uint256",
          "name": "tokenId",
          "type": "uint256"
        }
      ],
      "name": "freeze",
      "outputs": [],
      "stateMutability": "nonpayable",
      "type": "function"
    },
    {
      "inputs": [
        {
          "internalType": "uint256",
          "name": "tokenId",
          "type": "uint256"
        }
      ],
      "name": "getApproved",
      "outputs": [
        {
          "internalType": "address",
          "name": "",
          "type": "address"
        }
      ],
      "stateMutability": "view",
      "type": "function"
    },
    {
      "inputs": [
        {
          "internalType": "address",
          "name": "owner",
          "type": "address"
        },
        {
          "internalType": "address",
          "name": "operator",
          "type": "address"
        }
      ],
      "name": "isApprovedForAll",
      "outputs": [
        {
          "internalType": "bool",
          "name": "",
          "type": "bool"
        }
      ],
      "stateMutability": "view",
      "type": "function"
    },
    {
      "inputs": [],
      "name": "justice",
      "outputs": [
        {
          "internalType": "address",
          "name": "",
          "type": "address"
        }
      ],
      "stateMutability": "view",
      "type": "function"
    },
    {
      "inputs": [
        {
          "internalType": "address",
          "name": "creator",
          "type": "address"
        },
        {
          "internalType": "string",
          "name": "uri",
          "type": "string"
        }
      ],
      "name": "mintForAuction",
      "outputs": [
        {
          "internalType": "uint256",
          "name": "tokenId",
          "type": "uint256"
        }
      ],
      "stateMutability": "nonpayable",
      "type": "function"
    },
    {
      "inputs": [],
      "name": "name",
      "outputs": [
        {
          "internalType": "string",
          "name": "",
          "type": "string"
        }
      ],
      "stateMutability": "view",
      "type": "function"
    },
    {
      "inputs": [
        {
          "internalType": "address",
          "name": "",
          "type": "address"
        },
        {
          "internalType": "address",
          "name": "",
          "type": "address"
        },
        {
          "internalType": "uint256",
          "name": "",
          "type": "uint256"
        },
        {
          "internalType": "bytes",
          "name": "",
          "type": "bytes"
        }
      ],
      "name": "onERC721Received",
      "outputs": [
        {
          "internalType": "bytes4",
          "name": "",
          "type": "bytes4"
        }
      ],
      "stateMutability": "nonpayable",
      "type": "function"
    },
    {
      "inputs": [],
      "name": "owner",
      "outputs": [
        {
          "internalType": "address",
          "name": "",
          "type": "address"
        }
      ],
      "stateMutability": "view",
      "type": "function"
    },
    {
      "inputs": [
        {
          "internalType": "uint256",
          "name": "tokenId",
          "type": "uint256"
        }
      ],
      "name": "ownerOf",
      "outputs": [
        {
          "internalType": "address",
          "name": "",
          "type": "address"
        }
      ],
      "stateMutability": "view",
      "type": "function"
    },
    {
      "inputs": [],
      "name": "renounceOwnership",
      "outputs": [],
      "stateMutability": "nonpayable",
      "type": "function"
    },
    {
      "inputs": [
        {
          "internalType": "uint256",
          "name": "",
          "type": "uint256"
        },
        {
          "internalType": "uint256",
          "name": "value",
          "type": "uint256"
        }
      ],
      "name": "royaltyInfo",
      "outputs": [
        {
          "internalType": "address",
          "name": "receiver",
          "type": "address"
        },
        {
          "internalType": "uint256",
          "name": "royaltyAmount",
          "type": "uint256"
        }
      ],
      "stateMutability": "view",
      "type": "function"
    },
    {
      "inputs": [
        {
          "internalType": "address",
          "name": "from",
          "type": "address"
        },
        {
          "internalType": "address",
          "name": "to",
          "type": "address"
        },
        {
          "internalType": "uint256",
          "name": "tokenId",
          "type": "uint256"
        }
      ],
      "name": "safeTransferFrom",
      "outputs": [],
      "stateMutability": "nonpayable",
      "type": "function"
    },
    {
      "inputs": [
        {
          "internalType": "address",
          "name": "from",
          "type": "address"
        },
        {
          "internalType": "address",
          "name": "to",
          "type": "address"
        },
        {
          "internalType": "uint256",
          "name": "tokenId",
          "type": "uint256"
        },
        {
          "internalType": "bytes",
          "name": "_data",
          "type": "bytes"
        }
      ],
      "name": "safeTransferFrom",
      "outputs": [],
      "stateMutability": "nonpayable",
      "type": "function"
    },
    {
      "inputs": [
        {
          "internalType": "address",
          "name": "operator",
          "type": "address"
        },
        {
          "internalType": "bool",
          "name": "approved",
          "type": "bool"
        }
      ],
      "name": "setApprovalForAll",
      "outputs": [],
      "stateMutability": "nonpayable",
      "type": "function"
    },
    {
      "inputs": [
        {
          "internalType": "address",
          "name": "_justice",
          "type": "address"
        }
      ],
      "name": "setJustice",
      "outputs": [],
      "stateMutability": "nonpayable",
      "type": "function"
    },
    {
      "inputs": [
        {
          "internalType": "address",
          "name": "recipient",
          "type": "address"
        },
        {
          "internalType": "uint256",
          "name": "value",
          "type": "uint256"
        }
      ],
      "name": "setRoyalties",
      "outputs": [],
      "stateMutability": "nonpayable",
      "type": "function"
    },
    {
      "inputs": [
        {
          "internalType": "bytes4",
          "name": "interfaceId",
          "type": "bytes4"
        }
      ],
      "name": "supportsInterface",
      "outputs": [
        {
          "internalType": "bool",
          "name": "",
          "type": "bool"
        }
      ],
      "stateMutability": "view",
      "type": "function"
    },
    {
      "inputs": [],
      "name": "symbol",
      "outputs": [
        {
          "internalType": "string",
          "name": "",
          "type": "string"
        }
      ],
      "stateMutability": "view",
      "type": "function"
    },
    {
      "inputs": [
        {
          "internalType": "uint256",
          "name": "tokenId",
          "type": "uint256"
        }
      ],
      "name": "tokenURI",
      "outputs": [
        {
          "internalType": "string",
          "name": "",
          "type": "string"
        }
      ],
      "stateMutability": "view",
      "type": "function"
    },
    {
      "inputs": [
        {
          "internalType": "address",
          "name": "from",
          "type": "address"
        },
        {
          "internalType": "address",
          "name": "to",
          "type": "address"
        },
        {
          "internalType": "uint256",
          "name": "tokenId",
          "type": "uint256"
        }
      ],
      "name": "transferFrom",
      "outputs": [],
      "stateMutability": "nonpayable",
      "type": "function"
    },
    {
      "inputs": [
        {
          "internalType": "address",
          "name": "newOwner",
          "type": "address"
        }
      ],
      "name": "transferOwnership",
      "outputs": [],
      "stateMutability": "nonpayable",
      "type": "function"
    },
    {
      "inputs": [
        {
          "internalType": "uint256",
          "name": "tokenId",
          "type": "uint256"
        },
        {
          "internalType": "bytes",
          "name": "data",
          "type": "bytes"
        }
      ],
      "name": "transferToBuyer",
      "outputs": [],
      "stateMutability": "nonpayable",
      "type": "function"
    }
  ],
  "transactionHash": "0x5f197429caf8bf049342a46f0b2cab79a97d81ed642009e0e21dd2dd81fbed3a",
  "args": [
    "0xa5409ec958c83c3f309868babaca7c86dcb077c1"
  ],
  "numDeployments": 1,
  "solcInputHash": "da8abac695309491cdcd02fb46bde356",
  "bytecode": "0x60806040523480156200001157600080fd5b50604051620042b5380380620042b58339818101604052810190620000379190620002da565b6040518060400160405280600781526020017f526573746f7265000000000000000000000000000000000000000000000000008152506040518060400160405280600481526020017f52455354000000000000000000000000000000000000000000000000000000008152508282828160009080519060200190620000be92919062000213565b508060019080519060200190620000d792919062000213565b50505080600860006101000a81548173ffffffffffffffffffffffffffffffffffffffff021916908373ffffffffffffffffffffffffffffffffffffffff1602179055505050506200013e620001326200014560201b60201c565b6200014d60201b60201c565b50620003c4565b600033905090565b6000600960009054906101000a900473ffffffffffffffffffffffffffffffffffffffff16905081600960006101000a81548173ffffffffffffffffffffffffffffffffffffffff021916908373ffffffffffffffffffffffffffffffffffffffff1602179055508173ffffffffffffffffffffffffffffffffffffffff168173ffffffffffffffffffffffffffffffffffffffff167f8be0079c531659141344cd1fd0a4f28419497f9722a3daafe3b4186f6b6457e060405160405180910390a35050565b828054620002219062000340565b90600052602060002090601f01602090048101928262000245576000855562000291565b82601f106200026057805160ff191683800117855562000291565b8280016001018555821562000291579182015b828111156200029057825182559160200191906001019062000273565b5b509050620002a09190620002a4565b5090565b5b80821115620002bf576000816000905550600101620002a5565b5090565b600081519050620002d481620003aa565b92915050565b600060208284031215620002f357620002f2620003a5565b5b60006200030384828501620002c3565b91505092915050565b6000620003198262000320565b9050919050565b600073ffffffffffffffffffffffffffffffffffffffff82169050919050565b600060028204905060018216806200035957607f821691505b6020821081141562000370576200036f62000376565b5b50919050565b7f4e487b7100000000000000000000000000000000000000000000000000000000600052602260045260246000fd5b600080fd5b620003b5816200030c565b8114620003c157600080fd5b50565b613ee180620003d46000396000f3fe608060405234801561001057600080fd5b506004361061018e5760003560e01c806370a08231116100de578063a57f7ad811610097578063d793a17911610071578063d793a17914610492578063e8a3d485146104c2578063e985e9c5146104e0578063f2fde38b146105105761018e565b8063a57f7ad81461042a578063b88d4fde14610446578063c87b56dd146104625761018e565b806370a082311461037c578063715018a6146103ac5780638c7ea24b146103b65780638da5cb5b146103d257806395d89b41146103f0578063a22cb4651461040e5761018e565b806323b872dd1161014b5780632a55205a116101255780632a55205a146102cf57806342842e0e146103005780634cc96fd51461031c5780636352211e1461034c5761018e565b806323b872dd1461027b578063245d61a61461029757806324bce60c146102b35761018e565b806301ffc9a71461019357806306fdde03146101c3578063081812fc146101e1578063095ea7b3146102115780630d8013351461022d578063150b7a021461024b575b600080fd5b6101ad60048036038101906101a89190612a8b565b61052c565b6040516101ba91906130bb565b60405180910390f35b6101cb61053e565b6040516101d891906130f1565b60405180910390f35b6101fb60048036038101906101f69190612b12565b6105d0565b6040516102089190612fbd565b60405180910390f35b61022b60048036038101906102269190612a4b565b610655565b005b61023561076d565b6040516102429190612fbd565b60405180910390f35b6102656004803603810190610260919061292c565b610793565b60405161027291906130d6565b60405180910390f35b610295600480360381019061029091906128d9565b6107a7565b005b6102b160048036038101906102ac9190612b3f565b610807565b005b6102cd60048036038101906102c89190612a4b565b610933565b005b6102e960048036038101906102e49190612b9b565b610a51565b6040516102f7929190613054565b60405180910390f35b61031a600480360381019061031591906128d9565b610b11565b005b610336600480360381019061033191906129ef565b610b31565b60405161034391906133b3565b60405180910390f35b61036660048036038101906103619190612b12565b610c64565b6040516103739190612fbd565b60405180910390f35b6103966004803603810190610391919061286c565b610d16565b6040516103a391906133b3565b60405180910390f35b6103b4610dce565b005b6103d060048036038101906103cb9190612a4b565b610e56565b005b6103da610ee0565b6040516103e79190612fbd565b60405180910390f35b6103f8610f0a565b60405161040591906130f1565b60405180910390f35b610428600480360381019061042391906129af565b610f9c565b005b610444600480360381019061043f919061286c565b61111d565b005b610460600480360381019061045b919061292c565b6111dd565b005b61047c60048036038101906104779190612b12565b61123f565b60405161048991906130f1565b60405180910390f35b6104ac60048036038101906104a79190612b12565b611251565b6040516104b991906130bb565b60405180910390f35b6104ca611305565b6040516104d791906130f1565b60405180910390f35b6104fa60048036038101906104f59190612899565b611325565b60405161050791906130bb565b60405180910390f35b61052a6004803603810190610525919061286c565b611427565b005b60006105378261151f565b9050919050565b60606000805461054d90613675565b80601f016020809104026020016040519081016040528092919081815260200182805461057990613675565b80156105c65780601f1061059b576101008083540402835291602001916105c6565b820191906000526020600020905b8154815290600101906020018083116105a957829003601f168201915b5050505050905090565b60006105db82611599565b61061a576040517f08c379a0000000000000000000000000000000000000000000000000000000008152600401610611906132d3565b60405180910390fd5b6004600083815260200190815260200160002060009054906101000a900473ffffffffffffffffffffffffffffffffffffffff169050919050565b600061066082610c64565b90508073ffffffffffffffffffffffffffffffffffffffff168373ffffffffffffffffffffffffffffffffffffffff1614156106d1576040517f08c379a00000000000000000000000000000000000000000000000000000000081526004016106c890613353565b60405180910390fd5b8073ffffffffffffffffffffffffffffffffffffffff166106f0611605565b73ffffffffffffffffffffffffffffffffffffffff16148061071f575061071e81610719611605565b611325565b5b61075e576040517f08c379a0000000000000000000000000000000000000000000000000000000008152600401610755906131f3565b60405180910390fd5b610768838361160d565b505050565b600c60009054906101000a900473ffffffffffffffffffffffffffffffffffffffff1681565b600063150b7a0260e01b9050949350505050565b6107b86107b2611605565b826116c6565b6107f7576040517f08c379a00000000000000000000000000000000000000000000000000000000081526004016107ee90613373565b60405180910390fd5b6108028383836117a4565b505050565b61080f611605565b73ffffffffffffffffffffffffffffffffffffffff1661082d610ee0565b73ffffffffffffffffffffffffffffffffffffffff1614610883576040517f08c379a000000000000000000000000000000000000000000000000000000000815260040161087a906132f3565b60405180910390fd5b817f2100d6eaadb9162c3c47b8c058cd6340e944f932331f8ae70c91f7cf45929014600b600085815260200190815260200160002060009054906101000a900473ffffffffffffffffffffffffffffffffffffffff16836040516108e8929190613024565b60405180910390a261092f30600b600085815260200190815260200160002060009054906101000a900473ffffffffffffffffffffffffffffffffffffffff168484611a00565b5050565b600c60009054906101000a900473ffffffffffffffffffffffffffffffffffffffff1673ffffffffffffffffffffffffffffffffffffffff163373ffffffffffffffffffffffffffffffffffffffff16146109c3576040517f08c379a00000000000000000000000000000000000000000000000000000000081526004016109ba90613273565b60405180910390fd5b81600b600083815260200190815260200160002060006101000a81548173ffffffffffffffffffffffffffffffffffffffff021916908373ffffffffffffffffffffffffffffffffffffffff160217905550807f9a90b690b283d5b728bf75802cfe38a25c3a9121fa2c9a1a9b98e977f0910b9c83604051610a459190612fbd565b60405180910390a25050565b600080600060076040518060400160405290816000820160009054906101000a900473ffffffffffffffffffffffffffffffffffffffff1673ffffffffffffffffffffffffffffffffffffffff1673ffffffffffffffffffffffffffffffffffffffff1681526020016000820160149054906101000a900462ffffff1662ffffff1662ffffff1681525050905080600001519250612710816020015162ffffff1685610afd919061351f565b610b0791906134ee565b9150509250929050565b610b2c838383604051806020016040528060008152506111dd565b505050565b6000610b3b611605565b73ffffffffffffffffffffffffffffffffffffffff16610b59610ee0565b73ffffffffffffffffffffffffffffffffffffffff1614610baf576040517f08c379a0000000000000000000000000000000000000000000000000000000008152600401610ba6906132f3565b60405180910390fd5b6000610bbb600a611a5c565b9050610bc8843083611a6a565b610bd28184611a8a565b610bdc600a611afe565b610c1e846000836040518060400160405280601b81526020017f4e657720746f6b656e20726561647920666f722061756374696f6e0000000000815250610793565b507fb971b80483a21abdb157bd662939d519b3b05d96653e672a51da2641297355bd308285604051610c529392919061307d565b60405180910390a18091505092915050565b6000806002600084815260200190815260200160002060009054906101000a900473ffffffffffffffffffffffffffffffffffffffff169050600073ffffffffffffffffffffffffffffffffffffffff168173ffffffffffffffffffffffffffffffffffffffff161415610d0d576040517f08c379a0000000000000000000000000000000000000000000000000000000008152600401610d0490613233565b60405180910390fd5b80915050919050565b60008073ffffffffffffffffffffffffffffffffffffffff168273ffffffffffffffffffffffffffffffffffffffff161415610d87576040517f08c379a0000000000000000000000000000000000000000000000000000000008152600401610d7e90613213565b60405180910390fd5b600360008373ffffffffffffffffffffffffffffffffffffffff1673ffffffffffffffffffffffffffffffffffffffff168152602001908152602001600020549050919050565b610dd6611605565b73ffffffffffffffffffffffffffffffffffffffff16610df4610ee0565b73ffffffffffffffffffffffffffffffffffffffff1614610e4a576040517f08c379a0000000000000000000000000000000000000000000000000000000008152600401610e41906132f3565b60405180910390fd5b610e546000611b14565b565b610e5e611605565b73ffffffffffffffffffffffffffffffffffffffff16610e7c610ee0565b73ffffffffffffffffffffffffffffffffffffffff1614610ed2576040517f08c379a0000000000000000000000000000000000000000000000000000000008152600401610ec9906132f3565b60405180910390fd5b610edc8282611bda565b5050565b6000600960009054906101000a900473ffffffffffffffffffffffffffffffffffffffff16905090565b606060018054610f1990613675565b80601f0160208091040260200160405190810160405280929190818152602001828054610f4590613675565b8015610f925780601f10610f6757610100808354040283529160200191610f92565b820191906000526020600020905b815481529060010190602001808311610f7557829003601f168201915b5050505050905090565b610fa4611605565b73ffffffffffffffffffffffffffffffffffffffff168273ffffffffffffffffffffffffffffffffffffffff161415611012576040517f08c379a0000000000000000000000000000000000000000000000000000000008152600401611009906131b3565b60405180910390fd5b806005600061101f611605565b73ffffffffffffffffffffffffffffffffffffffff1673ffffffffffffffffffffffffffffffffffffffff16815260200190815260200160002060008473ffffffffffffffffffffffffffffffffffffffff1673ffffffffffffffffffffffffffffffffffffffff16815260200190815260200160002060006101000a81548160ff0219169083151502179055508173ffffffffffffffffffffffffffffffffffffffff166110cc611605565b73ffffffffffffffffffffffffffffffffffffffff167f17307eab39ab6107e8899845ad3d59bd9653f200f220920489ca2b5937696c318360405161111191906130bb565b60405180910390a35050565b611125611605565b73ffffffffffffffffffffffffffffffffffffffff16611143610ee0565b73ffffffffffffffffffffffffffffffffffffffff1614611199576040517f08c379a0000000000000000000000000000000000000000000000000000000008152600401611190906132f3565b60405180910390fd5b80600c60006101000a81548173ffffffffffffffffffffffffffffffffffffffff021916908373ffffffffffffffffffffffffffffffffffffffff16021790555050565b6111ee6111e8611605565b836116c6565b61122d576040517f08c379a000000000000000000000000000000000000000000000000000000000815260040161122490613373565b60405180910390fd5b61123984848484611a00565b50505050565b606061124a82611cc4565b9050919050565b600061125c82611599565b61129b576040517f08c379a000000000000000000000000000000000000000000000000000000000815260040161129290613393565b60405180910390fd5b600b600083815260200190815260200160002060009054906101000a900473ffffffffffffffffffffffffffffffffffffffff1673ffffffffffffffffffffffffffffffffffffffff16600073ffffffffffffffffffffffffffffffffffffffff16149050919050565b60606040518060600160405280603f8152602001613e6d603f9139905090565b600080600860009054906101000a900473ffffffffffffffffffffffffffffffffffffffff1690508273ffffffffffffffffffffffffffffffffffffffff168173ffffffffffffffffffffffffffffffffffffffff1663c4552791866040518263ffffffff1660e01b815260040161139d9190612fbd565b60206040518083038186803b1580156113b557600080fd5b505afa1580156113c9573d6000803e3d6000fd5b505050506040513d601f19601f820116820180604052508101906113ed9190612ae5565b73ffffffffffffffffffffffffffffffffffffffff161415611413576001915050611421565b61141d8484611e16565b9150505b92915050565b61142f611605565b73ffffffffffffffffffffffffffffffffffffffff1661144d610ee0565b73ffffffffffffffffffffffffffffffffffffffff16146114a3576040517f08c379a000000000000000000000000000000000000000000000000000000000815260040161149a906132f3565b60405180910390fd5b600073ffffffffffffffffffffffffffffffffffffffff168173ffffffffffffffffffffffffffffffffffffffff161415611513576040517f08c379a000000000000000000000000000000000000000000000000000000000815260040161150a90613153565b60405180910390fd5b61151c81611b14565b50565b60007f2a55205a000000000000000000000000000000000000000000000000000000007bffffffffffffffffffffffffffffffffffffffffffffffffffffffff1916827bffffffffffffffffffffffffffffffffffffffffffffffffffffffff19161480611592575061159182611eaa565b5b9050919050565b60008073ffffffffffffffffffffffffffffffffffffffff166002600084815260200190815260200160002060009054906101000a900473ffffffffffffffffffffffffffffffffffffffff1673ffffffffffffffffffffffffffffffffffffffff1614159050919050565b600033905090565b816004600083815260200190815260200160002060006101000a81548173ffffffffffffffffffffffffffffffffffffffff021916908373ffffffffffffffffffffffffffffffffffffffff160217905550808273ffffffffffffffffffffffffffffffffffffffff1661168083610c64565b73ffffffffffffffffffffffffffffffffffffffff167f8c5be1e5ebec7d5bd14f71427d1e84f3dd0314c0f7b2291e5b200ac8c7c3b92560405160405180910390a45050565b60006116d182611599565b611710576040517f08c379a0000000000000000000000000000000000000000000000000000000008152600401611707906131d3565b60405180910390fd5b600061171b83610c64565b90508073ffffffffffffffffffffffffffffffffffffffff168473ffffffffffffffffffffffffffffffffffffffff16148061178a57508373ffffffffffffffffffffffffffffffffffffffff16611772846105d0565b73ffffffffffffffffffffffffffffffffffffffff16145b8061179b575061179a8185611325565b5b91505092915050565b8273ffffffffffffffffffffffffffffffffffffffff166117c482610c64565b73ffffffffffffffffffffffffffffffffffffffff161461181a576040517f08c379a000000000000000000000000000000000000000000000000000000000815260040161181190613313565b60405180910390fd5b600073ffffffffffffffffffffffffffffffffffffffff168273ffffffffffffffffffffffffffffffffffffffff16141561188a576040517f08c379a000000000000000000000000000000000000000000000000000000000815260040161188190613193565b60405180910390fd5b611895838383611f8c565b6118a060008261160d565b6001600360008573ffffffffffffffffffffffffffffffffffffffff1673ffffffffffffffffffffffffffffffffffffffff16815260200190815260200160002060008282546118f09190613579565b925050819055506001600360008473ffffffffffffffffffffffffffffffffffffffff1673ffffffffffffffffffffffffffffffffffffffff16815260200190815260200160002060008282546119479190613498565b92505081905550816002600083815260200190815260200160002060006101000a81548173ffffffffffffffffffffffffffffffffffffffff021916908373ffffffffffffffffffffffffffffffffffffffff160217905550808273ffffffffffffffffffffffffffffffffffffffff168473ffffffffffffffffffffffffffffffffffffffff167fddf252ad1be2c89b69c2b068fc378daa952ba7f163c4a11628f55a4df523b3ef60405160405180910390a4505050565b611a0b8484846117a4565b611a1784848484611f9c565b611a56576040517f08c379a0000000000000000000000000000000000000000000000000000000008152600401611a4d90613133565b60405180910390fd5b50505050565b600081600001549050919050565b611a8583838360405180602001604052806000815250612133565b505050565b611a9382611599565b611ad2576040517f08c379a0000000000000000000000000000000000000000000000000000000008152600401611ac990613253565b60405180910390fd5b80600660008481526020019081526020016000209080519060200190611af992919061266b565b505050565b6001816000016000828254019250508190555050565b6000600960009054906101000a900473ffffffffffffffffffffffffffffffffffffffff16905081600960006101000a81548173ffffffffffffffffffffffffffffffffffffffff021916908373ffffffffffffffffffffffffffffffffffffffff1602179055508173ffffffffffffffffffffffffffffffffffffffff168173ffffffffffffffffffffffffffffffffffffffff167f8be0079c531659141344cd1fd0a4f28419497f9722a3daafe3b4186f6b6457e060405160405180910390a35050565b612710811115611c1f576040517f08c379a0000000000000000000000000000000000000000000000000000000008152600401611c1690613113565b60405180910390fd5b60405180604001604052808373ffffffffffffffffffffffffffffffffffffffff1681526020018262ffffff16815250600760008201518160000160006101000a81548173ffffffffffffffffffffffffffffffffffffffff021916908373ffffffffffffffffffffffffffffffffffffffff16021790555060208201518160000160146101000a81548162ffffff021916908362ffffff1602179055509050505050565b6060611ccf82611599565b611d0e576040517f08c379a0000000000000000000000000000000000000000000000000000000008152600401611d05906132b3565b60405180910390fd5b6000600660008481526020019081526020016000208054611d2e90613675565b80601f0160208091040260200160405190810160405280929190818152602001828054611d5a90613675565b8015611da75780601f10611d7c57610100808354040283529160200191611da7565b820191906000526020600020905b815481529060010190602001808311611d8a57829003601f168201915b505050505090506000611db8612190565b9050600081511415611dce578192505050611e11565b600082511115611e03578082604051602001611deb929190612f99565b60405160208183030381529060405292505050611e11565b611e0c846121a7565b925050505b919050565b6000600560008473ffffffffffffffffffffffffffffffffffffffff1673ffffffffffffffffffffffffffffffffffffffff16815260200190815260200160002060008373ffffffffffffffffffffffffffffffffffffffff1673ffffffffffffffffffffffffffffffffffffffff16815260200190815260200160002060009054906101000a900460ff16905092915050565b60007f80ac58cd000000000000000000000000000000000000000000000000000000007bffffffffffffffffffffffffffffffffffffffffffffffffffffffff1916827bffffffffffffffffffffffffffffffffffffffffffffffffffffffff19161480611f7557507f5b5e139f000000000000000000000000000000000000000000000000000000007bffffffffffffffffffffffffffffffffffffffffffffffffffffffff1916827bffffffffffffffffffffffffffffffffffffffffffffffffffffffff1916145b80611f855750611f848261224e565b5b9050919050565b611f978383836122b8565b505050565b6000611fbd8473ffffffffffffffffffffffffffffffffffffffff166122bd565b15612126578373ffffffffffffffffffffffffffffffffffffffff1663150b7a02611fe6611605565b8786866040518563ffffffff1660e01b81526004016120089493929190612fd8565b602060405180830381600087803b15801561202257600080fd5b505af192505050801561205357506040513d601f19601f820116820180604052508101906120509190612ab8565b60015b6120d6573d8060008114612083576040519150601f19603f3d011682016040523d82523d6000602084013e612088565b606091505b506000815114156120ce576040517f08c379a00000000000000000000000000000000000000000000000000000000081526004016120c590613133565b60405180910390fd5b805181602001fd5b63150b7a0260e01b7bffffffffffffffffffffffffffffffffffffffffffffffffffffffff1916817bffffffffffffffffffffffffffffffffffffffffffffffffffffffff19161491505061212b565b600190505b949350505050565b61213e8484846122e0565b61214b6000848484611f9c565b61218a576040517f08c379a000000000000000000000000000000000000000000000000000000000815260040161218190613133565b60405180910390fd5b50505050565b606060405180602001604052806000815250905090565b60606121b282611599565b6121f1576040517f08c379a00000000000000000000000000000000000000000000000000000000081526004016121e890613333565b60405180910390fd5b60006121fb612190565b9050600081511161221b5760405180602001604052806000815250612246565b806122258461250a565b604051602001612236929190612f99565b6040516020818303038152906040525b915050919050565b60007f01ffc9a7000000000000000000000000000000000000000000000000000000007bffffffffffffffffffffffffffffffffffffffffffffffffffffffff1916827bffffffffffffffffffffffffffffffffffffffffffffffffffffffff1916149050919050565b505050565b6000808273ffffffffffffffffffffffffffffffffffffffff163b119050919050565b600073ffffffffffffffffffffffffffffffffffffffff168273ffffffffffffffffffffffffffffffffffffffff161415612350576040517f08c379a000000000000000000000000000000000000000000000000000000000815260040161234790613293565b60405180910390fd5b61235981611599565b15612399576040517f08c379a000000000000000000000000000000000000000000000000000000000815260040161239090613173565b60405180910390fd5b6123a560008383611f8c565b6001600360008473ffffffffffffffffffffffffffffffffffffffff1673ffffffffffffffffffffffffffffffffffffffff16815260200190815260200160002060008282546123f59190613498565b92505081905550816002600083815260200190815260200160002060006101000a81548173ffffffffffffffffffffffffffffffffffffffff021916908373ffffffffffffffffffffffffffffffffffffffff160217905550808373ffffffffffffffffffffffffffffffffffffffff16600073ffffffffffffffffffffffffffffffffffffffff167fddf252ad1be2c89b69c2b068fc378daa952ba7f163c4a11628f55a4df523b3ef60405160405180910390a4808273ffffffffffffffffffffffffffffffffffffffff168473ffffffffffffffffffffffffffffffffffffffff167fddf252ad1be2c89b69c2b068fc378daa952ba7f163c4a11628f55a4df523b3ef60405160405180910390a4505050565b60606000821415612552576040518060400160405280600181526020017f30000000000000000000000000000000000000000000000000000000000000008152509050612666565b600082905060005b6000821461258457808061256d906136d8565b915050600a8261257d91906134ee565b915061255a565b60008167ffffffffffffffff8111156125a05761259f61380e565b5b6040519080825280601f01601f1916602001820160405280156125d25781602001600182028036833780820191505090505b5090505b6000851461265f576001826125eb9190613579565b9150600a856125fa9190613721565b60306126069190613498565b60f81b81838151811061261c5761261b6137df565b5b60200101907effffffffffffffffffffffffffffffffffffffffffffffffffffffffffffff1916908160001a905350600a8561265891906134ee565b94506125d6565b8093505050505b919050565b82805461267790613675565b90600052602060002090601f01602090048101928261269957600085556126e0565b82601f106126b257805160ff19168380011785556126e0565b828001600101855582156126e0579182015b828111156126df5782518255916020019190600101906126c4565b5b5090506126ed91906126f1565b5090565b5b8082111561270a5760008160009055506001016126f2565b5090565b600061272161271c846133f3565b6133ce565b90508281526020810184848401111561273d5761273c613842565b5b612748848285613633565b509392505050565b600061276361275e84613424565b6133ce565b90508281526020810184848401111561277f5761277e613842565b5b61278a848285613633565b509392505050565b6000813590506127a181613df9565b92915050565b6000813590506127b681613e10565b92915050565b6000813590506127cb81613e27565b92915050565b6000815190506127e081613e27565b92915050565b600082601f8301126127fb576127fa61383d565b5b813561280b84826020860161270e565b91505092915050565b60008151905061282381613e3e565b92915050565b600082601f83011261283e5761283d61383d565b5b813561284e848260208601612750565b91505092915050565b60008135905061286681613e55565b92915050565b6000602082840312156128825761288161384c565b5b600061289084828501612792565b91505092915050565b600080604083850312156128b0576128af61384c565b5b60006128be85828601612792565b92505060206128cf85828601612792565b9150509250929050565b6000806000606084860312156128f2576128f161384c565b5b600061290086828701612792565b935050602061291186828701612792565b925050604061292286828701612857565b9150509250925092565b600080600080608085870312156129465761294561384c565b5b600061295487828801612792565b945050602061296587828801612792565b935050604061297687828801612857565b925050606085013567ffffffffffffffff81111561299757612996613847565b5b6129a3878288016127e6565b91505092959194509250565b600080604083850312156129c6576129c561384c565b5b60006129d485828601612792565b92505060206129e5858286016127a7565b9150509250929050565b60008060408385031215612a0657612a0561384c565b5b6000612a1485828601612792565b925050602083013567ffffffffffffffff811115612a3557612a34613847565b5b612a4185828601612829565b9150509250929050565b60008060408385031215612a6257612a6161384c565b5b6000612a7085828601612792565b9250506020612a8185828601612857565b9150509250929050565b600060208284031215612aa157612aa061384c565b5b6000612aaf848285016127bc565b91505092915050565b600060208284031215612ace57612acd61384c565b5b6000612adc848285016127d1565b91505092915050565b600060208284031215612afb57612afa61384c565b5b6000612b0984828501612814565b91505092915050565b600060208284031215612b2857612b2761384c565b5b6000612b3684828501612857565b91505092915050565b60008060408385031215612b5657612b5561384c565b5b6000612b6485828601612857565b925050602083013567ffffffffffffffff811115612b8557612b84613847565b5b612b91858286016127e6565b9150509250929050565b60008060408385031215612bb257612bb161384c565b5b6000612bc085828601612857565b9250506020612bd185828601612857565b9150509250929050565b612be4816135ad565b82525050565b612bf3816135bf565b82525050565b612c02816135cb565b82525050565b6000612c1382613455565b612c1d818561346b565b9350612c2d818560208601613642565b612c3681613851565b840191505092915050565b6000612c4c82613460565b612c56818561347c565b9350612c66818560208601613642565b612c6f81613851565b840191505092915050565b6000612c8582613460565b612c8f818561348d565b9350612c9f818560208601613642565b80840191505092915050565b6000612cb8601a8361347c565b9150612cc382613862565b602082019050919050565b6000612cdb60328361347c565b9150612ce68261388b565b604082019050919050565b6000612cfe60268361347c565b9150612d09826138da565b604082019050919050565b6000612d21601c8361347c565b9150612d2c82613929565b602082019050919050565b6000612d4460248361347c565b9150612d4f82613952565b604082019050919050565b6000612d6760198361347c565b9150612d72826139a1565b602082019050919050565b6000612d8a602c8361347c565b9150612d95826139ca565b604082019050919050565b6000612dad60388361347c565b9150612db882613a19565b604082019050919050565b6000612dd0602a8361347c565b9150612ddb82613a68565b604082019050919050565b6000612df360298361347c565b9150612dfe82613ab7565b604082019050919050565b6000612e16602e8361347c565b9150612e2182613b06565b604082019050919050565b6000612e39603c8361347c565b9150612e4482613b55565b604082019050919050565b6000612e5c60208361347c565b9150612e6782613ba4565b602082019050919050565b6000612e7f60318361347c565b9150612e8a82613bcd565b604082019050919050565b6000612ea2602c8361347c565b9150612ead82613c1c565b604082019050919050565b6000612ec560208361347c565b9150612ed082613c6b565b602082019050919050565b6000612ee860298361347c565b9150612ef382613c94565b604082019050919050565b6000612f0b602f8361347c565b9150612f1682613ce3565b604082019050919050565b6000612f2e60218361347c565b9150612f3982613d32565b604082019050919050565b6000612f5160318361347c565b9150612f5c82613d81565b604082019050919050565b6000612f7460168361347c565b9150612f7f82613dd0565b602082019050919050565b612f9381613629565b82525050565b6000612fa58285612c7a565b9150612fb18284612c7a565b91508190509392505050565b6000602082019050612fd26000830184612bdb565b92915050565b6000608082019050612fed6000830187612bdb565b612ffa6020830186612bdb565b6130076040830185612f8a565b81810360608301526130198184612c08565b905095945050505050565b60006040820190506130396000830185612bdb565b818103602083015261304b8184612c08565b90509392505050565b60006040820190506130696000830185612bdb565b6130766020830184612f8a565b9392505050565b60006060820190506130926000830186612bdb565b61309f6020830185612f8a565b81810360408301526130b18184612c41565b9050949350505050565b60006020820190506130d06000830184612bea565b92915050565b60006020820190506130eb6000830184612bf9565b92915050565b6000602082019050818103600083015261310b8184612c41565b905092915050565b6000602082019050818103600083015261312c81612cab565b9050919050565b6000602082019050818103600083015261314c81612cce565b9050919050565b6000602082019050818103600083015261316c81612cf1565b9050919050565b6000602082019050818103600083015261318c81612d14565b9050919050565b600060208201905081810360008301526131ac81612d37565b9050919050565b600060208201905081810360008301526131cc81612d5a565b9050919050565b600060208201905081810360008301526131ec81612d7d565b9050919050565b6000602082019050818103600083015261320c81612da0565b9050919050565b6000602082019050818103600083015261322c81612dc3565b9050919050565b6000602082019050818103600083015261324c81612de6565b9050919050565b6000602082019050818103600083015261326c81612e09565b9050919050565b6000602082019050818103600083015261328c81612e2c565b9050919050565b600060208201905081810360008301526132ac81612e4f565b9050919050565b600060208201905081810360008301526132cc81612e72565b9050919050565b600060208201905081810360008301526132ec81612e95565b9050919050565b6000602082019050818103600083015261330c81612eb8565b9050919050565b6000602082019050818103600083015261332c81612edb565b9050919050565b6000602082019050818103600083015261334c81612efe565b9050919050565b6000602082019050818103600083015261336c81612f21565b9050919050565b6000602082019050818103600083015261338c81612f44565b9050919050565b600060208201905081810360008301526133ac81612f67565b9050919050565b60006020820190506133c86000830184612f8a565b92915050565b60006133d86133e9565b90506133e482826136a7565b919050565b6000604051905090565b600067ffffffffffffffff82111561340e5761340d61380e565b5b61341782613851565b9050602081019050919050565b600067ffffffffffffffff82111561343f5761343e61380e565b5b61344882613851565b9050602081019050919050565b600081519050919050565b600081519050919050565b600082825260208201905092915050565b600082825260208201905092915050565b600081905092915050565b60006134a382613629565b91506134ae83613629565b9250827fffffffffffffffffffffffffffffffffffffffffffffffffffffffffffffffff038211156134e3576134e2613752565b5b828201905092915050565b60006134f982613629565b915061350483613629565b92508261351457613513613781565b5b828204905092915050565b600061352a82613629565b915061353583613629565b9250817fffffffffffffffffffffffffffffffffffffffffffffffffffffffffffffffff048311821515161561356e5761356d613752565b5b828202905092915050565b600061358482613629565b915061358f83613629565b9250828210156135a2576135a1613752565b5b828203905092915050565b60006135b882613609565b9050919050565b60008115159050919050565b60007fffffffff0000000000000000000000000000000000000000000000000000000082169050919050565b6000613602826135ad565b9050919050565b600073ffffffffffffffffffffffffffffffffffffffff82169050919050565b6000819050919050565b82818337600083830152505050565b60005b83811015613660578082015181840152602081019050613645565b8381111561366f576000848401525b50505050565b6000600282049050600182168061368d57607f821691505b602082108114156136a1576136a06137b0565b5b50919050565b6136b082613851565b810181811067ffffffffffffffff821117156136cf576136ce61380e565b5b80604052505050565b60006136e382613629565b91507fffffffffffffffffffffffffffffffffffffffffffffffffffffffffffffffff82141561371657613715613752565b5b600182019050919050565b600061372c82613629565b915061373783613629565b92508261374757613746613781565b5b828206905092915050565b7f4e487b7100000000000000000000000000000000000000000000000000000000600052601160045260246000fd5b7f4e487b7100000000000000000000000000000000000000000000000000000000600052601260045260246000fd5b7f4e487b7100000000000000000000000000000000000000000000000000000000600052602260045260246000fd5b7f4e487b7100000000000000000000000000000000000000000000000000000000600052603260045260246000fd5b7f4e487b7100000000000000000000000000000000000000000000000000000000600052604160045260246000fd5b600080fd5b600080fd5b600080fd5b600080fd5b6000601f19601f8301169050919050565b7f45524332393831526f79616c746965733a20546f6f2068696768000000000000600082015250565b7f4552433732313a207472616e7366657220746f206e6f6e20455243373231526560008201527f63656976657220696d706c656d656e7465720000000000000000000000000000602082015250565b7f4f776e61626c653a206e6577206f776e657220697320746865207a65726f206160008201527f6464726573730000000000000000000000000000000000000000000000000000602082015250565b7f4552433732313a20746f6b656e20616c7265616479206d696e74656400000000600082015250565b7f4552433732313a207472616e7366657220746f20746865207a65726f2061646460008201527f7265737300000000000000000000000000000000000000000000000000000000602082015250565b7f4552433732313a20617070726f766520746f2063616c6c657200000000000000600082015250565b7f4552433732313a206f70657261746f7220717565727920666f72206e6f6e657860008201527f697374656e7420746f6b656e0000000000000000000000000000000000000000602082015250565b7f4552433732313a20617070726f76652063616c6c6572206973206e6f74206f7760008201527f6e6572206e6f7220617070726f76656420666f7220616c6c0000000000000000602082015250565b7f4552433732313a2062616c616e636520717565727920666f7220746865207a6560008201527f726f206164647265737300000000000000000000000000000000000000000000602082015250565b7f4552433732313a206f776e657220717565727920666f72206e6f6e657869737460008201527f656e7420746f6b656e0000000000000000000000000000000000000000000000602082015250565b7f45524337323155524953746f726167653a2055524920736574206f66206e6f6e60008201527f6578697374656e7420746f6b656e000000000000000000000000000000000000602082015250565b7f526573746f72653a2061756374696f6e6564207069656365206d75737420626560008201527f2066726f7a656e206279206f776e657220766961204a75737469636500000000602082015250565b7f4552433732313a206d696e7420746f20746865207a65726f2061646472657373600082015250565b7f45524337323155524953746f726167653a2055524920717565727920666f722060008201527f6e6f6e6578697374656e7420746f6b656e000000000000000000000000000000602082015250565b7f4552433732313a20617070726f76656420717565727920666f72206e6f6e657860008201527f697374656e7420746f6b656e0000000000000000000000000000000000000000602082015250565b7f4f776e61626c653a2063616c6c6572206973206e6f7420746865206f776e6572600082015250565b7f4552433732313a207472616e73666572206f6620746f6b656e2074686174206960008201527f73206e6f74206f776e0000000000000000000000000000000000000000000000602082015250565b7f4552433732314d657461646174613a2055524920717565727920666f72206e6f60008201527f6e6578697374656e7420746f6b656e0000000000000000000000000000000000602082015250565b7f4552433732313a20617070726f76616c20746f2063757272656e74206f776e6560008201527f7200000000000000000000000000000000000000000000000000000000000000602082015250565b7f4552433732313a207472616e736665722063616c6c6572206973206e6f74206f60008201527f776e6572206e6f7220617070726f766564000000000000000000000000000000602082015250565b7f526573746f72653a20756e6b6e6f776e20746f6b656e00000000000000000000600082015250565b613e02816135ad565b8114613e0d57600080fd5b50565b613e19816135bf565b8114613e2457600080fd5b50565b613e30816135cb565b8114613e3b57600080fd5b50565b613e47816135f7565b8114613e5257600080fd5b50565b613e5e81613629565b8114613e6957600080fd5b5056fe68747470733a2f2f617277656176652e6e65742f32494b7a653977594b705f636777566831396f617a6d30385a6a34754d79526d476355507631615437646fa26469706673582212202f107a034b54e989fd5f42bc1feec78beb4b2e61fd59efc82a2bbdbd6d402f8364736f6c63430008070033",
  "devdoc": {
    "kind": "dev",
    "methods": {
      "approve(address,uint256)": {
        "details": "See {IERC721-approve}."
      },
      "auctionable(uint256)": {
        "params": {
          "tokenId": "the tokenId to be checked for auction"
        }
      },
      "balanceOf(address)": {
        "details": "See {IERC721-balanceOf}."
      },
      "contractURI()": {
        "details": "Link to contract metadata"
      },
      "freeze(address,uint256)": {
        "params": {
          "buyer": "address of winning bid",
          "tokenId": "index of the NFT bought in the auction"
        }
      },
      "getApproved(uint256)": {
        "details": "See {IERC721-getApproved}."
      },
      "mintForAuction(address,string)": {
        "details": "Safely mints a token to an address with a tokenURI.",
        "params": {
          "creator": "this will likely be pr1s0n.art, but may be others in the future. Included here for proper attribution.",
          "uri": "full URI to token metadata"
        }
      },
      "name()": {
        "details": "See {IERC721Metadata-name}."
      },
      "onERC721Received(address,address,uint256,bytes)": {
        "details": "See {IERC721Receiver-onERC721Received}. Always returns `IERC721Receiver.onERC721Received.selector`."
      },
      "owner()": {
        "details": "Returns the address of the current owner."
      },
      "ownerOf(uint256)": {
        "details": "See {IERC721-ownerOf}."
      },
      "renounceOwnership()": {
        "details": "Leaves the contract without owner. It will not be possible to call `onlyOwner` functions anymore. Can only be called by the current owner. NOTE: Renouncing ownership will leave the contract without an owner, thereby removing any functionality that is only available to the owner."
      },
      "royaltyInfo(uint256,uint256)": {
        "params": {
          "_tokenId": "- the NFT asset queried for royalty information",
          "_value": "- the sale price of the NFT asset specified by _tokenId"
        },
        "returns": {
          "receiver": "- address of who should be sent the royalty payment",
          "royaltyAmount": "- the royalty payment amount for value sale price"
        }
      },
      "safeTransferFrom(address,address,uint256)": {
        "details": "See {IERC721-safeTransferFrom}."
      },
      "safeTransferFrom(address,address,uint256,bytes)": {
        "details": "See {IERC721-safeTransferFrom}."
      },
      "setApprovalForAll(address,bool)": {
        "details": "See {IERC721-setApprovalForAll}."
      },
      "setJustice(address)": {
        "params": {
          "_justice": "the address of the justice contract"
        }
      },
      "setRoyalties(address,uint256)": {
        "params": {
          "recipient": "the royalties recipient - will always be pr1s0nart, for regulatory reasons.",
          "value": "royalties value (between 0 and 10000)"
        }
      },
      "symbol()": {
        "details": "See {IERC721Metadata-symbol}."
      },
      "tokenURI(uint256)": {
        "details": "See {IERC721Metadata-tokenURI}."
      },
      "transferFrom(address,address,uint256)": {
        "details": "See {IERC721-transferFrom}."
      },
      "transferOwnership(address)": {
        "details": "Transfers ownership of the contract to a new account (`newOwner`). Can only be called by the current owner."
      },
      "transferToBuyer(uint256,bytes)": {
        "params": {
          "data": "URI to receipt metadata that will be added to the NFT"
        }
      }
    },
    "version": 1
  },
  "userdoc": {
    "kind": "user",
    "methods": {
      "auctionable(uint256)": {
        "notice": "called by Justice to ensure that this token exists and can be auctioned before creating an auction"
      },
      "freeze(address,uint256)": {
        "notice": "called when an auction is settled, sets the frozenToken struct."
      },
      "isApprovedForAll(address,address)": {
        "notice": "Override isApprovedForAll to whitelist user's OpenSea proxy accounts to enable gas-less listings."
      },
      "mintForAuction(address,string)": {
        "notice": "this mints the NFT to this contract so that we can ensure only the buyer can receive the first transfer and         prove contractually that no-one else can."
      },
      "setJustice(address)": {
        "notice": "called by the owner to make sure the checks in freeze and transferToBuyer pass correctly"
      },
      "setRoyalties(address,uint256)": {
        "notice": "Set the royalties for the whole contract. Our intention is to set it to 10% in perpetuity."
      },
      "transferToBuyer(uint256,bytes)": {
        "notice": "sends 'frozen' NFT to the winning bidder by attaching the receipt. Protected only to ensure no random         data is uploaded on the transfer."
      }
    },
    "version": 1
  },
  "storageLayout": {
    "storage": [
      {
        "astId": 2224,
        "contract": "contracts/Restore.sol:Restore",
        "label": "_name",
        "offset": 0,
        "slot": "0",
        "type": "t_string_storage"
      },
      {
        "astId": 2226,
        "contract": "contracts/Restore.sol:Restore",
        "label": "_symbol",
        "offset": 0,
        "slot": "1",
        "type": "t_string_storage"
      },
      {
        "astId": 2230,
        "contract": "contracts/Restore.sol:Restore",
        "label": "_owners",
        "offset": 0,
        "slot": "2",
        "type": "t_mapping(t_uint256,t_address)"
      },
      {
        "astId": 2234,
        "contract": "contracts/Restore.sol:Restore",
        "label": "_balances",
        "offset": 0,
        "slot": "3",
        "type": "t_mapping(t_address,t_uint256)"
      },
      {
        "astId": 2238,
        "contract": "contracts/Restore.sol:Restore",
        "label": "_tokenApprovals",
        "offset": 0,
        "slot": "4",
        "type": "t_mapping(t_uint256,t_address)"
      },
      {
        "astId": 2244,
        "contract": "contracts/Restore.sol:Restore",
        "label": "_operatorApprovals",
        "offset": 0,
        "slot": "5",
        "type": "t_mapping(t_address,t_mapping(t_address,t_bool))"
      },
      {
        "astId": 3148,
        "contract": "contracts/Restore.sol:Restore",
        "label": "_tokenURIs",
        "offset": 0,
        "slot": "6",
        "type": "t_mapping(t_uint256,t_string_storage)"
      },
      {
        "astId": 2099,
        "contract": "contracts/Restore.sol:Restore",
        "label": "_royalties",
        "offset": 0,
        "slot": "7",
        "type": "t_struct(RoyaltyInfo)2175_storage"
      },
      {
        "astId": 3007,
        "contract": "contracts/Restore.sol:Restore",
        "label": "proxyRegistryAddress",
        "offset": 0,
        "slot": "8",
        "type": "t_address"
      },
      {
        "astId": 7,
        "contract": "contracts/Restore.sol:Restore",
        "label": "_owner",
        "offset": 0,
        "slot": "9",
        "type": "t_address"
      },
      {
        "astId": 1880,
        "contract": "contracts/Restore.sol:Restore",
        "label": "_tokenIdCounter",
        "offset": 0,
        "slot": "10",
        "type": "t_struct(Counter)930_storage"
      },
      {
        "astId": 1884,
        "contract": "contracts/Restore.sol:Restore",
        "label": "buyers",
        "offset": 0,
        "slot": "11",
        "type": "t_mapping(t_uint256,t_address)"
      },
      {
        "astId": 1886,
        "contract": "contracts/Restore.sol:Restore",
        "label": "justice",
        "offset": 0,
        "slot": "12",
        "type": "t_address"
      }
    ],
    "types": {
      "t_address": {
        "encoding": "inplace",
        "label": "address",
        "numberOfBytes": "20"
      },
      "t_bool": {
        "encoding": "inplace",
        "label": "bool",
        "numberOfBytes": "1"
      },
      "t_mapping(t_address,t_bool)": {
        "encoding": "mapping",
        "key": "t_address",
        "label": "mapping(address => bool)",
        "numberOfBytes": "32",
        "value": "t_bool"
      },
      "t_mapping(t_address,t_mapping(t_address,t_bool))": {
        "encoding": "mapping",
        "key": "t_address",
        "label": "mapping(address => mapping(address => bool))",
        "numberOfBytes": "32",
        "value": "t_mapping(t_address,t_bool)"
      },
      "t_mapping(t_address,t_uint256)": {
        "encoding": "mapping",
        "key": "t_address",
        "label": "mapping(address => uint256)",
        "numberOfBytes": "32",
        "value": "t_uint256"
      },
      "t_mapping(t_uint256,t_address)": {
        "encoding": "mapping",
        "key": "t_uint256",
        "label": "mapping(uint256 => address)",
        "numberOfBytes": "32",
        "value": "t_address"
      },
      "t_mapping(t_uint256,t_string_storage)": {
        "encoding": "mapping",
        "key": "t_uint256",
        "label": "mapping(uint256 => string)",
        "numberOfBytes": "32",
        "value": "t_string_storage"
      },
      "t_string_storage": {
        "encoding": "bytes",
        "label": "string",
        "numberOfBytes": "32"
      },
      "t_struct(Counter)930_storage": {
        "encoding": "inplace",
        "label": "struct Counters.Counter",
        "members": [
          {
            "astId": 929,
            "contract": "contracts/Restore.sol:Restore",
            "label": "_value",
            "offset": 0,
            "slot": "0",
            "type": "t_uint256"
          }
        ],
        "numberOfBytes": "32"
      },
      "t_struct(RoyaltyInfo)2175_storage": {
        "encoding": "inplace",
        "label": "struct ERC2981Royalties.RoyaltyInfo",
        "members": [
          {
            "astId": 2172,
            "contract": "contracts/Restore.sol:Restore",
            "label": "recipient",
            "offset": 0,
            "slot": "0",
            "type": "t_address"
          },
          {
            "astId": 2174,
            "contract": "contracts/Restore.sol:Restore",
            "label": "amount",
            "offset": 20,
            "slot": "0",
            "type": "t_uint24"
          }
        ],
        "numberOfBytes": "32"
      },
      "t_uint24": {
        "encoding": "inplace",
        "label": "uint24",
        "numberOfBytes": "3"
      },
      "t_uint256": {
        "encoding": "inplace",
        "label": "uint256",
        "numberOfBytes": "32"
      }
    }
  }
}